{
  "contractName": "SupplyChain",
  "abi": [
    {
      "inputs": [
        {
          "internalType": "address",
          "name": "initialFarmer",
          "type": "address"
        },
        {
          "internalType": "address",
          "name": "initialDistributor",
          "type": "address"
        },
        {
          "internalType": "address",
          "name": "initialRetailer",
          "type": "address"
        }
      ],
      "stateMutability": "payable",
      "type": "constructor",
      "payable": true
    },
    {
      "anonymous": false,
      "inputs": [
        {
          "indexed": false,
          "internalType": "uint256",
          "name": "upc",
          "type": "uint256"
        }
      ],
      "name": "AddedToPalette",
      "type": "event"
    },
    {
      "anonymous": false,
      "inputs": [
        {
          "indexed": false,
          "internalType": "uint256",
          "name": "upc",
          "type": "uint256"
        }
      ],
      "name": "Bought",
      "type": "event"
    },
    {
      "anonymous": false,
      "inputs": [
        {
          "indexed": false,
          "internalType": "uint256",
          "name": "upc",
          "type": "uint256"
        }
      ],
      "name": "Harvested",
      "type": "event"
    },
    {
      "anonymous": false,
      "inputs": [
        {
          "indexed": true,
          "internalType": "address",
          "name": "previousOwner",
          "type": "address"
        },
        {
          "indexed": true,
          "internalType": "address",
          "name": "newOwner",
          "type": "address"
        }
      ],
      "name": "OwnershipTransferred",
      "type": "event"
    },
    {
      "anonymous": false,
      "inputs": [
        {
          "indexed": false,
          "internalType": "uint256",
          "name": "upc",
          "type": "uint256"
        }
      ],
      "name": "Packed",
      "type": "event"
    },
    {
      "anonymous": false,
      "inputs": [
        {
          "indexed": false,
          "internalType": "uint256",
          "name": "upc",
          "type": "uint256"
        }
      ],
      "name": "Processed",
      "type": "event"
    },
    {
      "anonymous": false,
      "inputs": [
        {
          "indexed": false,
          "internalType": "uint256",
          "name": "upc",
          "type": "uint256"
        }
      ],
      "name": "Received",
      "type": "event"
    },
    {
      "anonymous": false,
      "inputs": [
        {
          "indexed": true,
          "internalType": "bytes32",
          "name": "role",
          "type": "bytes32"
        },
        {
          "indexed": true,
          "internalType": "address",
          "name": "account",
          "type": "address"
        },
        {
          "indexed": true,
          "internalType": "address",
          "name": "sender",
          "type": "address"
        }
      ],
      "name": "RoleGranted",
      "type": "event"
    },
    {
      "anonymous": false,
      "inputs": [
        {
          "indexed": true,
          "internalType": "bytes32",
          "name": "role",
          "type": "bytes32"
        },
        {
          "indexed": true,
          "internalType": "address",
          "name": "account",
          "type": "address"
        },
        {
          "indexed": true,
          "internalType": "address",
          "name": "sender",
          "type": "address"
        }
      ],
      "name": "RoleRevoked",
      "type": "event"
    },
    {
      "anonymous": false,
      "inputs": [
        {
          "indexed": false,
          "internalType": "uint256",
          "name": "upc",
          "type": "uint256"
        }
      ],
      "name": "SaleInitialized",
      "type": "event"
    },
    {
      "anonymous": false,
      "inputs": [
        {
          "indexed": false,
          "internalType": "uint256",
          "name": "upc",
          "type": "uint256"
        }
      ],
      "name": "Shipped",
      "type": "event"
    },
    {
      "anonymous": false,
      "inputs": [
        {
          "indexed": false,
          "internalType": "uint256",
          "name": "upc",
          "type": "uint256"
        }
      ],
      "name": "Sold",
      "type": "event"
    },
    {
      "inputs": [],
      "name": "CONSUMER_ROLE",
      "outputs": [
        {
          "internalType": "bytes32",
          "name": "",
          "type": "bytes32"
        }
      ],
      "stateMutability": "view",
      "type": "function",
      "constant": true
    },
    {
      "inputs": [],
      "name": "DEFAULT_ADMIN_ROLE",
      "outputs": [
        {
          "internalType": "bytes32",
          "name": "",
          "type": "bytes32"
        }
      ],
      "stateMutability": "view",
      "type": "function",
      "constant": true
    },
    {
      "inputs": [],
      "name": "DISTRIBUTOR_ROLE",
      "outputs": [
        {
          "internalType": "bytes32",
          "name": "",
          "type": "bytes32"
        }
      ],
      "stateMutability": "view",
      "type": "function",
      "constant": true
    },
    {
      "inputs": [],
      "name": "FARMER_ROLE",
      "outputs": [
        {
          "internalType": "bytes32",
          "name": "",
          "type": "bytes32"
        }
      ],
      "stateMutability": "view",
      "type": "function",
      "constant": true
    },
    {
      "inputs": [],
      "name": "RETAILER_ROLE",
      "outputs": [
        {
          "internalType": "bytes32",
          "name": "",
          "type": "bytes32"
        }
      ],
      "stateMutability": "view",
      "type": "function",
      "constant": true
    },
    {
      "inputs": [
        {
          "internalType": "bytes32",
          "name": "role",
          "type": "bytes32"
        }
      ],
      "name": "getRoleAdmin",
      "outputs": [
        {
          "internalType": "bytes32",
          "name": "",
          "type": "bytes32"
        }
      ],
      "stateMutability": "view",
      "type": "function",
      "constant": true
    },
    {
      "inputs": [
        {
          "internalType": "bytes32",
          "name": "role",
          "type": "bytes32"
        },
        {
          "internalType": "uint256",
          "name": "index",
          "type": "uint256"
        }
      ],
      "name": "getRoleMember",
      "outputs": [
        {
          "internalType": "address",
          "name": "",
          "type": "address"
        }
      ],
      "stateMutability": "view",
      "type": "function",
      "constant": true
    },
    {
      "inputs": [
        {
          "internalType": "bytes32",
          "name": "role",
          "type": "bytes32"
        }
      ],
      "name": "getRoleMemberCount",
      "outputs": [
        {
          "internalType": "uint256",
          "name": "",
          "type": "uint256"
        }
      ],
      "stateMutability": "view",
      "type": "function",
      "constant": true
    },
    {
      "inputs": [
        {
          "internalType": "bytes32",
          "name": "role",
          "type": "bytes32"
        },
        {
          "internalType": "address",
          "name": "account",
          "type": "address"
        }
      ],
      "name": "grantRole",
      "outputs": [],
      "stateMutability": "nonpayable",
      "type": "function"
    },
    {
      "inputs": [
        {
          "internalType": "bytes32",
          "name": "role",
          "type": "bytes32"
        },
        {
          "internalType": "address",
          "name": "account",
          "type": "address"
        }
      ],
      "name": "hasRole",
      "outputs": [
        {
          "internalType": "bool",
          "name": "",
          "type": "bool"
        }
      ],
      "stateMutability": "view",
      "type": "function",
      "constant": true
    },
    {
      "inputs": [],
      "name": "owner",
      "outputs": [
        {
          "internalType": "address",
          "name": "",
          "type": "address"
        }
      ],
      "stateMutability": "view",
      "type": "function",
      "constant": true
    },
    {
      "inputs": [],
      "name": "renounceOwnership",
      "outputs": [],
      "stateMutability": "nonpayable",
      "type": "function"
    },
    {
      "inputs": [
        {
          "internalType": "bytes32",
          "name": "role",
          "type": "bytes32"
        },
        {
          "internalType": "address",
          "name": "account",
          "type": "address"
        }
      ],
      "name": "renounceRole",
      "outputs": [],
      "stateMutability": "nonpayable",
      "type": "function"
    },
    {
      "inputs": [
        {
          "internalType": "bytes32",
          "name": "role",
          "type": "bytes32"
        },
        {
          "internalType": "address",
          "name": "account",
          "type": "address"
        }
      ],
      "name": "revokeRole",
      "outputs": [],
      "stateMutability": "nonpayable",
      "type": "function"
    },
    {
      "inputs": [
        {
          "internalType": "address",
          "name": "newOwner",
          "type": "address"
        }
      ],
      "name": "transferOwnership",
      "outputs": [],
      "stateMutability": "nonpayable",
      "type": "function"
    },
    {
      "inputs": [],
      "name": "kill",
      "outputs": [],
      "stateMutability": "nonpayable",
      "type": "function"
    },
    {
      "inputs": [
        {
          "internalType": "address payable",
          "name": "farmer",
          "type": "address"
        }
      ],
      "name": "addFarmer",
      "outputs": [],
      "stateMutability": "nonpayable",
      "type": "function"
    },
    {
      "inputs": [
        {
          "internalType": "address payable",
          "name": "distributor",
          "type": "address"
        }
      ],
      "name": "addDistributor",
      "outputs": [],
      "stateMutability": "nonpayable",
      "type": "function"
    },
    {
      "inputs": [
        {
          "internalType": "address payable",
          "name": "retailer",
          "type": "address"
        }
      ],
      "name": "addRetailer",
      "outputs": [],
      "stateMutability": "nonpayable",
      "type": "function"
    },
    {
      "inputs": [
        {
          "internalType": "address payable",
          "name": "_address",
          "type": "address"
        }
      ],
      "name": "getUserRole",
      "outputs": [
        {
          "internalType": "string",
          "name": "",
          "type": "string"
        }
      ],
      "stateMutability": "view",
      "type": "function",
      "constant": true
    },
    {
      "inputs": [
        {
          "internalType": "uint256",
          "name": "_upc",
          "type": "uint256"
        },
        {
          "internalType": "address payable",
          "name": "_originFarmerId",
          "type": "address"
        },
        {
          "internalType": "string",
          "name": "_originFarmName",
          "type": "string"
        },
        {
          "internalType": "string",
          "name": "_originFarmInformation",
          "type": "string"
        },
        {
          "internalType": "string",
          "name": "_originFarmLatitude",
          "type": "string"
        },
        {
          "internalType": "string",
          "name": "_originFarmLongitude",
          "type": "string"
        },
        {
          "internalType": "string",
          "name": "_productName",
          "type": "string"
        }
      ],
      "name": "harvest",
      "outputs": [],
      "stateMutability": "nonpayable",
      "type": "function"
    },
    {
      "inputs": [
        {
          "internalType": "uint256",
          "name": "_upc",
          "type": "uint256"
        }
      ],
      "name": "process",
      "outputs": [],
      "stateMutability": "nonpayable",
      "type": "function"
    },
    {
      "inputs": [
        {
          "internalType": "uint256",
          "name": "_upc",
          "type": "uint256"
        }
      ],
      "name": "pack",
      "outputs": [],
      "stateMutability": "nonpayable",
      "type": "function"
    },
    {
      "inputs": [
        {
          "internalType": "uint256",
          "name": "_upc",
          "type": "uint256"
        },
        {
          "internalType": "uint256",
          "name": "_productPrice",
          "type": "uint256"
        }
      ],
      "name": "addToPalette",
      "outputs": [],
      "stateMutability": "nonpayable",
      "type": "function"
    },
    {
      "inputs": [
        {
          "internalType": "uint256",
          "name": "_upc",
          "type": "uint256"
        }
      ],
      "name": "buyPalette",
      "outputs": [],
      "stateMutability": "payable",
      "type": "function",
      "payable": true
    },
    {
      "inputs": [
        {
          "internalType": "uint256",
          "name": "_upc",
          "type": "uint256"
        }
      ],
      "name": "shipPalette",
      "outputs": [],
      "stateMutability": "nonpayable",
      "type": "function"
    },
    {
      "inputs": [
        {
          "internalType": "uint256",
          "name": "_upc",
          "type": "uint256"
        }
      ],
      "name": "receivePalette",
      "outputs": [],
      "stateMutability": "nonpayable",
      "type": "function"
    },
    {
      "inputs": [
        {
          "internalType": "uint256",
          "name": "_upc",
          "type": "uint256"
        },
        {
          "internalType": "address",
          "name": "_consumerID",
          "type": "address"
        }
      ],
      "name": "initializeSale",
      "outputs": [],
      "stateMutability": "nonpayable",
      "type": "function"
    },
    {
      "inputs": [
        {
          "internalType": "uint256",
          "name": "_upc",
          "type": "uint256"
        }
      ],
      "name": "buy",
      "outputs": [],
      "stateMutability": "nonpayable",
      "type": "function"
    },
    {
      "inputs": [
        {
          "internalType": "uint256",
          "name": "_upc",
          "type": "uint256"
        }
      ],
      "name": "fetchProduct",
      "outputs": [
        {
          "internalType": "uint256",
          "name": "itemSKU",
          "type": "uint256"
        },
        {
          "internalType": "uint256",
          "name": "itemUPC",
          "type": "uint256"
        },
        {
          "internalType": "uint256",
          "name": "itemState",
          "type": "uint256"
        },
        {
          "internalType": "address",
          "name": "ownerID",
          "type": "address"
        },
        {
          "internalType": "address",
          "name": "originFarmerID",
          "type": "address"
        },
        {
          "internalType": "string",
          "name": "originFarmName",
          "type": "string"
        },
        {
          "internalType": "string",
          "name": "originFarmInformation",
          "type": "string"
        },
        {
          "internalType": "string",
          "name": "originFarmLatitude",
          "type": "string"
        },
        {
          "internalType": "string",
          "name": "originFarmLongitude",
          "type": "string"
        },
        {
          "internalType": "string",
          "name": "productName",
          "type": "string"
        }
      ],
      "stateMutability": "view",
      "type": "function",
      "constant": true
    },
    {
      "inputs": [
        {
          "internalType": "uint256",
          "name": "_upc",
          "type": "uint256"
        }
      ],
      "name": "fetchProductHistory",
      "outputs": [
        {
          "internalType": "address",
          "name": "ownerID",
          "type": "address"
        },
        {
          "internalType": "address",
          "name": "originFarmerID",
          "type": "address"
        },
        {
          "internalType": "address",
          "name": "distributorID",
          "type": "address"
        },
        {
          "internalType": "address",
          "name": "retailerID",
          "type": "address"
        },
        {
          "internalType": "address",
          "name": "consumerID",
          "type": "address"
        },
        {
          "internalType": "uint256",
          "name": "itemState",
          "type": "uint256"
        }
      ],
      "stateMutability": "view",
      "type": "function",
      "constant": true
    }
  ],
  "bytecode": "0x60806040526040516200517d3803806200517d833981810160405260608110156200002957600080fd5b81019080805190602001909291908051906020019092919080519060200190929190505050600062000060620004bf60201b60201c565b9050806000806101000a81548173ffffffffffffffffffffffffffffffffffffffff021916908373ffffffffffffffffffffffffffffffffffffffff1602179055508073ffffffffffffffffffffffffffffffffffffffff16600073ffffffffffffffffffffffffffffffffffffffff167f8be0079c531659141344cd1fd0a4f28419497f9722a3daafe3b4186f6b6457e060405160405180910390a350828073ffffffffffffffffffffffffffffffffffffffff16600260009054906101000a900473ffffffffffffffffffffffffffffffffffffffff1673ffffffffffffffffffffffffffffffffffffffff161415620001a8576040517f08c379a0000000000000000000000000000000000000000000000000000000008152600401808060200182810382526038815260200180620051456038913960400191505060405180910390fd5b828073ffffffffffffffffffffffffffffffffffffffff16600260009054906101000a900473ffffffffffffffffffffffffffffffffffffffff1673ffffffffffffffffffffffffffffffffffffffff16141562000252576040517f08c379a0000000000000000000000000000000000000000000000000000000008152600401808060200182810382526038815260200180620051456038913960400191505060405180910390fd5b828073ffffffffffffffffffffffffffffffffffffffff16600260009054906101000a900473ffffffffffffffffffffffffffffffffffffffff1673ffffffffffffffffffffffffffffffffffffffff161415620002fc576040517f08c379a0000000000000000000000000000000000000000000000000000000008152600401808060200182810382526038815260200180620051456038913960400191505060405180910390fd5b620003116000801b33620004c760201b60201c565b6200035860405180807f4641524d45525f524f4c45000000000000000000000000000000000000000000815250600b019050604051809103902087620004dd60201b60201c565b6200039f60405180807f4449535452494255544f525f524f4c45000000000000000000000000000000008152506010019050604051809103902086620004dd60201b60201c565b620003e660405180807f52455441494c45525f524f4c4500000000000000000000000000000000000000815250600d019050604051809103902085620004dd60201b60201c565b6200046260405180807f434f4e53554d45525f524f4c4500000000000000000000000000000000000000815250600d019050604051809103902060405180807f52455441494c45525f524f4c4500000000000000000000000000000000000000815250600d01905060405180910390206200058160201b60201c565b33600260006101000a81548173ffffffffffffffffffffffffffffffffffffffff021916908373ffffffffffffffffffffffffffffffffffffffff160217905550600160048190555060016003819055505050505050506200078a565b600033905090565b620004d98282620005a060201b60201c565b5050565b62000514600160008481526020019081526020016000206002015462000508620004bf60201b60201c565b6200064460201b60201c565b6200056b576040517f08c379a000000000000000000000000000000000000000000000000000000000815260040180806020018281038252602f81526020018062005116602f913960400191505060405180910390fd5b6200057d8282620005a060201b60201c565b5050565b8060016000848152602001908152602001600020600201819055505050565b620005cf81600160008581526020019081526020016000206000016200067d60201b620042ba1790919060201c565b156200064057620005e5620004bf60201b60201c565b73ffffffffffffffffffffffffffffffffffffffff168173ffffffffffffffffffffffffffffffffffffffff16837f2f8788117e7eff1d82e926ec794901d17c78024a50270940304540a733656f0d60405160405180910390a45b5050565b6000620006758260016000868152602001908152602001600020600001620006b560201b620042ea1790919060201c565b905092915050565b6000620006ad836000018373ffffffffffffffffffffffffffffffffffffffff1660001b620006ed60201b60201c565b905092915050565b6000620006e5836000018373ffffffffffffffffffffffffffffffffffffffff1660001b6200076760201b60201c565b905092915050565b60006200070183836200076760201b60201c565b6200075c57826000018290806001815401808255809150506001900390600052602060002001600090919091909150558260000180549050836001016000848152602001908152602001600020819055506001905062000761565b600090505b92915050565b600080836001016000848152602001908152602001600020541415905092915050565b61497c806200079a6000396000f3fe6080604052600436106101d85760003560e01c806380c3f96d11610102578063d38d030611610095578063f0bd87cc11610064578063f0bd87cc1461107c578063f2fde38b146110a7578063f3943970146110f8578063ffb2c47914611123576101d8565b8063d38d030614610c5d578063d547741f14610fab578063d96a094a14611006578063e2ffcda114611041576101d8565b806391d14854116100d157806391d1485414610b1557806396cf0cfd14610b88578063a217fddf14610be3578063ca15c87314610c0e576101d8565b806380c3f96d146109975780638da5cb5b146109e85780638ec4f50514610a3f5780639010d07c14610a90576101d8565b806341c0e1b51161017a578063715018a611610149578063715018a6146108bc57806371589294146108d35780637250e22414610918578063752fbd0414610969576101d8565b806341c0e1b5146106f15780634bc02da6146107085780636b156a78146107335780636ea4255514610881576101d8565b806327820851116101b657806327820851146105365780632820443f146106005780632f2ff15d1461063b57806336568abe14610696576101d8565b80630cb28a53146101dd5780632115e7bf146104bc578063248a9ca3146104e7575b600080fd5b3480156101e957600080fd5b506102166004803603602081101561020057600080fd5b810190808035906020019092919050505061115e565b604051808b81526020018a81526020018981526020018873ffffffffffffffffffffffffffffffffffffffff1673ffffffffffffffffffffffffffffffffffffffff1681526020018773ffffffffffffffffffffffffffffffffffffffff1673ffffffffffffffffffffffffffffffffffffffff168152602001806020018060200180602001806020018060200186810386528b818151815260200191508051906020019080838360005b838110156102dc5780820151818401526020810190506102c1565b50505050905090810190601f1680156103095780820380516001836020036101000a031916815260200191505b5086810385528a818151815260200191508051906020019080838360005b83811015610342578082015181840152602081019050610327565b50505050905090810190601f16801561036f5780820380516001836020036101000a031916815260200191505b50868103845289818151815260200191508051906020019080838360005b838110156103a857808201518184015260208101905061038d565b50505050905090810190601f1680156103d55780820380516001836020036101000a031916815260200191505b50868103835288818151815260200191508051906020019080838360005b8381101561040e5780820151818401526020810190506103f3565b50505050905090810190601f16801561043b5780820380516001836020036101000a031916815260200191505b50868103825287818151815260200191508051906020019080838360005b83811015610474578082015181840152602081019050610459565b50505050905090810190601f1680156104a15780820380516001836020036101000a031916815260200191505b509f5050505050505050505050505050505060405180910390f35b3480156104c857600080fd5b506104d1611725565b6040518082815260200191505060405180910390f35b3480156104f357600080fd5b506105206004803603602081101561050a57600080fd5b810190808035906020019092919050505061175e565b6040518082815260200191505060405180910390f35b34801561054257600080fd5b506105856004803603602081101561055957600080fd5b81019080803573ffffffffffffffffffffffffffffffffffffffff16906020019092919050505061177e565b6040518080602001828103825283818151815260200191508051906020019080838360005b838110156105c55780820151818401526020810190506105aa565b50505050905090810190601f1680156105f25780820380516001836020036101000a031916815260200191505b509250505060405180910390f35b34801561060c57600080fd5b506106396004803603602081101561062357600080fd5b81019080803590602001909291905050506119c2565b005b34801561064757600080fd5b506106946004803603604081101561065e57600080fd5b8101908080359060200190929190803573ffffffffffffffffffffffffffffffffffffffff169060200190929190505050611c72565b005b3480156106a257600080fd5b506106ef600480360360408110156106b957600080fd5b8101908080359060200190929190803573ffffffffffffffffffffffffffffffffffffffff169060200190929190505050611cfc565b005b3480156106fd57600080fd5b50610706611d95565b005b34801561071457600080fd5b5061071d611e28565b6040518082815260200191505060405180910390f35b34801561073f57600080fd5b5061076c6004803603602081101561075657600080fd5b8101908080359060200190929190505050611e61565b604051808773ffffffffffffffffffffffffffffffffffffffff1673ffffffffffffffffffffffffffffffffffffffff1681526020018673ffffffffffffffffffffffffffffffffffffffff1673ffffffffffffffffffffffffffffffffffffffff1681526020018573ffffffffffffffffffffffffffffffffffffffff1673ffffffffffffffffffffffffffffffffffffffff1681526020018473ffffffffffffffffffffffffffffffffffffffff1673ffffffffffffffffffffffffffffffffffffffff1681526020018373ffffffffffffffffffffffffffffffffffffffff1673ffffffffffffffffffffffffffffffffffffffff168152602001828152602001965050505050505060405180910390f35b34801561088d57600080fd5b506108ba600480360360208110156108a457600080fd5b8101908080359060200190929190505050612403565b005b3480156108c857600080fd5b506108d16126b2565b005b3480156108df57600080fd5b50610916600480360360408110156108f657600080fd5b81019080803590602001909291908035906020019092919050505061283a565b005b34801561092457600080fd5b506109676004803603602081101561093b57600080fd5b81019080803573ffffffffffffffffffffffffffffffffffffffff169060200190929190505050612b05565b005b6109956004803603602081101561097f57600080fd5b8101908080359060200190929190505050612c0c565b005b3480156109a357600080fd5b506109e6600480360360208110156109ba57600080fd5b81019080803573ffffffffffffffffffffffffffffffffffffffff169060200190929190505050613033565b005b3480156109f457600080fd5b506109fd61313a565b604051808273ffffffffffffffffffffffffffffffffffffffff1673ffffffffffffffffffffffffffffffffffffffff16815260200191505060405180910390f35b348015610a4b57600080fd5b50610a8e60048036036020811015610a6257600080fd5b81019080803573ffffffffffffffffffffffffffffffffffffffff169060200190929190505050613163565b005b348015610a9c57600080fd5b50610ad360048036036040811015610ab357600080fd5b81019080803590602001909291908035906020019092919050505061326a565b604051808273ffffffffffffffffffffffffffffffffffffffff1673ffffffffffffffffffffffffffffffffffffffff16815260200191505060405180910390f35b348015610b2157600080fd5b50610b6e60048036036040811015610b3857600080fd5b8101908080359060200190929190803573ffffffffffffffffffffffffffffffffffffffff16906020019092919050505061329c565b604051808215151515815260200191505060405180910390f35b348015610b9457600080fd5b50610be160048036036040811015610bab57600080fd5b8101908080359060200190929190803573ffffffffffffffffffffffffffffffffffffffff1690602001909291905050506132ce565b005b348015610bef57600080fd5b50610bf86134e4565b6040518082815260200191505060405180910390f35b348015610c1a57600080fd5b50610c4760048036036020811015610c3157600080fd5b81019080803590602001909291905050506134eb565b6040518082815260200191505060405180910390f35b348015610c6957600080fd5b50610fa9600480360360e0811015610c8057600080fd5b8101908080359060200190929190803573ffffffffffffffffffffffffffffffffffffffff16906020019092919080359060200190640100000000811115610cc757600080fd5b820183602082011115610cd957600080fd5b80359060200191846001830284011164010000000083111715610cfb57600080fd5b91908080601f016020809104026020016040519081016040528093929190818152602001838380828437600081840152601f19601f82011690508083019250505050505050919291929080359060200190640100000000811115610d5e57600080fd5b820183602082011115610d7057600080fd5b80359060200191846001830284011164010000000083111715610d9257600080fd5b91908080601f016020809104026020016040519081016040528093929190818152602001838380828437600081840152601f19601f82011690508083019250505050505050919291929080359060200190640100000000811115610df557600080fd5b820183602082011115610e0757600080fd5b80359060200191846001830284011164010000000083111715610e2957600080fd5b91908080601f016020809104026020016040519081016040528093929190818152602001838380828437600081840152601f19601f82011690508083019250505050505050919291929080359060200190640100000000811115610e8c57600080fd5b820183602082011115610e9e57600080fd5b80359060200191846001830284011164010000000083111715610ec057600080fd5b91908080601f016020809104026020016040519081016040528093929190818152602001838380828437600081840152601f19601f82011690508083019250505050505050919291929080359060200190640100000000811115610f2357600080fd5b820183602082011115610f3557600080fd5b80359060200191846001830284011164010000000083111715610f5757600080fd5b91908080601f016020809104026020016040519081016040528093929190818152602001838380828437600081840152601f19601f820116905080830192505050505050509192919290505050613512565b005b348015610fb757600080fd5b5061100460048036036040811015610fce57600080fd5b8101908080359060200190929190803573ffffffffffffffffffffffffffffffffffffffff169060200190929190505050613802565b005b34801561101257600080fd5b5061103f6004803603602081101561102957600080fd5b810190808035906020019092919050505061388c565b005b34801561104d57600080fd5b5061107a6004803603602081101561106457600080fd5b8101908080359060200190929190505050613b0c565b005b34801561108857600080fd5b50611091613d8c565b6040518082815260200191505060405180910390f35b3480156110b357600080fd5b506110f6600480360360208110156110ca57600080fd5b81019080803573ffffffffffffffffffffffffffffffffffffffff169060200190929190505050613dc5565b005b34801561110457600080fd5b5061110d613fd2565b6040518082815260200191505060405180910390f35b34801561112f57600080fd5b5061115c6004803603602081101561114657600080fd5b810190808035906020019092919050505061400b565b005b600080600080600060608060608060606111766146b8565b600560008d8152602001908152602001600020604051806101e001604052908160008201548152602001600182015481526020016002820160009054906101000a900473ffffffffffffffffffffffffffffffffffffffff1673ffffffffffffffffffffffffffffffffffffffff1673ffffffffffffffffffffffffffffffffffffffff1681526020016003820160009054906101000a900473ffffffffffffffffffffffffffffffffffffffff1673ffffffffffffffffffffffffffffffffffffffff1673ffffffffffffffffffffffffffffffffffffffff168152602001600482018054600181600116156101000203166002900480601f0160208091040260200160405190810160405280929190818152602001828054600181600116156101000203166002900480156112ee5780601f106112c3576101008083540402835291602001916112ee565b820191906000526020600020905b8154815290600101906020018083116112d157829003601f168201915b50505050508152602001600582018054600181600116156101000203166002900480601f0160208091040260200160405190810160405280929190818152602001828054600181600116156101000203166002900480156113905780601f1061136557610100808354040283529160200191611390565b820191906000526020600020905b81548152906001019060200180831161137357829003601f168201915b50505050508152602001600682018054600181600116156101000203166002900480601f0160208091040260200160405190810160405280929190818152602001828054600181600116156101000203166002900480156114325780601f1061140757610100808354040283529160200191611432565b820191906000526020600020905b81548152906001019060200180831161141557829003601f168201915b50505050508152602001600782018054600181600116156101000203166002900480601f0160208091040260200160405190810160405280929190818152602001828054600181600116156101000203166002900480156114d45780601f106114a9576101008083540402835291602001916114d4565b820191906000526020600020905b8154815290600101906020018083116114b757829003601f168201915b5050505050815260200160088201548152602001600982018054600181600116156101000203166002900480601f0160208091040260200160405190810160405280929190818152602001828054600181600116156101000203166002900480156115805780601f1061155557610100808354040283529160200191611580565b820191906000526020600020905b81548152906001019060200180831161156357829003601f168201915b50505050508152602001600a8201548152602001600b820160009054906101000a900460ff1660088111156115b157fe5b60088111156115bc57fe5b8152602001600b820160019054906101000a900473ffffffffffffffffffffffffffffffffffffffff1673ffffffffffffffffffffffffffffffffffffffff1673ffffffffffffffffffffffffffffffffffffffff168152602001600c820160009054906101000a900473ffffffffffffffffffffffffffffffffffffffff1673ffffffffffffffffffffffffffffffffffffffff1673ffffffffffffffffffffffffffffffffffffffff168152602001600d820160009054906101000a900473ffffffffffffffffffffffffffffffffffffffff1673ffffffffffffffffffffffffffffffffffffffff1673ffffffffffffffffffffffffffffffffffffffff1681525050905080600001519a508060200151995080610160015160088111156116e357fe5b98508060400151975080606001519650806080015195508060a0015194508060c0015193508060e0015192508061012001519150509193959799509193959799565b60405180807f52455441494c45525f524f4c4500000000000000000000000000000000000000815250600d019050604051809103902081565b600060016000838152602001908152602001600020600201549050919050565b60606117bf60405180807f4641524d45525f524f4c45000000000000000000000000000000000000000000815250600b01905060405180910390208361329c565b15611801576040518060400160405280600681526020017f6661726d6572000000000000000000000000000000000000000000000000000081525090506119bd565b61184060405180807f4449535452494255544f525f524f4c4500000000000000000000000000000000815250601001905060405180910390208361329c565b15611882576040518060400160405280600b81526020017f6469737472696275746f7200000000000000000000000000000000000000000081525090506119bd565b6118c160405180807f52455441494c45525f524f4c4500000000000000000000000000000000000000815250600d01905060405180910390208361329c565b15611903576040518060400160405280600881526020017f72657461696c657200000000000000000000000000000000000000000000000081525090506119bd565b61194260405180807f434f4e53554d45525f524f4c4500000000000000000000000000000000000000815250600d01905060405180910390208361329c565b15611984576040518060400160405280600881526020017f636f6e73756d657200000000000000000000000000000000000000000000000081525090506119bd565b6040518060400160405280600481526020017f6e6f6e650000000000000000000000000000000000000000000000000000000081525090505b919050565b33611a0260405180807f4449535452494255544f525f524f4c4500000000000000000000000000000000815250601001905060405180910390208261329c565b611a74576040517f08c379a00000000000000000000000000000000000000000000000000000000081526004018080602001828103825260188152602001807f4572726f723a204e6f742061206469737472696275746f72000000000000000081525060200191505060405180910390fd5b8160046008811115611a8257fe5b600560006003548152602001908152602001600020600b0160009054906101000a900460ff166008811115611ab357fe5b14611b26576040517f08c379a00000000000000000000000000000000000000000000000000000000081526004018080602001828103825260148152602001807f4572726f723a204974656d206e6f7420736f6c6400000000000000000000000081525060200191505060405180910390fd5b6005600084815260200190815260200160002060020160009054906101000a900473ffffffffffffffffffffffffffffffffffffffff168073ffffffffffffffffffffffffffffffffffffffff163373ffffffffffffffffffffffffffffffffffffffff1614611bfe576040517f08c379a000000000000000000000000000000000000000000000000000000000815260040180806020018281038252601b8152602001807f4572726f723a2043616c6c657220697320756e7665726966696564000000000081525060200191505060405180910390fd5b6005806000868152602001908152602001600020600b0160006101000a81548160ff02191690836008811115611c3057fe5b02179055507ff00b9a5725b80c54016f42114f6ed7792d22eecb116011c4afac29c57bef6c95846040518082815260200191505060405180910390a150505050565b611c996001600084815260200190815260200160002060020154611c9461431a565b61329c565b611cee576040517f08c379a000000000000000000000000000000000000000000000000000000000815260040180806020018281038252602f81526020018061486f602f913960400191505060405180910390fd5b611cf88282614322565b5050565b611d0461431a565b73ffffffffffffffffffffffffffffffffffffffff168173ffffffffffffffffffffffffffffffffffffffff1614611d87576040517f08c379a000000000000000000000000000000000000000000000000000000000815260040180806020018281038252602f815260200180614918602f913960400191505060405180910390fd5b611d9182826143b6565b5050565b600260009054906101000a900473ffffffffffffffffffffffffffffffffffffffff1673ffffffffffffffffffffffffffffffffffffffff163373ffffffffffffffffffffffffffffffffffffffff161415611e2657600260009054906101000a900473ffffffffffffffffffffffffffffffffffffffff1673ffffffffffffffffffffffffffffffffffffffff16ff5b565b60405180807f434f4e53554d45525f524f4c4500000000000000000000000000000000000000815250600d019050604051809103902081565b600080600080600080611e726146b8565b60056000898152602001908152602001600020604051806101e001604052908160008201548152602001600182015481526020016002820160009054906101000a900473ffffffffffffffffffffffffffffffffffffffff1673ffffffffffffffffffffffffffffffffffffffff1673ffffffffffffffffffffffffffffffffffffffff1681526020016003820160009054906101000a900473ffffffffffffffffffffffffffffffffffffffff1673ffffffffffffffffffffffffffffffffffffffff1673ffffffffffffffffffffffffffffffffffffffff168152602001600482018054600181600116156101000203166002900480601f016020809104026020016040519081016040528092919081815260200182805460018160011615610100020316600290048015611fea5780601f10611fbf57610100808354040283529160200191611fea565b820191906000526020600020905b815481529060010190602001808311611fcd57829003601f168201915b50505050508152602001600582018054600181600116156101000203166002900480601f01602080910402602001604051908101604052809291908181526020018280546001816001161561010002031660029004801561208c5780601f106120615761010080835404028352916020019161208c565b820191906000526020600020905b81548152906001019060200180831161206f57829003601f168201915b50505050508152602001600682018054600181600116156101000203166002900480601f01602080910402602001604051908101604052809291908181526020018280546001816001161561010002031660029004801561212e5780601f106121035761010080835404028352916020019161212e565b820191906000526020600020905b81548152906001019060200180831161211157829003601f168201915b50505050508152602001600782018054600181600116156101000203166002900480601f0160208091040260200160405190810160405280929190818152602001828054600181600116156101000203166002900480156121d05780601f106121a5576101008083540402835291602001916121d0565b820191906000526020600020905b8154815290600101906020018083116121b357829003601f168201915b5050505050815260200160088201548152602001600982018054600181600116156101000203166002900480601f01602080910402602001604051908101604052809291908181526020018280546001816001161561010002031660029004801561227c5780601f106122515761010080835404028352916020019161227c565b820191906000526020600020905b81548152906001019060200180831161225f57829003601f168201915b50505050508152602001600a8201548152602001600b820160009054906101000a900460ff1660088111156122ad57fe5b60088111156122b857fe5b8152602001600b820160019054906101000a900473ffffffffffffffffffffffffffffffffffffffff1673ffffffffffffffffffffffffffffffffffffffff1673ffffffffffffffffffffffffffffffffffffffff168152602001600c820160009054906101000a900473ffffffffffffffffffffffffffffffffffffffff1673ffffffffffffffffffffffffffffffffffffffff1673ffffffffffffffffffffffffffffffffffffffff168152602001600d820160009054906101000a900473ffffffffffffffffffffffffffffffffffffffff1673ffffffffffffffffffffffffffffffffffffffff1673ffffffffffffffffffffffffffffffffffffffff1681525050905080604001519650806060015195508061018001519450806101a001519350806101c00151925080610160015160088111156123f757fe5b91505091939550919395565b3361244360405180807f4641524d45525f524f4c45000000000000000000000000000000000000000000815250600b01905060405180910390208261329c565b6124b5576040517f08c379a00000000000000000000000000000000000000000000000000000000081526004018080602001828103825260138152602001807f4572726f723a204e6f742061206661726d65720000000000000000000000000081525060200191505060405180910390fd5b81600160088111156124c357fe5b60056000838152602001908152602001600020600b0160009054906101000a900460ff1660088111156124f257fe5b14612565576040517f08c379a000000000000000000000000000000000000000000000000000000000815260040180806020018281038252601d8152602001807f4572726f723a204974656d206e6f74207965742070726f63657373656400000081525060200191505060405180910390fd5b6005600084815260200190815260200160002060030160009054906101000a900473ffffffffffffffffffffffffffffffffffffffff168073ffffffffffffffffffffffffffffffffffffffff163373ffffffffffffffffffffffffffffffffffffffff161461263d576040517f08c379a000000000000000000000000000000000000000000000000000000000815260040180806020018281038252601b8152602001807f4572726f723a2043616c6c657220697320756e7665726966696564000000000081525060200191505060405180910390fd5b600260056000868152602001908152602001600020600b0160006101000a81548160ff0219169083600881111561267057fe5b02179055507f9b3b66e2380b690bae22c73ef1428fb0c91e72fe14a4b6defa13035214187aff846040518082815260200191505060405180910390a150505050565b6126ba61431a565b73ffffffffffffffffffffffffffffffffffffffff166000809054906101000a900473ffffffffffffffffffffffffffffffffffffffff1673ffffffffffffffffffffffffffffffffffffffff161461277b576040517f08c379a00000000000000000000000000000000000000000000000000000000081526004018080602001828103825260208152602001807f4f776e61626c653a2063616c6c6572206973206e6f7420746865206f776e657281525060200191505060405180910390fd5b600073ffffffffffffffffffffffffffffffffffffffff166000809054906101000a900473ffffffffffffffffffffffffffffffffffffffff1673ffffffffffffffffffffffffffffffffffffffff167f8be0079c531659141344cd1fd0a4f28419497f9722a3daafe3b4186f6b6457e060405160405180910390a360008060006101000a81548173ffffffffffffffffffffffffffffffffffffffff021916908373ffffffffffffffffffffffffffffffffffffffff160217905550565b3361287a60405180807f4641524d45525f524f4c45000000000000000000000000000000000000000000815250600b01905060405180910390208261329c565b6128ec576040517f08c379a00000000000000000000000000000000000000000000000000000000081526004018080602001828103825260138152602001807f4572726f723a204e6f742061206661726d65720000000000000000000000000081525060200191505060405180910390fd5b82600260088111156128fa57fe5b60056000838152602001908152602001600020600b0160009054906101000a900460ff16600881111561292957fe5b1461299c576040517f08c379a000000000000000000000000000000000000000000000000000000000815260040180806020018281038252601a8152602001807f4572726f723a204974656d206e6f7420796574207061636b656400000000000081525060200191505060405180910390fd5b6005600085815260200190815260200160002060030160009054906101000a900473ffffffffffffffffffffffffffffffffffffffff168073ffffffffffffffffffffffffffffffffffffffff163373ffffffffffffffffffffffffffffffffffffffff1614612a74576040517f08c379a000000000000000000000000000000000000000000000000000000000815260040180806020018281038252601b8152602001807f4572726f723a2043616c6c657220697320756e7665726966696564000000000081525060200191505060405180910390fd5b8360056000878152602001908152602001600020600a0181905550600360056000878152602001908152602001600020600b0160006101000a81548160ff02191690836008811115612ac257fe5b02179055507fd16250b7a63f912eba58c2af82d665f0cb0de94a70a63fcace34524b786cfed9856040518082815260200191505060405180910390a15050505050565b338073ffffffffffffffffffffffffffffffffffffffff16600260009054906101000a900473ffffffffffffffffffffffffffffffffffffffff1673ffffffffffffffffffffffffffffffffffffffff1614612bc9576040517f08c379a00000000000000000000000000000000000000000000000000000000081526004018080602001828103825260198152602001807f4572726f723a204e6f7420636f6e7472616374206f776e65720000000000000081525060200191505060405180910390fd5b612c0860405180807f4449535452494255544f525f524f4c45000000000000000000000000000000008152506010019050604051809103902083611c72565b5050565b33612c4c60405180807f4449535452494255544f525f524f4c4500000000000000000000000000000000815250601001905060405180910390208261329c565b612cbe576040517f08c379a00000000000000000000000000000000000000000000000000000000081526004018080602001828103825260188152602001807f4572726f723a204e6f742061206469737472696275746f72000000000000000081525060200191505060405180910390fd5b8160036008811115612ccc57fe5b60056000838152602001908152602001600020600b0160009054906101000a900460ff166008811115612cfb57fe5b14612d51576040517f08c379a000000000000000000000000000000000000000000000000000000000815260040180806020018281038252602481526020018061489e6024913960400191505060405180910390fd5b60056000848152602001908152602001600020600a015480341015612dde576040517f08c379a00000000000000000000000000000000000000000000000000000000081526004018080602001828103825260168152602001807f4572726f723a204e6f7420656e6f75676820706169640000000000000000000081525060200191505060405180910390fd5b83336005600087815260200190815260200160002060020160006101000a81548173ffffffffffffffffffffffffffffffffffffffff021916908373ffffffffffffffffffffffffffffffffffffffff1602179055503360056000878152602001908152602001600020600b0160016101000a81548173ffffffffffffffffffffffffffffffffffffffff021916908373ffffffffffffffffffffffffffffffffffffffff160217905550600460056000878152602001908152602001600020600b0160006101000a81548160ff02191690836008811115612ebc57fe5b02179055506005600086815260200190815260200160002060030160009054906101000a900473ffffffffffffffffffffffffffffffffffffffff1673ffffffffffffffffffffffffffffffffffffffff166108fc60056000888152602001908152602001600020600a01549081150290604051600060405180830381858888f19350505050158015612f53573d6000803e3d6000fd5b507f92f64ca637d023f354075a4be751b169c1a8a9ccb6d33cdd0cb3520543995727856040518082815260200191505060405180910390a1600060056000838152602001908152602001600020600a015490506000813403905060056000848152602001908152602001600020600d0160009054906101000a900473ffffffffffffffffffffffffffffffffffffffff1673ffffffffffffffffffffffffffffffffffffffff166108fc829081150290604051600060405180830381858888f19350505050158015613029573d6000803e3d6000fd5b5050505050505050565b338073ffffffffffffffffffffffffffffffffffffffff16600260009054906101000a900473ffffffffffffffffffffffffffffffffffffffff1673ffffffffffffffffffffffffffffffffffffffff16146130f7576040517f08c379a00000000000000000000000000000000000000000000000000000000081526004018080602001828103825260198152602001807f4572726f723a204e6f7420636f6e7472616374206f776e65720000000000000081525060200191505060405180910390fd5b61313660405180807f4641524d45525f524f4c45000000000000000000000000000000000000000000815250600b019050604051809103902083611c72565b5050565b60008060009054906101000a900473ffffffffffffffffffffffffffffffffffffffff16905090565b338073ffffffffffffffffffffffffffffffffffffffff16600260009054906101000a900473ffffffffffffffffffffffffffffffffffffffff1673ffffffffffffffffffffffffffffffffffffffff1614613227576040517f08c379a00000000000000000000000000000000000000000000000000000000081526004018080602001828103825260198152602001807f4572726f723a204e6f7420636f6e7472616374206f776e65720000000000000081525060200191505060405180910390fd5b61326660405180807f52455441494c45525f524f4c4500000000000000000000000000000000000000815250600d019050604051809103902083611c72565b5050565b6000613294826001600086815260200190815260200160002060000161444a90919063ffffffff16565b905092915050565b60006132c682600160008681526020019081526020016000206000016142ea90919063ffffffff16565b905092915050565b3361330e60405180807f52455441494c45525f524f4c4500000000000000000000000000000000000000815250600d01905060405180910390208261329c565b613380576040517f08c379a00000000000000000000000000000000000000000000000000000000081526004018080602001828103825260158152602001807f4572726f723a204e6f7420612072657461696c6572000000000000000000000081525060200191505060405180910390fd5b826006600881111561338e57fe5b60056000838152602001908152602001600020600b0160009054906101000a900460ff1660088111156133bd57fe5b14613430576040517f08c379a00000000000000000000000000000000000000000000000000000000081526004018080602001828103825260188152602001807f4572726f723a204974656d206e6f74207265636569766564000000000000000081525060200191505060405180910390fd5b600760056000868152602001908152602001600020600b0160006101000a81548160ff0219169083600881111561346357fe5b02179055506134a760405180807f434f4e53554d45525f524f4c4500000000000000000000000000000000000000815250600d019050604051809103902084611c72565b7ff4da425546dea8b9f96dc3e8d5884bf20b04876f8c2a6cd11bfdb240cdab35ce846040518082815260200191505060405180910390a150505050565b6000801b81565b600061350b60016000848152602001908152602001600020600001614464565b9050919050565b3361355260405180807f4641524d45525f524f4c45000000000000000000000000000000000000000000815250600b01905060405180910390208261329c565b6135c4576040517f08c379a00000000000000000000000000000000000000000000000000000000081526004018080602001828103825260138152602001807f4572726f723a204e6f742061206661726d65720000000000000000000000000081525060200191505060405180910390fd5b600454600560008a81526020019081526020016000206000018190555087600560008a81526020019081526020016000206001018190555086600560008a815260200190815260200160002060030160006101000a81548173ffffffffffffffffffffffffffffffffffffffff021916908373ffffffffffffffffffffffffffffffffffffffff16021790555085600560008a8152602001908152602001600020600401908051906020019061367b9291906147a7565b5084600560008a815260200190815260200160002060050190805190602001906136a69291906147a7565b5083600560008a815260200190815260200160002060060190805190602001906136d19291906147a7565b5082600560008a815260200190815260200160002060070190805190602001906136fc9291906147a7565b5081600560008a815260200190815260200160002060090190805190602001906137279291906147a7565b5086600560008a815260200190815260200160002060020160006101000a81548173ffffffffffffffffffffffffffffffffffffffff021916908373ffffffffffffffffffffffffffffffffffffffff1602179055506000600560008a8152602001908152602001600020600b0160006101000a81548160ff021916908360088111156137b057fe5b02179055507f8e55ccfc9778ff8eba1646d765cf1982537ce0f9257054a17b48aad745250183886040518082815260200191505060405180910390a16001600454016004819055505050505050505050565b613829600160008481526020019081526020016000206002015461382461431a565b61329c565b61387e576040517f08c379a00000000000000000000000000000000000000000000000000000000081526004018080602001828103825260308152602001806148e86030913960400191505060405180910390fd5b61388882826143b6565b5050565b336138cc60405180807f434f4e53554d45525f524f4c4500000000000000000000000000000000000000815250600d01905060405180910390208261329c565b61393e576040517f08c379a00000000000000000000000000000000000000000000000000000000081526004018080602001828103825260158152602001807f4572726f723a204e6f74206120636f6e73756d6572000000000000000000000081525060200191505060405180910390fd5b816007600881111561394c57fe5b60056000838152602001908152602001600020600b0160009054906101000a900460ff16600881111561397b57fe5b146139ee576040517f08c379a000000000000000000000000000000000000000000000000000000000815260040180806020018281038252601b8152602001807f4572726f723a2053616c65206e6f7420696e697469616c697a6564000000000081525060200191505060405180910390fd5b336005600085815260200190815260200160002060020160006101000a81548173ffffffffffffffffffffffffffffffffffffffff021916908373ffffffffffffffffffffffffffffffffffffffff1602179055503360056000858152602001908152602001600020600d0160006101000a81548173ffffffffffffffffffffffffffffffffffffffff021916908373ffffffffffffffffffffffffffffffffffffffff160217905550600860056000858152602001908152602001600020600b0160006101000a81548160ff02191690836008811115613acb57fe5b02179055507f4e08ba899977cf7d4c2964bce71c6b9a7ef76ee5166a4c1249a1e08016e33ef1836040518082815260200191505060405180910390a1505050565b33613b4c60405180807f52455441494c45525f524f4c4500000000000000000000000000000000000000815250600d01905060405180910390208261329c565b613bbe576040517f08c379a00000000000000000000000000000000000000000000000000000000081526004018080602001828103825260158152602001807f4572726f723a204e6f7420612072657461696c6572000000000000000000000081525060200191505060405180910390fd5b8160056008811115613bcc57fe5b60056000838152602001908152602001600020600b0160009054906101000a900460ff166008811115613bfb57fe5b14613c6e576040517f08c379a00000000000000000000000000000000000000000000000000000000081526004018080602001828103825260178152602001807f4572726f723a204974656d206e6f74207368697070656400000000000000000081525060200191505060405180910390fd5b336005600085815260200190815260200160002060020160006101000a81548173ffffffffffffffffffffffffffffffffffffffff021916908373ffffffffffffffffffffffffffffffffffffffff1602179055503360056000858152602001908152602001600020600c0160006101000a81548173ffffffffffffffffffffffffffffffffffffffff021916908373ffffffffffffffffffffffffffffffffffffffff160217905550600660056000858152602001908152602001600020600b0160006101000a81548160ff02191690836008811115613d4b57fe5b02179055507fa8142743f8f70a4c26f3691cf4ed59718381fb2f18070ec52be1f1022d855557836040518082815260200191505060405180910390a1505050565b60405180807f4449535452494255544f525f524f4c45000000000000000000000000000000008152506010019050604051809103902081565b613dcd61431a565b73ffffffffffffffffffffffffffffffffffffffff166000809054906101000a900473ffffffffffffffffffffffffffffffffffffffff1673ffffffffffffffffffffffffffffffffffffffff1614613e8e576040517f08c379a00000000000000000000000000000000000000000000000000000000081526004018080602001828103825260208152602001807f4f776e61626c653a2063616c6c6572206973206e6f7420746865206f776e657281525060200191505060405180910390fd5b600073ffffffffffffffffffffffffffffffffffffffff168173ffffffffffffffffffffffffffffffffffffffff161415613f14576040517f08c379a00000000000000000000000000000000000000000000000000000000081526004018080602001828103825260268152602001806148c26026913960400191505060405180910390fd5b8073ffffffffffffffffffffffffffffffffffffffff166000809054906101000a900473ffffffffffffffffffffffffffffffffffffffff1673ffffffffffffffffffffffffffffffffffffffff167f8be0079c531659141344cd1fd0a4f28419497f9722a3daafe3b4186f6b6457e060405160405180910390a3806000806101000a81548173ffffffffffffffffffffffffffffffffffffffff021916908373ffffffffffffffffffffffffffffffffffffffff16021790555050565b60405180807f4641524d45525f524f4c45000000000000000000000000000000000000000000815250600b019050604051809103902081565b3361404b60405180807f4641524d45525f524f4c45000000000000000000000000000000000000000000815250600b01905060405180910390208261329c565b6140bd576040517f08c379a00000000000000000000000000000000000000000000000000000000081526004018080602001828103825260138152602001807f4572726f723a204e6f742061206661726d65720000000000000000000000000081525060200191505060405180910390fd5b81600060088111156140cb57fe5b60056000838152602001908152602001600020600b0160009054906101000a900460ff1660088111156140fa57fe5b1461416d576040517f08c379a000000000000000000000000000000000000000000000000000000000815260040180806020018281038252601d8152602001807f4572726f723a204974656d206e6f74207965742068617276657374656400000081525060200191505060405180910390fd5b6005600084815260200190815260200160002060030160009054906101000a900473ffffffffffffffffffffffffffffffffffffffff168073ffffffffffffffffffffffffffffffffffffffff163373ffffffffffffffffffffffffffffffffffffffff1614614245576040517f08c379a000000000000000000000000000000000000000000000000000000000815260040180806020018281038252601b8152602001807f4572726f723a2043616c6c657220697320756e7665726966696564000000000081525060200191505060405180910390fd5b600160056000868152602001908152602001600020600b0160006101000a81548160ff0219169083600881111561427857fe5b02179055507f5afe3b1bf87069693c075da5c22a98d63d1aef98a30dbbe538d0781a98b77ee5846040518082815260200191505060405180910390a150505050565b60006142e2836000018373ffffffffffffffffffffffffffffffffffffffff1660001b614479565b905092915050565b6000614312836000018373ffffffffffffffffffffffffffffffffffffffff1660001b6144e9565b905092915050565b600033905090565b61434a81600160008581526020019081526020016000206000016142ba90919063ffffffff16565b156143b25761435761431a565b73ffffffffffffffffffffffffffffffffffffffff168173ffffffffffffffffffffffffffffffffffffffff16837f2f8788117e7eff1d82e926ec794901d17c78024a50270940304540a733656f0d60405160405180910390a45b5050565b6143de816001600085815260200190815260200160002060000161450c90919063ffffffff16565b15614446576143eb61431a565b73ffffffffffffffffffffffffffffffffffffffff168173ffffffffffffffffffffffffffffffffffffffff16837ff6391f5c32d9c69d2a47ea670b442974b53935d1edc7fd64eb21e047a839171b60405160405180910390a45b5050565b6000614459836000018361453c565b60001c905092915050565b6000614472826000016145bf565b9050919050565b600061448583836144e9565b6144de5782600001829080600181540180825580915050600190039060005260206000200160009091909190915055826000018054905083600101600084815260200190815260200160002081905550600190506144e3565b600090505b92915050565b600080836001016000848152602001908152602001600020541415905092915050565b6000614534836000018373ffffffffffffffffffffffffffffffffffffffff1660001b6145d0565b905092915050565b60008183600001805490501161459d576040517f08c379a000000000000000000000000000000000000000000000000000000000815260040180806020018281038252602281526020018061484d6022913960400191505060405180910390fd5b8260000182815481106145ac57fe5b9060005260206000200154905092915050565b600081600001805490509050919050565b600080836001016000848152602001908152602001600020549050600081146146ac576000600182039050600060018660000180549050039050600086600001828154811061461b57fe5b906000526020600020015490508087600001848154811061463857fe5b906000526020600020018190555060018301876001016000838152602001908152602001600020819055508660000180548061467057fe5b600190038181906000526020600020016000905590558660010160008781526020019081526020016000206000905560019450505050506146b2565b60009150505b92915050565b604051806101e001604052806000815260200160008152602001600073ffffffffffffffffffffffffffffffffffffffff168152602001600073ffffffffffffffffffffffffffffffffffffffff168152602001606081526020016060815260200160608152602001606081526020016000815260200160608152602001600081526020016000600881111561474a57fe5b8152602001600073ffffffffffffffffffffffffffffffffffffffff168152602001600073ffffffffffffffffffffffffffffffffffffffff168152602001600073ffffffffffffffffffffffffffffffffffffffff1681525090565b828054600181600116156101000203166002900490600052602060002090601f016020900481019282601f106147e857805160ff1916838001178555614816565b82800160010185558215614816579182015b828111156148155782518255916020019190600101906147fa565b5b5090506148239190614827565b5090565b61484991905b8082111561484557600081600090555060010161482d565b5090565b9056fe456e756d657261626c655365743a20696e646578206f7574206f6620626f756e6473416363657373436f6e74726f6c3a2073656e646572206d75737420626520616e2061646d696e20746f206772616e744572726f723a204974656d206e6f742079657420616464656420746f2070616c657474654f776e61626c653a206e6577206f776e657220697320746865207a65726f2061646472657373416363657373436f6e74726f6c3a2073656e646572206d75737420626520616e2061646d696e20746f207265766f6b65416363657373436f6e74726f6c3a2063616e206f6e6c792072656e6f756e636520726f6c657320666f722073656c66a2646970667358221220527ca8a83b00cd70eba6cf570c71865bc520aabcc4f8b7fca8a5719c96882ea664736f6c634300060a0033416363657373436f6e74726f6c3a2073656e646572206d75737420626520616e2061646d696e20746f206772616e744572726f723a2041637469766520636861696e207061727469636970616e742063616e6e6f7420626520636f6e7472616374206f776e6572",
  "immutableReferences": {},
  "source": "// SPDX-License-Identifier: UNLICENSED\npragma solidity ^0.6.0;\nimport '../node_modules/@openzeppelin/contracts/access/Ownable.sol';\nimport '../node_modules/@openzeppelin/contracts/access/AccessControl.sol';\n\n\ncontract SupplyChain is Ownable, AccessControl {\n\n    address payable contractOwner;\n\n    bytes32 public constant FARMER_ROLE = keccak256('FARMER_ROLE');\n    bytes32 public constant DISTRIBUTOR_ROLE = keccak256('DISTRIBUTOR_ROLE');\n    bytes32 public constant RETAILER_ROLE = keccak256('RETAILER_ROLE');\n    bytes32 public constant CONSUMER_ROLE = keccak256('CONSUMER_ROLE');\n\n    uint upc;\n    uint sku;\n\n    mapping(uint => Item) items;\n    mapping(uint => string[]) itemHistory;\n\n    enum State {\n        Harvested,  // 0\n        Processed,  // 1\n        Packed,     // 2\n        AddedToPalette,    // 3\n        Sold,       // 4\n        Shipped,    // 5\n        Received,   // 6\n        SaleInitialized, // 7\n        Bought   // 8\n    }\n\n    State constant defaultState = State.Harvested;\n\n    struct Item {\n        uint    sku;  // Stock Keeping Unit (SKU)\n        uint    upc; // Universal Product Code (UPC), generated by the Farmer, goes on the package, can be verified by the Consumer\n        address payable ownerID;  // Metamask-Ethereum address of the current owner as the product moves through 8 stages\n        address payable originFarmerID; // Metamask-Ethereum address of the Farmer\n        string  originFarmName; // Farmer Name\n        string  originFarmInformation;  // Farmer Information\n        string  originFarmLatitude; // Farm Latitude\n        string  originFarmLongitude;  // Farm Longitude\n        uint    productID;  // Product ID potentially a combination of upc + sku\n        string  productName; // Product Notes\n        uint    productPrice; // Product Price\n        State   itemState;  // Product State as represented in the enum above\n        address payable distributorID;  // Metamask-Ethereum address of the Distributor\n        address payable retailerID; // Metamask-Ethereum address of the Retailer\n        address payable consumerID; // Metamask-Ethereum address of the Consumer\n    }\n\n    event Harvested(uint upc);\n    event Processed(uint upc);\n    event Packed(uint upc);\n    event AddedToPalette(uint upc);\n    event Sold(uint upc);\n    event Shipped(uint upc);\n    event Received(uint upc);\n    event SaleInitialized(uint upc);\n    event Bought(uint upc);\n\n    modifier verifyCaller (address _address) {\n        require(msg.sender == _address, 'Error: Caller is unverified');\n        _;\n    }\n    modifier paidEnough(uint _price) {\n        require(msg.value >= _price, 'Error: Not enough paid');\n        _;\n    }\n    modifier refundExcess(uint _upc) {\n        _;\n        uint _price = items[_upc].productPrice;\n        uint amountToReturn = msg.value - _price;\n        items[_upc].consumerID.transfer(amountToReturn);\n    }\n    modifier notContractOwner(address _address) {\n        require(contractOwner != _address, 'Error: Active chain participant cannot be contract owner');\n        _;\n    }\n    modifier onlyContractOwner(address _address) {\n        require(contractOwner == _address, 'Error: Not contract owner');\n        _;\n    }\n    modifier onlyFarmer(address _address) {\n        require(hasRole(FARMER_ROLE, _address), 'Error: Not a farmer');\n        _;\n    }\n    modifier onlyDistributor(address _address) {\n        require(hasRole(DISTRIBUTOR_ROLE, _address), 'Error: Not a distributor');\n        _;\n    }\n    modifier onlyRetailer(address _address) {\n        require(hasRole(RETAILER_ROLE, _address), 'Error: Not a retailer');\n        _;\n    }\n    modifier onlyConsumer(address _address) {\n        require(hasRole(CONSUMER_ROLE, _address), 'Error: Not a consumer');\n        _;\n    }\n    modifier harvested(uint _upc) {\n        require(items[_upc].itemState == State.Harvested, 'Error: Item not yet harvested');\n        _;\n    }\n    modifier processed(uint _upc) {\n        require(items[_upc].itemState == State.Processed, 'Error: Item not yet processed');\n        _;\n    }\n    modifier packed(uint _upc) {\n        require(items[_upc].itemState == State.Packed, 'Error: Item not yet packed');\n        _;\n    }\n    modifier addedToPalette(uint _upc) {\n        require(items[_upc].itemState == State.AddedToPalette, 'Error: Item not yet added to palette');\n        _;\n    }\n    modifier sold(uint _upc) {\n        require(items[upc].itemState == State.Sold, 'Error: Item not sold');\n        _;\n    }\n    modifier shipped(uint _upc) {\n        require(items[_upc].itemState == State.Shipped, 'Error: Item not shipped');\n        _;\n    }\n    modifier received(uint _upc) {\n        require(items[_upc].itemState == State.Received, 'Error: Item not received');\n        _;\n    }\n    modifier saleInitialized(uint _upc) {\n        require(items[_upc].itemState == State.SaleInitialized, 'Error: Sale not initialized');\n        _;\n    }\n    modifier bought(uint _upc) {\n        require(items[_upc].itemState == State.Bought, 'Error: Item not bought');\n        _;\n    }\n\n    constructor(\n    address initialFarmer,\n    address initialDistributor,\n    address initialRetailer\n    ) public payable notContractOwner(initialFarmer) notContractOwner(initialDistributor) notContractOwner(initialRetailer) {\n        _setupRole(DEFAULT_ADMIN_ROLE, msg.sender);\n        grantRole(FARMER_ROLE, initialFarmer);\n        grantRole(DISTRIBUTOR_ROLE, initialDistributor);\n        grantRole(RETAILER_ROLE, initialRetailer);\n        _setRoleAdmin(CONSUMER_ROLE, RETAILER_ROLE);\n        contractOwner = msg.sender;\n        sku = 1;\n        upc = 1;\n    }\n\n    function kill() public {\n        if (msg.sender == contractOwner) {\n            selfdestruct(contractOwner);\n        }\n    }\n\n    function addFarmer(\n    address payable farmer\n    )  public onlyContractOwner(msg.sender) {\n        grantRole(FARMER_ROLE, farmer);\n    }\n\n    function addDistributor(\n    address payable distributor\n    ) public onlyContractOwner(msg.sender) {\n        grantRole(DISTRIBUTOR_ROLE, distributor);\n    }\n\n    function addRetailer(\n    address payable retailer\n    ) public onlyContractOwner(msg.sender) {\n        grantRole(RETAILER_ROLE, retailer);\n    }\n\n    function getUserRole(\n    address payable _address\n    ) public view returns (\n        string memory\n    ) {\n        if (hasRole(FARMER_ROLE, _address)) return 'farmer';\n        if (hasRole(DISTRIBUTOR_ROLE, _address)) return 'distributor';\n        if (hasRole(RETAILER_ROLE, _address)) return 'retailer';\n        if (hasRole(CONSUMER_ROLE, _address)) return 'consumer';\n        return 'none';\n    }\n\n    function harvest(\n    uint _upc,\n    address payable _originFarmerId,\n    string memory _originFarmName,\n    string memory _originFarmInformation,\n    string  memory _originFarmLatitude,\n    string  memory _originFarmLongitude,\n    string  memory _productName\n    ) public onlyFarmer(msg.sender) {\n        items[_upc].sku = sku;\n        items[_upc].upc = _upc;\n        items[_upc].originFarmerID = _originFarmerId;\n        items[_upc].originFarmName = _originFarmName;\n        items[_upc].originFarmInformation = _originFarmInformation;\n        items[_upc].originFarmLatitude = _originFarmLatitude;\n        items[_upc].originFarmLongitude = _originFarmLongitude;\n        items[_upc].productName = _productName;\n        items[_upc].ownerID = _originFarmerId;\n        items[_upc].itemState = State.Harvested;\n        emit Harvested(_upc);\n        sku = sku + 1;\n    }\n\n    function process(\n    uint _upc\n    ) public onlyFarmer(msg.sender) harvested(_upc) verifyCaller(items[_upc].originFarmerID) {\n        items[_upc].itemState = State.Processed;\n        emit Processed(_upc);\n    }\n\n    function pack(\n    uint _upc\n    ) public onlyFarmer(msg.sender) processed(_upc) verifyCaller(items[_upc].originFarmerID) {\n        items[_upc].itemState = State.Packed;\n        emit Packed(_upc);\n    }\n\n    function addToPalette(\n    uint _upc,\n    uint _productPrice\n    )  public onlyFarmer(msg.sender) packed(_upc) verifyCaller(items[_upc].originFarmerID) {\n        items[_upc].productPrice = _productPrice;\n        items[_upc].itemState = State.AddedToPalette;\n        emit AddedToPalette(_upc);\n    }\n\n    function buyPalette(\n    uint _upc\n    ) public payable onlyDistributor(msg.sender) addedToPalette(_upc) paidEnough(items[_upc].productPrice) refundExcess(_upc) {\n        items[_upc].ownerID = msg.sender;\n        items[_upc].distributorID = msg.sender;\n        items[_upc].itemState = State.Sold;\n        items[_upc].originFarmerID.transfer(items[_upc].productPrice);\n        emit Sold(_upc);\n    }\n\n    function shipPalette(\n    uint _upc\n    ) public onlyDistributor(msg.sender)  sold(_upc) verifyCaller(items[_upc].ownerID) {\n        items[_upc].itemState = State.Shipped;\n        emit Shipped(_upc);\n    }\n\n    function receivePalette(\n    uint _upc\n    ) public onlyRetailer(msg.sender) shipped(_upc) {\n        items[_upc].ownerID = msg.sender;\n        items[_upc].retailerID = msg.sender;\n        items[_upc].itemState = State.Received;\n        emit Received(_upc);\n    }\n\n    function initializeSale(\n    uint _upc,\n    address _consumerID\n    ) public onlyRetailer(msg.sender) received(_upc) {\n        items[_upc].itemState = State.SaleInitialized;\n        grantRole(CONSUMER_ROLE, _consumerID);\n        emit SaleInitialized(_upc);\n    }\n\n    function buy(\n    uint _upc\n    ) public onlyConsumer(msg.sender) saleInitialized(_upc) {\n        items[_upc].ownerID = msg.sender;\n        items[_upc].consumerID = msg.sender;\n        items[_upc].itemState = State.Bought;\n        emit Bought(_upc);\n    }\n\n    function fetchProduct(\n    uint _upc\n    ) public view returns (\n    uint itemSKU,\n    uint itemUPC,\n    uint itemState,\n    address ownerID,\n    address originFarmerID,\n    string memory originFarmName,\n    string memory originFarmInformation,\n    string memory originFarmLatitude,\n    string memory originFarmLongitude,\n    string memory productName\n    ) {\n        Item memory item = items[_upc];\n\n        itemSKU = item.sku;\n        itemUPC = item.upc;\n        itemState = uint(item.itemState);\n        ownerID = item.ownerID;\n        originFarmerID = item.originFarmerID;\n        originFarmName = item.originFarmName;\n        originFarmInformation = item.originFarmInformation;\n        originFarmLatitude = item.originFarmLatitude;\n        originFarmLongitude = item.originFarmLongitude;\n        productName = item.productName;\n    }\n\n    function fetchProductHistory(\n    uint _upc\n    ) public view returns (\n    address ownerID,\n    address originFarmerID,\n    address distributorID,\n    address retailerID,\n    address consumerID,\n    uint itemState\n    ) {\n        Item memory item = items[_upc];\n\n        ownerID = item.ownerID;\n        originFarmerID = item.originFarmerID;\n        distributorID = item.distributorID;\n        retailerID = item.retailerID;\n        consumerID = item.consumerID;\n        itemState = uint(item.itemState);\n    }\n}",
  "sourcePath": "/Users/sameer/CoffeeBeanSupplyChain/contracts/SupplyChain.sol",
  "compiler": {
    "name": "solc",
    "version": "0.6.10+commit.00c0fcaf.Emscripten.clang"
  },
  "schemaVersion": "3.1.0",
  "updatedAt": "2020-06-16T10:19:40.333Z",
  "networkType": "quorum",
  "devdoc": {
    "methods": {
      "getRoleAdmin(bytes32)": {
        "details": "Returns the admin role that controls `role`. See {grantRole} and {revokeRole}. To change a role's admin, use {_setRoleAdmin}."
      },
      "getRoleMember(bytes32,uint256)": {
        "details": "Returns one of the accounts that have `role`. `index` must be a value between 0 and {getRoleMemberCount}, non-inclusive. Role bearers are not sorted in any particular way, and their ordering may change at any point. WARNING: When using {getRoleMember} and {getRoleMemberCount}, make sure you perform all queries on the same block. See the following https://forum.openzeppelin.com/t/iterating-over-elements-on-enumerableset-in-openzeppelin-contracts/2296[forum post] for more information."
      },
      "getRoleMemberCount(bytes32)": {
        "details": "Returns the number of accounts that have `role`. Can be used together with {getRoleMember} to enumerate all bearers of a role."
      },
      "grantRole(bytes32,address)": {
        "details": "Grants `role` to `account`. If `account` had not been already granted `role`, emits a {RoleGranted} event. Requirements: - the caller must have ``role``'s admin role."
      },
      "hasRole(bytes32,address)": {
        "details": "Returns `true` if `account` has been granted `role`."
      },
      "owner()": {
        "details": "Returns the address of the current owner."
      },
      "renounceOwnership()": {
        "details": "Leaves the contract without owner. It will not be possible to call `onlyOwner` functions anymore. Can only be called by the current owner. NOTE: Renouncing ownership will leave the contract without an owner, thereby removing any functionality that is only available to the owner."
      },
      "renounceRole(bytes32,address)": {
        "details": "Revokes `role` from the calling account. Roles are often managed via {grantRole} and {revokeRole}: this function's purpose is to provide a mechanism for accounts to lose their privileges if they are compromised (such as when a trusted device is misplaced). If the calling account had been granted `role`, emits a {RoleRevoked} event. Requirements: - the caller must be `account`."
      },
      "revokeRole(bytes32,address)": {
        "details": "Revokes `role` from `account`. If `account` had been granted `role`, emits a {RoleRevoked} event. Requirements: - the caller must have ``role``'s admin role."
      },
      "transferOwnership(address)": {
        "details": "Transfers ownership of the contract to a new account (`newOwner`). Can only be called by the current owner."
      }
    }
  },
  "userdoc": {
    "methods": {}
  }
}