{
  "contractName": "SupplyChain",
  "abi": [
    {
      "inputs": [
        {
          "internalType": "address",
          "name": "initialFarmer",
          "type": "address"
        },
        {
          "internalType": "address",
          "name": "initialDistributor",
          "type": "address"
        },
        {
          "internalType": "address",
          "name": "initialRetailer",
          "type": "address"
        }
      ],
      "stateMutability": "payable",
      "type": "constructor"
    },
    {
      "anonymous": false,
      "inputs": [
        {
          "indexed": false,
          "internalType": "uint256",
          "name": "upc",
          "type": "uint256"
        }
      ],
      "name": "AddedToPalette",
      "type": "event"
    },
    {
      "anonymous": false,
      "inputs": [
        {
          "indexed": false,
          "internalType": "uint256",
          "name": "upc",
          "type": "uint256"
        }
      ],
      "name": "Bought",
      "type": "event"
    },
    {
      "anonymous": false,
      "inputs": [
        {
          "indexed": false,
          "internalType": "uint256",
          "name": "upc",
          "type": "uint256"
        }
      ],
      "name": "Harvested",
      "type": "event"
    },
    {
      "anonymous": false,
      "inputs": [
        {
          "indexed": true,
          "internalType": "address",
          "name": "previousOwner",
          "type": "address"
        },
        {
          "indexed": true,
          "internalType": "address",
          "name": "newOwner",
          "type": "address"
        }
      ],
      "name": "OwnershipTransferred",
      "type": "event"
    },
    {
      "anonymous": false,
      "inputs": [
        {
          "indexed": false,
          "internalType": "uint256",
          "name": "upc",
          "type": "uint256"
        }
      ],
      "name": "Packed",
      "type": "event"
    },
    {
      "anonymous": false,
      "inputs": [
        {
          "indexed": false,
          "internalType": "uint256",
          "name": "upc",
          "type": "uint256"
        }
      ],
      "name": "Processed",
      "type": "event"
    },
    {
      "anonymous": false,
      "inputs": [
        {
          "indexed": false,
          "internalType": "uint256",
          "name": "upc",
          "type": "uint256"
        }
      ],
      "name": "Received",
      "type": "event"
    },
    {
      "anonymous": false,
      "inputs": [
        {
          "indexed": true,
          "internalType": "bytes32",
          "name": "role",
          "type": "bytes32"
        },
        {
          "indexed": true,
          "internalType": "address",
          "name": "account",
          "type": "address"
        },
        {
          "indexed": true,
          "internalType": "address",
          "name": "sender",
          "type": "address"
        }
      ],
      "name": "RoleGranted",
      "type": "event"
    },
    {
      "anonymous": false,
      "inputs": [
        {
          "indexed": true,
          "internalType": "bytes32",
          "name": "role",
          "type": "bytes32"
        },
        {
          "indexed": true,
          "internalType": "address",
          "name": "account",
          "type": "address"
        },
        {
          "indexed": true,
          "internalType": "address",
          "name": "sender",
          "type": "address"
        }
      ],
      "name": "RoleRevoked",
      "type": "event"
    },
    {
      "anonymous": false,
      "inputs": [
        {
          "indexed": false,
          "internalType": "uint256",
          "name": "upc",
          "type": "uint256"
        }
      ],
      "name": "SaleInitialized",
      "type": "event"
    },
    {
      "anonymous": false,
      "inputs": [
        {
          "indexed": false,
          "internalType": "uint256",
          "name": "upc",
          "type": "uint256"
        }
      ],
      "name": "Shipped",
      "type": "event"
    },
    {
      "anonymous": false,
      "inputs": [
        {
          "indexed": false,
          "internalType": "uint256",
          "name": "upc",
          "type": "uint256"
        }
      ],
      "name": "Sold",
      "type": "event"
    },
    {
      "inputs": [],
      "name": "CONSUMER_ROLE",
      "outputs": [
        {
          "internalType": "bytes32",
          "name": "",
          "type": "bytes32"
        }
      ],
      "stateMutability": "view",
      "type": "function"
    },
    {
      "inputs": [],
      "name": "DEFAULT_ADMIN_ROLE",
      "outputs": [
        {
          "internalType": "bytes32",
          "name": "",
          "type": "bytes32"
        }
      ],
      "stateMutability": "view",
      "type": "function"
    },
    {
      "inputs": [],
      "name": "DISTRIBUTOR_ROLE",
      "outputs": [
        {
          "internalType": "bytes32",
          "name": "",
          "type": "bytes32"
        }
      ],
      "stateMutability": "view",
      "type": "function"
    },
    {
      "inputs": [],
      "name": "FARMER_ROLE",
      "outputs": [
        {
          "internalType": "bytes32",
          "name": "",
          "type": "bytes32"
        }
      ],
      "stateMutability": "view",
      "type": "function"
    },
    {
      "inputs": [],
      "name": "RETAILER_ROLE",
      "outputs": [
        {
          "internalType": "bytes32",
          "name": "",
          "type": "bytes32"
        }
      ],
      "stateMutability": "view",
      "type": "function"
    },
    {
      "inputs": [
        {
          "internalType": "bytes32",
          "name": "role",
          "type": "bytes32"
        }
      ],
      "name": "getRoleAdmin",
      "outputs": [
        {
          "internalType": "bytes32",
          "name": "",
          "type": "bytes32"
        }
      ],
      "stateMutability": "view",
      "type": "function"
    },
    {
      "inputs": [
        {
          "internalType": "bytes32",
          "name": "role",
          "type": "bytes32"
        },
        {
          "internalType": "uint256",
          "name": "index",
          "type": "uint256"
        }
      ],
      "name": "getRoleMember",
      "outputs": [
        {
          "internalType": "address",
          "name": "",
          "type": "address"
        }
      ],
      "stateMutability": "view",
      "type": "function"
    },
    {
      "inputs": [
        {
          "internalType": "bytes32",
          "name": "role",
          "type": "bytes32"
        }
      ],
      "name": "getRoleMemberCount",
      "outputs": [
        {
          "internalType": "uint256",
          "name": "",
          "type": "uint256"
        }
      ],
      "stateMutability": "view",
      "type": "function"
    },
    {
      "inputs": [
        {
          "internalType": "bytes32",
          "name": "role",
          "type": "bytes32"
        },
        {
          "internalType": "address",
          "name": "account",
          "type": "address"
        }
      ],
      "name": "grantRole",
      "outputs": [],
      "stateMutability": "nonpayable",
      "type": "function"
    },
    {
      "inputs": [
        {
          "internalType": "bytes32",
          "name": "role",
          "type": "bytes32"
        },
        {
          "internalType": "address",
          "name": "account",
          "type": "address"
        }
      ],
      "name": "hasRole",
      "outputs": [
        {
          "internalType": "bool",
          "name": "",
          "type": "bool"
        }
      ],
      "stateMutability": "view",
      "type": "function"
    },
    {
      "inputs": [],
      "name": "owner",
      "outputs": [
        {
          "internalType": "address",
          "name": "",
          "type": "address"
        }
      ],
      "stateMutability": "view",
      "type": "function"
    },
    {
      "inputs": [],
      "name": "renounceOwnership",
      "outputs": [],
      "stateMutability": "nonpayable",
      "type": "function"
    },
    {
      "inputs": [
        {
          "internalType": "bytes32",
          "name": "role",
          "type": "bytes32"
        },
        {
          "internalType": "address",
          "name": "account",
          "type": "address"
        }
      ],
      "name": "renounceRole",
      "outputs": [],
      "stateMutability": "nonpayable",
      "type": "function"
    },
    {
      "inputs": [
        {
          "internalType": "bytes32",
          "name": "role",
          "type": "bytes32"
        },
        {
          "internalType": "address",
          "name": "account",
          "type": "address"
        }
      ],
      "name": "revokeRole",
      "outputs": [],
      "stateMutability": "nonpayable",
      "type": "function"
    },
    {
      "inputs": [
        {
          "internalType": "address",
          "name": "newOwner",
          "type": "address"
        }
      ],
      "name": "transferOwnership",
      "outputs": [],
      "stateMutability": "nonpayable",
      "type": "function"
    },
    {
      "inputs": [],
      "name": "kill",
      "outputs": [],
      "stateMutability": "nonpayable",
      "type": "function"
    },
    {
      "inputs": [
        {
          "internalType": "uint256",
          "name": "_upc",
          "type": "uint256"
        },
        {
          "internalType": "address payable",
          "name": "_originFarmerId",
          "type": "address"
        },
        {
          "internalType": "string",
          "name": "_originFarmName",
          "type": "string"
        },
        {
          "internalType": "string",
          "name": "_originFarmInformation",
          "type": "string"
        },
        {
          "internalType": "string",
          "name": "_originFarmLatitude",
          "type": "string"
        },
        {
          "internalType": "string",
          "name": "_originFarmLongitude",
          "type": "string"
        },
        {
          "internalType": "string",
          "name": "_productNotes",
          "type": "string"
        }
      ],
      "name": "harvestCoffee",
      "outputs": [],
      "stateMutability": "nonpayable",
      "type": "function"
    },
    {
      "inputs": [
        {
          "internalType": "uint256",
          "name": "_upc",
          "type": "uint256"
        }
      ],
      "name": "processCoffee",
      "outputs": [],
      "stateMutability": "nonpayable",
      "type": "function"
    },
    {
      "inputs": [
        {
          "internalType": "uint256",
          "name": "_upc",
          "type": "uint256"
        }
      ],
      "name": "packCoffee",
      "outputs": [],
      "stateMutability": "nonpayable",
      "type": "function"
    },
    {
      "inputs": [
        {
          "internalType": "uint256",
          "name": "_upc",
          "type": "uint256"
        },
        {
          "internalType": "uint256",
          "name": "_productPrice",
          "type": "uint256"
        }
      ],
      "name": "addCoffeeToPalette",
      "outputs": [],
      "stateMutability": "nonpayable",
      "type": "function"
    },
    {
      "inputs": [
        {
          "internalType": "uint256",
          "name": "_upc",
          "type": "uint256"
        }
      ],
      "name": "buyCoffeePalette",
      "outputs": [],
      "stateMutability": "payable",
      "type": "function"
    },
    {
      "inputs": [
        {
          "internalType": "uint256",
          "name": "_upc",
          "type": "uint256"
        }
      ],
      "name": "shipCoffeePalette",
      "outputs": [],
      "stateMutability": "nonpayable",
      "type": "function"
    },
    {
      "inputs": [
        {
          "internalType": "uint256",
          "name": "_upc",
          "type": "uint256"
        }
      ],
      "name": "receiveCoffeePalette",
      "outputs": [],
      "stateMutability": "nonpayable",
      "type": "function"
    },
    {
      "inputs": [
        {
          "internalType": "uint256",
          "name": "_upc",
          "type": "uint256"
        },
        {
          "internalType": "address",
          "name": "_consumerID",
          "type": "address"
        }
      ],
      "name": "initializeSale",
      "outputs": [],
      "stateMutability": "nonpayable",
      "type": "function"
    },
    {
      "inputs": [
        {
          "internalType": "uint256",
          "name": "_upc",
          "type": "uint256"
        }
      ],
      "name": "buyCoffee",
      "outputs": [],
      "stateMutability": "nonpayable",
      "type": "function"
    },
    {
      "inputs": [
        {
          "internalType": "uint256",
          "name": "_upc",
          "type": "uint256"
        }
      ],
      "name": "fetchCoffee",
      "outputs": [
        {
          "internalType": "uint256",
          "name": "itemSKU",
          "type": "uint256"
        },
        {
          "internalType": "uint256",
          "name": "itemUPC",
          "type": "uint256"
        },
        {
          "internalType": "uint256",
          "name": "itemState",
          "type": "uint256"
        },
        {
          "internalType": "address",
          "name": "ownerID",
          "type": "address"
        },
        {
          "internalType": "address",
          "name": "originFarmerID",
          "type": "address"
        },
        {
          "internalType": "string",
          "name": "originFarmName",
          "type": "string"
        },
        {
          "internalType": "string",
          "name": "originFarmInformation",
          "type": "string"
        },
        {
          "internalType": "string",
          "name": "originFarmLatitude",
          "type": "string"
        },
        {
          "internalType": "string",
          "name": "originFarmLongitude",
          "type": "string"
        },
        {
          "internalType": "string",
          "name": "productNotes",
          "type": "string"
        }
      ],
      "stateMutability": "view",
      "type": "function"
    },
    {
      "inputs": [
        {
          "internalType": "uint256",
          "name": "_upc",
          "type": "uint256"
        }
      ],
      "name": "fetchCoffeeHistory",
      "outputs": [
        {
          "internalType": "address",
          "name": "ownerID",
          "type": "address"
        },
        {
          "internalType": "address",
          "name": "originFarmerID",
          "type": "address"
        },
        {
          "internalType": "address",
          "name": "distributorID",
          "type": "address"
        },
        {
          "internalType": "address",
          "name": "retailerID",
          "type": "address"
        },
        {
          "internalType": "address",
          "name": "consumerID",
          "type": "address"
        },
        {
          "internalType": "uint256",
          "name": "itemState",
          "type": "uint256"
        }
      ],
      "stateMutability": "view",
      "type": "function"
    }
  ],
  "bytecode": "0x6080604052604051620047f2380380620047f2833981810160405260608110156200002957600080fd5b81019080805190602001909291908051906020019092919080519060200190929190505050600062000060620002be60201b60201c565b9050806000806101000a81548173ffffffffffffffffffffffffffffffffffffffff021916908373ffffffffffffffffffffffffffffffffffffffff1602179055508073ffffffffffffffffffffffffffffffffffffffff16600073ffffffffffffffffffffffffffffffffffffffff167f8be0079c531659141344cd1fd0a4f28419497f9722a3daafe3b4186f6b6457e060405160405180910390a350620001136000801b33620002c660201b60201c565b6200015a60405180807f4641524d45525f524f4c45000000000000000000000000000000000000000000815250600b019050604051809103902084620002dc60201b60201c565b620001a160405180807f4449535452494255544f525f524f4c45000000000000000000000000000000008152506010019050604051809103902083620002dc60201b60201c565b620001e860405180807f52455441494c45525f524f4c4500000000000000000000000000000000000000815250600d019050604051809103902082620002dc60201b60201c565b6200026460405180807f434f4e53554d45525f524f4c4500000000000000000000000000000000000000815250600d019050604051809103902060405180807f52455441494c45525f524f4c4500000000000000000000000000000000000000815250600d01905060405180910390206200038060201b60201c565b33600260006101000a81548173ffffffffffffffffffffffffffffffffffffffff021916908373ffffffffffffffffffffffffffffffffffffffff1602179055506001600481905550600160038190555050505062000589565b600033905090565b620002d882826200039f60201b60201c565b5050565b62000313600160008481526020019081526020016000206002015462000307620002be60201b60201c565b6200044360201b60201c565b6200036a576040517f08c379a000000000000000000000000000000000000000000000000000000000815260040180806020018281038252602f815260200180620047c3602f913960400191505060405180910390fd5b6200037c82826200039f60201b60201c565b5050565b8060016000848152602001908152602001600020600201819055505050565b620003ce81600160008581526020019081526020016000206000016200047c60201b62003b681790919060201c565b156200043f57620003e4620002be60201b60201c565b73ffffffffffffffffffffffffffffffffffffffff168173ffffffffffffffffffffffffffffffffffffffff16837f2f8788117e7eff1d82e926ec794901d17c78024a50270940304540a733656f0d60405160405180910390a45b5050565b6000620004748260016000868152602001908152602001600020600001620004b460201b62003b981790919060201c565b905092915050565b6000620004ac836000018373ffffffffffffffffffffffffffffffffffffffff1660001b620004ec60201b60201c565b905092915050565b6000620004e4836000018373ffffffffffffffffffffffffffffffffffffffff1660001b6200056660201b60201c565b905092915050565b60006200050083836200056660201b60201c565b6200055b57826000018290806001815401808255809150506001900390600052602060002001600090919091909150558260000180549050836001016000848152602001908152602001600020819055506001905062000560565b600090505b92915050565b600080836001016000848152602001908152602001600020541415905092915050565b61422a80620005996000396000f3fe60806040526004361061019c5760003560e01c80638da5cb5b116100ec578063ca15c8731161008a578063f0bd87cc11610064578063f0bd87cc14610d70578063f2fde38b14610d9b578063f394397014610dec578063f581872a14610e175761019c565b8063ca15c87314610c8b578063d547741f14610cda578063ea9f3aa214610d355761019c565b806396cf0cfd116100c657806396cf0cfd14610b8f578063a217fddf14610bea578063ad78a8a414610c15578063b03b4a2914610c505761019c565b80638da5cb5b14610a405780639010d07c14610a9757806391d1485414610b1c5761019c565b80633a2fc864116101595780635f2221a7116101335780635f2221a7146103b7578063715018a61461069657806379eb034a146106ad578063804ce5b1146106f25761019c565b80633a2fc8641461033a57806341c0e1b5146103755780634bc02da61461038c5761019c565b80632115e7bf146101a1578063248a9ca3146101cc578063276268af1461021b5780632df0391e146102565780632f2ff15d1461028457806336568abe146102df575b600080fd5b3480156101ad57600080fd5b506101b6610f65565b6040518082815260200191505060405180910390f35b3480156101d857600080fd5b50610205600480360360208110156101ef57600080fd5b8101908080359060200190929190505050610f9e565b6040518082815260200191505060405180910390f35b34801561022757600080fd5b506102546004803603602081101561023e57600080fd5b8101908080359060200190929190505050610fbe565b005b6102826004803603602081101561026c57600080fd5b810190808035906020019092919050505061126d565b005b34801561029057600080fd5b506102dd600480360360408110156102a757600080fd5b8101908080359060200190929190803573ffffffffffffffffffffffffffffffffffffffff169060200190929190505050611694565b005b3480156102eb57600080fd5b506103386004803603604081101561030257600080fd5b8101908080359060200190929190803573ffffffffffffffffffffffffffffffffffffffff16906020019092919050505061171e565b005b34801561034657600080fd5b506103736004803603602081101561035d57600080fd5b81019080803590602001909291905050506117b7565b005b34801561038157600080fd5b5061038a611a66565b005b34801561039857600080fd5b506103a1611af9565b6040518082815260200191505060405180910390f35b3480156103c357600080fd5b506103f0600480360360208110156103da57600080fd5b8101908080359060200190929190505050611b32565b604051808b81526020018a81526020018981526020018873ffffffffffffffffffffffffffffffffffffffff1673ffffffffffffffffffffffffffffffffffffffff1681526020018773ffffffffffffffffffffffffffffffffffffffff1673ffffffffffffffffffffffffffffffffffffffff168152602001806020018060200180602001806020018060200186810386528b818151815260200191508051906020019080838360005b838110156104b657808201518184015260208101905061049b565b50505050905090810190601f1680156104e35780820380516001836020036101000a031916815260200191505b5086810385528a818151815260200191508051906020019080838360005b8381101561051c578082015181840152602081019050610501565b50505050905090810190601f1680156105495780820380516001836020036101000a031916815260200191505b50868103845289818151815260200191508051906020019080838360005b83811015610582578082015181840152602081019050610567565b50505050905090810190601f1680156105af5780820380516001836020036101000a031916815260200191505b50868103835288818151815260200191508051906020019080838360005b838110156105e85780820151818401526020810190506105cd565b50505050905090810190601f1680156106155780820380516001836020036101000a031916815260200191505b50868103825287818151815260200191508051906020019080838360005b8381101561064e578082015181840152602081019050610633565b50505050905090810190601f16801561067b5780820380516001836020036101000a031916815260200191505b509f5050505050505050505050505050505060405180910390f35b3480156106a257600080fd5b506106ab6120f9565b005b3480156106b957600080fd5b506106f0600480360360408110156106d057600080fd5b810190808035906020019092919080359060200190929190505050612281565b005b3480156106fe57600080fd5b50610a3e600480360360e081101561071557600080fd5b8101908080359060200190929190803573ffffffffffffffffffffffffffffffffffffffff1690602001909291908035906020019064010000000081111561075c57600080fd5b82018360208201111561076e57600080fd5b8035906020019184600183028401116401000000008311171561079057600080fd5b91908080601f016020809104026020016040519081016040528093929190818152602001838380828437600081840152601f19601f820116905080830192505050505050509192919290803590602001906401000000008111156107f357600080fd5b82018360208201111561080557600080fd5b8035906020019184600183028401116401000000008311171561082757600080fd5b91908080601f016020809104026020016040519081016040528093929190818152602001838380828437600081840152601f19601f8201169050808301925050505050505091929192908035906020019064010000000081111561088a57600080fd5b82018360208201111561089c57600080fd5b803590602001918460018302840111640100000000831117156108be57600080fd5b91908080601f016020809104026020016040519081016040528093929190818152602001838380828437600081840152601f19601f8201169050808301925050505050505091929192908035906020019064010000000081111561092157600080fd5b82018360208201111561093357600080fd5b8035906020019184600183028401116401000000008311171561095557600080fd5b91908080601f016020809104026020016040519081016040528093929190818152602001838380828437600081840152601f19601f820116905080830192505050505050509192919290803590602001906401000000008111156109b857600080fd5b8201836020820111156109ca57600080fd5b803590602001918460018302840111640100000000831117156109ec57600080fd5b91908080601f016020809104026020016040519081016040528093929190818152602001838380828437600081840152601f19601f82011690508083019250505050505050919291929050505061254c565b005b348015610a4c57600080fd5b50610a5561283c565b604051808273ffffffffffffffffffffffffffffffffffffffff1673ffffffffffffffffffffffffffffffffffffffff16815260200191505060405180910390f35b348015610aa357600080fd5b50610ada60048036036040811015610aba57600080fd5b810190808035906020019092919080359060200190929190505050612865565b604051808273ffffffffffffffffffffffffffffffffffffffff1673ffffffffffffffffffffffffffffffffffffffff16815260200191505060405180910390f35b348015610b2857600080fd5b50610b7560048036036040811015610b3f57600080fd5b8101908080359060200190929190803573ffffffffffffffffffffffffffffffffffffffff169060200190929190505050612897565b604051808215151515815260200191505060405180910390f35b348015610b9b57600080fd5b50610be860048036036040811015610bb257600080fd5b8101908080359060200190929190803573ffffffffffffffffffffffffffffffffffffffff1690602001909291905050506128c9565b005b348015610bf657600080fd5b50610bff612adf565b6040518082815260200191505060405180910390f35b348015610c2157600080fd5b50610c4e60048036036020811015610c3857600080fd5b8101908080359060200190929190505050612ae6565b005b348015610c5c57600080fd5b50610c8960048036036020811015610c7357600080fd5b8101908080359060200190929190505050612d66565b005b348015610c9757600080fd5b50610cc460048036036020811015610cae57600080fd5b8101908080359060200190929190505050612fe6565b6040518082815260200191505060405180910390f35b348015610ce657600080fd5b50610d3360048036036040811015610cfd57600080fd5b8101908080359060200190929190803573ffffffffffffffffffffffffffffffffffffffff16906020019092919050505061300d565b005b348015610d4157600080fd5b50610d6e60048036036020811015610d5857600080fd5b8101908080359060200190929190505050613097565b005b348015610d7c57600080fd5b50610d85613347565b6040518082815260200191505060405180910390f35b348015610da757600080fd5b50610dea60048036036020811015610dbe57600080fd5b81019080803573ffffffffffffffffffffffffffffffffffffffff169060200190929190505050613380565b005b348015610df857600080fd5b50610e0161358d565b6040518082815260200191505060405180910390f35b348015610e2357600080fd5b50610e5060048036036020811015610e3a57600080fd5b81019080803590602001909291905050506135c6565b604051808773ffffffffffffffffffffffffffffffffffffffff1673ffffffffffffffffffffffffffffffffffffffff1681526020018673ffffffffffffffffffffffffffffffffffffffff1673ffffffffffffffffffffffffffffffffffffffff1681526020018573ffffffffffffffffffffffffffffffffffffffff1673ffffffffffffffffffffffffffffffffffffffff1681526020018473ffffffffffffffffffffffffffffffffffffffff1673ffffffffffffffffffffffffffffffffffffffff1681526020018373ffffffffffffffffffffffffffffffffffffffff1673ffffffffffffffffffffffffffffffffffffffff168152602001828152602001965050505050505060405180910390f35b60405180807f52455441494c45525f524f4c4500000000000000000000000000000000000000815250600d019050604051809103902081565b600060016000838152602001908152602001600020600201549050919050565b33610ffe60405180807f4641524d45525f524f4c45000000000000000000000000000000000000000000815250600b019050604051809103902082612897565b611070576040517f08c379a00000000000000000000000000000000000000000000000000000000081526004018080602001828103825260138152602001807f4572726f723a204e6f742061206661726d65720000000000000000000000000081525060200191505060405180910390fd5b816000600881111561107e57fe5b60056000838152602001908152602001600020600b0160009054906101000a900460ff1660088111156110ad57fe5b14611120576040517f08c379a000000000000000000000000000000000000000000000000000000000815260040180806020018281038252601d8152602001807f4572726f723a204974656d206e6f74207965742068617276657374656400000081525060200191505060405180910390fd5b6005600084815260200190815260200160002060030160009054906101000a900473ffffffffffffffffffffffffffffffffffffffff168073ffffffffffffffffffffffffffffffffffffffff163373ffffffffffffffffffffffffffffffffffffffff16146111f8576040517f08c379a000000000000000000000000000000000000000000000000000000000815260040180806020018281038252601b8152602001807f4572726f723a2043616c6c657220697320756e7665726966696564000000000081525060200191505060405180910390fd5b600160056000868152602001908152602001600020600b0160006101000a81548160ff0219169083600881111561122b57fe5b02179055507f5afe3b1bf87069693c075da5c22a98d63d1aef98a30dbbe538d0781a98b77ee5846040518082815260200191505060405180910390a150505050565b336112ad60405180807f4449535452494255544f525f524f4c45000000000000000000000000000000008152506010019050604051809103902082612897565b61131f576040517f08c379a00000000000000000000000000000000000000000000000000000000081526004018080602001828103825260188152602001807f4572726f723a204e6f742061206469737472696275746f72000000000000000081525060200191505060405180910390fd5b816003600881111561132d57fe5b60056000838152602001908152602001600020600b0160009054906101000a900460ff16600881111561135c57fe5b146113b2576040517f08c379a000000000000000000000000000000000000000000000000000000000815260040180806020018281038252602481526020018061414c6024913960400191505060405180910390fd5b60056000848152602001908152602001600020600a01548034101561143f576040517f08c379a00000000000000000000000000000000000000000000000000000000081526004018080602001828103825260168152602001807f4572726f723a204e6f7420656e6f75676820706169640000000000000000000081525060200191505060405180910390fd5b83336005600087815260200190815260200160002060020160006101000a81548173ffffffffffffffffffffffffffffffffffffffff021916908373ffffffffffffffffffffffffffffffffffffffff1602179055503360056000878152602001908152602001600020600b0160016101000a81548173ffffffffffffffffffffffffffffffffffffffff021916908373ffffffffffffffffffffffffffffffffffffffff160217905550600460056000878152602001908152602001600020600b0160006101000a81548160ff0219169083600881111561151d57fe5b02179055506005600086815260200190815260200160002060030160009054906101000a900473ffffffffffffffffffffffffffffffffffffffff1673ffffffffffffffffffffffffffffffffffffffff166108fc60056000888152602001908152602001600020600a01549081150290604051600060405180830381858888f193505050501580156115b4573d6000803e3d6000fd5b507f92f64ca637d023f354075a4be751b169c1a8a9ccb6d33cdd0cb3520543995727856040518082815260200191505060405180910390a1600060056000838152602001908152602001600020600a015490506000813403905060056000848152602001908152602001600020600d0160009054906101000a900473ffffffffffffffffffffffffffffffffffffffff1673ffffffffffffffffffffffffffffffffffffffff166108fc829081150290604051600060405180830381858888f1935050505015801561168a573d6000803e3d6000fd5b5050505050505050565b6116bb60016000848152602001908152602001600020600201546116b6613bc8565b612897565b611710576040517f08c379a000000000000000000000000000000000000000000000000000000000815260040180806020018281038252602f81526020018061411d602f913960400191505060405180910390fd5b61171a8282613bd0565b5050565b611726613bc8565b73ffffffffffffffffffffffffffffffffffffffff168173ffffffffffffffffffffffffffffffffffffffff16146117a9576040517f08c379a000000000000000000000000000000000000000000000000000000000815260040180806020018281038252602f8152602001806141c6602f913960400191505060405180910390fd5b6117b38282613c64565b5050565b336117f760405180807f4641524d45525f524f4c45000000000000000000000000000000000000000000815250600b019050604051809103902082612897565b611869576040517f08c379a00000000000000000000000000000000000000000000000000000000081526004018080602001828103825260138152602001807f4572726f723a204e6f742061206661726d65720000000000000000000000000081525060200191505060405180910390fd5b816001600881111561187757fe5b60056000838152602001908152602001600020600b0160009054906101000a900460ff1660088111156118a657fe5b14611919576040517f08c379a000000000000000000000000000000000000000000000000000000000815260040180806020018281038252601d8152602001807f4572726f723a204974656d206e6f74207965742070726f63657373656400000081525060200191505060405180910390fd5b6005600084815260200190815260200160002060030160009054906101000a900473ffffffffffffffffffffffffffffffffffffffff168073ffffffffffffffffffffffffffffffffffffffff163373ffffffffffffffffffffffffffffffffffffffff16146119f1576040517f08c379a000000000000000000000000000000000000000000000000000000000815260040180806020018281038252601b8152602001807f4572726f723a2043616c6c657220697320756e7665726966696564000000000081525060200191505060405180910390fd5b600260056000868152602001908152602001600020600b0160006101000a81548160ff02191690836008811115611a2457fe5b02179055507f9b3b66e2380b690bae22c73ef1428fb0c91e72fe14a4b6defa13035214187aff846040518082815260200191505060405180910390a150505050565b600260009054906101000a900473ffffffffffffffffffffffffffffffffffffffff1673ffffffffffffffffffffffffffffffffffffffff163373ffffffffffffffffffffffffffffffffffffffff161415611af757600260009054906101000a900473ffffffffffffffffffffffffffffffffffffffff1673ffffffffffffffffffffffffffffffffffffffff16ff5b565b60405180807f434f4e53554d45525f524f4c4500000000000000000000000000000000000000815250600d019050604051809103902081565b60008060008060006060806060806060611b4a613f66565b600560008d8152602001908152602001600020604051806101e001604052908160008201548152602001600182015481526020016002820160009054906101000a900473ffffffffffffffffffffffffffffffffffffffff1673ffffffffffffffffffffffffffffffffffffffff1673ffffffffffffffffffffffffffffffffffffffff1681526020016003820160009054906101000a900473ffffffffffffffffffffffffffffffffffffffff1673ffffffffffffffffffffffffffffffffffffffff1673ffffffffffffffffffffffffffffffffffffffff168152602001600482018054600181600116156101000203166002900480601f016020809104026020016040519081016040528092919081815260200182805460018160011615610100020316600290048015611cc25780601f10611c9757610100808354040283529160200191611cc2565b820191906000526020600020905b815481529060010190602001808311611ca557829003601f168201915b50505050508152602001600582018054600181600116156101000203166002900480601f016020809104026020016040519081016040528092919081815260200182805460018160011615610100020316600290048015611d645780601f10611d3957610100808354040283529160200191611d64565b820191906000526020600020905b815481529060010190602001808311611d4757829003601f168201915b50505050508152602001600682018054600181600116156101000203166002900480601f016020809104026020016040519081016040528092919081815260200182805460018160011615610100020316600290048015611e065780601f10611ddb57610100808354040283529160200191611e06565b820191906000526020600020905b815481529060010190602001808311611de957829003601f168201915b50505050508152602001600782018054600181600116156101000203166002900480601f016020809104026020016040519081016040528092919081815260200182805460018160011615610100020316600290048015611ea85780601f10611e7d57610100808354040283529160200191611ea8565b820191906000526020600020905b815481529060010190602001808311611e8b57829003601f168201915b5050505050815260200160088201548152602001600982018054600181600116156101000203166002900480601f016020809104026020016040519081016040528092919081815260200182805460018160011615610100020316600290048015611f545780601f10611f2957610100808354040283529160200191611f54565b820191906000526020600020905b815481529060010190602001808311611f3757829003601f168201915b50505050508152602001600a8201548152602001600b820160009054906101000a900460ff166008811115611f8557fe5b6008811115611f9057fe5b8152602001600b820160019054906101000a900473ffffffffffffffffffffffffffffffffffffffff1673ffffffffffffffffffffffffffffffffffffffff1673ffffffffffffffffffffffffffffffffffffffff168152602001600c820160009054906101000a900473ffffffffffffffffffffffffffffffffffffffff1673ffffffffffffffffffffffffffffffffffffffff1673ffffffffffffffffffffffffffffffffffffffff168152602001600d820160009054906101000a900473ffffffffffffffffffffffffffffffffffffffff1673ffffffffffffffffffffffffffffffffffffffff1673ffffffffffffffffffffffffffffffffffffffff1681525050905080600001519a508060200151995080610160015160088111156120b757fe5b98508060400151975080606001519650806080015195508060a0015194508060c0015193508060e0015192508061012001519150509193959799509193959799565b612101613bc8565b73ffffffffffffffffffffffffffffffffffffffff166000809054906101000a900473ffffffffffffffffffffffffffffffffffffffff1673ffffffffffffffffffffffffffffffffffffffff16146121c2576040517f08c379a00000000000000000000000000000000000000000000000000000000081526004018080602001828103825260208152602001807f4f776e61626c653a2063616c6c6572206973206e6f7420746865206f776e657281525060200191505060405180910390fd5b600073ffffffffffffffffffffffffffffffffffffffff166000809054906101000a900473ffffffffffffffffffffffffffffffffffffffff1673ffffffffffffffffffffffffffffffffffffffff167f8be0079c531659141344cd1fd0a4f28419497f9722a3daafe3b4186f6b6457e060405160405180910390a360008060006101000a81548173ffffffffffffffffffffffffffffffffffffffff021916908373ffffffffffffffffffffffffffffffffffffffff160217905550565b336122c160405180807f4641524d45525f524f4c45000000000000000000000000000000000000000000815250600b019050604051809103902082612897565b612333576040517f08c379a00000000000000000000000000000000000000000000000000000000081526004018080602001828103825260138152602001807f4572726f723a204e6f742061206661726d65720000000000000000000000000081525060200191505060405180910390fd5b826002600881111561234157fe5b60056000838152602001908152602001600020600b0160009054906101000a900460ff16600881111561237057fe5b146123e3576040517f08c379a000000000000000000000000000000000000000000000000000000000815260040180806020018281038252601a8152602001807f4572726f723a204974656d206e6f7420796574207061636b656400000000000081525060200191505060405180910390fd5b6005600085815260200190815260200160002060030160009054906101000a900473ffffffffffffffffffffffffffffffffffffffff168073ffffffffffffffffffffffffffffffffffffffff163373ffffffffffffffffffffffffffffffffffffffff16146124bb576040517f08c379a000000000000000000000000000000000000000000000000000000000815260040180806020018281038252601b8152602001807f4572726f723a2043616c6c657220697320756e7665726966696564000000000081525060200191505060405180910390fd5b8360056000878152602001908152602001600020600a0181905550600360056000878152602001908152602001600020600b0160006101000a81548160ff0219169083600881111561250957fe5b02179055507fd16250b7a63f912eba58c2af82d665f0cb0de94a70a63fcace34524b786cfed9856040518082815260200191505060405180910390a15050505050565b3361258c60405180807f4641524d45525f524f4c45000000000000000000000000000000000000000000815250600b019050604051809103902082612897565b6125fe576040517f08c379a00000000000000000000000000000000000000000000000000000000081526004018080602001828103825260138152602001807f4572726f723a204e6f742061206661726d65720000000000000000000000000081525060200191505060405180910390fd5b600454600560008a81526020019081526020016000206000018190555087600560008a81526020019081526020016000206001018190555086600560008a815260200190815260200160002060030160006101000a81548173ffffffffffffffffffffffffffffffffffffffff021916908373ffffffffffffffffffffffffffffffffffffffff16021790555085600560008a815260200190815260200160002060040190805190602001906126b5929190614055565b5084600560008a815260200190815260200160002060050190805190602001906126e0929190614055565b5083600560008a8152602001908152602001600020600601908051906020019061270b929190614055565b5082600560008a81526020019081526020016000206007019080519060200190612736929190614055565b5081600560008a81526020019081526020016000206009019080519060200190612761929190614055565b5086600560008a815260200190815260200160002060020160006101000a81548173ffffffffffffffffffffffffffffffffffffffff021916908373ffffffffffffffffffffffffffffffffffffffff1602179055506000600560008a8152602001908152602001600020600b0160006101000a81548160ff021916908360088111156127ea57fe5b02179055507f8e55ccfc9778ff8eba1646d765cf1982537ce0f9257054a17b48aad745250183886040518082815260200191505060405180910390a16001600454016004819055505050505050505050565b60008060009054906101000a900473ffffffffffffffffffffffffffffffffffffffff16905090565b600061288f8260016000868152602001908152602001600020600001613cf890919063ffffffff16565b905092915050565b60006128c18260016000868152602001908152602001600020600001613b9890919063ffffffff16565b905092915050565b3361290960405180807f52455441494c45525f524f4c4500000000000000000000000000000000000000815250600d019050604051809103902082612897565b61297b576040517f08c379a00000000000000000000000000000000000000000000000000000000081526004018080602001828103825260158152602001807f4572726f723a204e6f7420612072657461696c6572000000000000000000000081525060200191505060405180910390fd5b826006600881111561298957fe5b60056000838152602001908152602001600020600b0160009054906101000a900460ff1660088111156129b857fe5b14612a2b576040517f08c379a00000000000000000000000000000000000000000000000000000000081526004018080602001828103825260188152602001807f4572726f723a204974656d206e6f74207265636569766564000000000000000081525060200191505060405180910390fd5b600760056000868152602001908152602001600020600b0160006101000a81548160ff02191690836008811115612a5e57fe5b0217905550612aa260405180807f434f4e53554d45525f524f4c4500000000000000000000000000000000000000815250600d019050604051809103902084611694565b7ff4da425546dea8b9f96dc3e8d5884bf20b04876f8c2a6cd11bfdb240cdab35ce846040518082815260200191505060405180910390a150505050565b6000801b81565b33612b2660405180807f52455441494c45525f524f4c4500000000000000000000000000000000000000815250600d019050604051809103902082612897565b612b98576040517f08c379a00000000000000000000000000000000000000000000000000000000081526004018080602001828103825260158152602001807f4572726f723a204e6f7420612072657461696c6572000000000000000000000081525060200191505060405180910390fd5b8160056008811115612ba657fe5b60056000838152602001908152602001600020600b0160009054906101000a900460ff166008811115612bd557fe5b14612c48576040517f08c379a00000000000000000000000000000000000000000000000000000000081526004018080602001828103825260178152602001807f4572726f723a204974656d206e6f74207368697070656400000000000000000081525060200191505060405180910390fd5b336005600085815260200190815260200160002060020160006101000a81548173ffffffffffffffffffffffffffffffffffffffff021916908373ffffffffffffffffffffffffffffffffffffffff1602179055503360056000858152602001908152602001600020600c0160006101000a81548173ffffffffffffffffffffffffffffffffffffffff021916908373ffffffffffffffffffffffffffffffffffffffff160217905550600660056000858152602001908152602001600020600b0160006101000a81548160ff02191690836008811115612d2557fe5b02179055507fa8142743f8f70a4c26f3691cf4ed59718381fb2f18070ec52be1f1022d855557836040518082815260200191505060405180910390a1505050565b33612da660405180807f434f4e53554d45525f524f4c4500000000000000000000000000000000000000815250600d019050604051809103902082612897565b612e18576040517f08c379a00000000000000000000000000000000000000000000000000000000081526004018080602001828103825260158152602001807f4572726f723a204e6f74206120636f6e73756d6572000000000000000000000081525060200191505060405180910390fd5b8160076008811115612e2657fe5b60056000838152602001908152602001600020600b0160009054906101000a900460ff166008811115612e5557fe5b14612ec8576040517f08c379a000000000000000000000000000000000000000000000000000000000815260040180806020018281038252601b8152602001807f4572726f723a2053616c65206e6f7420696e697469616c697a6564000000000081525060200191505060405180910390fd5b336005600085815260200190815260200160002060020160006101000a81548173ffffffffffffffffffffffffffffffffffffffff021916908373ffffffffffffffffffffffffffffffffffffffff1602179055503360056000858152602001908152602001600020600d0160006101000a81548173ffffffffffffffffffffffffffffffffffffffff021916908373ffffffffffffffffffffffffffffffffffffffff160217905550600860056000858152602001908152602001600020600b0160006101000a81548160ff02191690836008811115612fa557fe5b02179055507f4e08ba899977cf7d4c2964bce71c6b9a7ef76ee5166a4c1249a1e08016e33ef1836040518082815260200191505060405180910390a1505050565b600061300660016000848152602001908152602001600020600001613d12565b9050919050565b613034600160008481526020019081526020016000206002015461302f613bc8565b612897565b613089576040517f08c379a00000000000000000000000000000000000000000000000000000000081526004018080602001828103825260308152602001806141966030913960400191505060405180910390fd5b6130938282613c64565b5050565b336130d760405180807f4449535452494255544f525f524f4c45000000000000000000000000000000008152506010019050604051809103902082612897565b613149576040517f08c379a00000000000000000000000000000000000000000000000000000000081526004018080602001828103825260188152602001807f4572726f723a204e6f742061206469737472696275746f72000000000000000081525060200191505060405180910390fd5b816004600881111561315757fe5b600560006003548152602001908152602001600020600b0160009054906101000a900460ff16600881111561318857fe5b146131fb576040517f08c379a00000000000000000000000000000000000000000000000000000000081526004018080602001828103825260148152602001807f4572726f723a204974656d206e6f7420736f6c6400000000000000000000000081525060200191505060405180910390fd5b6005600084815260200190815260200160002060020160009054906101000a900473ffffffffffffffffffffffffffffffffffffffff168073ffffffffffffffffffffffffffffffffffffffff163373ffffffffffffffffffffffffffffffffffffffff16146132d3576040517f08c379a000000000000000000000000000000000000000000000000000000000815260040180806020018281038252601b8152602001807f4572726f723a2043616c6c657220697320756e7665726966696564000000000081525060200191505060405180910390fd5b6005806000868152602001908152602001600020600b0160006101000a81548160ff0219169083600881111561330557fe5b02179055507ff00b9a5725b80c54016f42114f6ed7792d22eecb116011c4afac29c57bef6c95846040518082815260200191505060405180910390a150505050565b60405180807f4449535452494255544f525f524f4c45000000000000000000000000000000008152506010019050604051809103902081565b613388613bc8565b73ffffffffffffffffffffffffffffffffffffffff166000809054906101000a900473ffffffffffffffffffffffffffffffffffffffff1673ffffffffffffffffffffffffffffffffffffffff1614613449576040517f08c379a00000000000000000000000000000000000000000000000000000000081526004018080602001828103825260208152602001807f4f776e61626c653a2063616c6c6572206973206e6f7420746865206f776e657281525060200191505060405180910390fd5b600073ffffffffffffffffffffffffffffffffffffffff168173ffffffffffffffffffffffffffffffffffffffff1614156134cf576040517f08c379a00000000000000000000000000000000000000000000000000000000081526004018080602001828103825260268152602001806141706026913960400191505060405180910390fd5b8073ffffffffffffffffffffffffffffffffffffffff166000809054906101000a900473ffffffffffffffffffffffffffffffffffffffff1673ffffffffffffffffffffffffffffffffffffffff167f8be0079c531659141344cd1fd0a4f28419497f9722a3daafe3b4186f6b6457e060405160405180910390a3806000806101000a81548173ffffffffffffffffffffffffffffffffffffffff021916908373ffffffffffffffffffffffffffffffffffffffff16021790555050565b60405180807f4641524d45525f524f4c45000000000000000000000000000000000000000000815250600b019050604051809103902081565b6000806000806000806135d7613f66565b60056000898152602001908152602001600020604051806101e001604052908160008201548152602001600182015481526020016002820160009054906101000a900473ffffffffffffffffffffffffffffffffffffffff1673ffffffffffffffffffffffffffffffffffffffff1673ffffffffffffffffffffffffffffffffffffffff1681526020016003820160009054906101000a900473ffffffffffffffffffffffffffffffffffffffff1673ffffffffffffffffffffffffffffffffffffffff1673ffffffffffffffffffffffffffffffffffffffff168152602001600482018054600181600116156101000203166002900480601f01602080910402602001604051908101604052809291908181526020018280546001816001161561010002031660029004801561374f5780601f106137245761010080835404028352916020019161374f565b820191906000526020600020905b81548152906001019060200180831161373257829003601f168201915b50505050508152602001600582018054600181600116156101000203166002900480601f0160208091040260200160405190810160405280929190818152602001828054600181600116156101000203166002900480156137f15780601f106137c6576101008083540402835291602001916137f1565b820191906000526020600020905b8154815290600101906020018083116137d457829003601f168201915b50505050508152602001600682018054600181600116156101000203166002900480601f0160208091040260200160405190810160405280929190818152602001828054600181600116156101000203166002900480156138935780601f1061386857610100808354040283529160200191613893565b820191906000526020600020905b81548152906001019060200180831161387657829003601f168201915b50505050508152602001600782018054600181600116156101000203166002900480601f0160208091040260200160405190810160405280929190818152602001828054600181600116156101000203166002900480156139355780601f1061390a57610100808354040283529160200191613935565b820191906000526020600020905b81548152906001019060200180831161391857829003601f168201915b5050505050815260200160088201548152602001600982018054600181600116156101000203166002900480601f0160208091040260200160405190810160405280929190818152602001828054600181600116156101000203166002900480156139e15780601f106139b6576101008083540402835291602001916139e1565b820191906000526020600020905b8154815290600101906020018083116139c457829003601f168201915b50505050508152602001600a8201548152602001600b820160009054906101000a900460ff166008811115613a1257fe5b6008811115613a1d57fe5b8152602001600b820160019054906101000a900473ffffffffffffffffffffffffffffffffffffffff1673ffffffffffffffffffffffffffffffffffffffff1673ffffffffffffffffffffffffffffffffffffffff168152602001600c820160009054906101000a900473ffffffffffffffffffffffffffffffffffffffff1673ffffffffffffffffffffffffffffffffffffffff1673ffffffffffffffffffffffffffffffffffffffff168152602001600d820160009054906101000a900473ffffffffffffffffffffffffffffffffffffffff1673ffffffffffffffffffffffffffffffffffffffff1673ffffffffffffffffffffffffffffffffffffffff1681525050905080604001519650806060015195508061018001519450806101a001519350806101c0015192508061016001516008811115613b5c57fe5b91505091939550919395565b6000613b90836000018373ffffffffffffffffffffffffffffffffffffffff1660001b613d27565b905092915050565b6000613bc0836000018373ffffffffffffffffffffffffffffffffffffffff1660001b613d97565b905092915050565b600033905090565b613bf88160016000858152602001908152602001600020600001613b6890919063ffffffff16565b15613c6057613c05613bc8565b73ffffffffffffffffffffffffffffffffffffffff168173ffffffffffffffffffffffffffffffffffffffff16837f2f8788117e7eff1d82e926ec794901d17c78024a50270940304540a733656f0d60405160405180910390a45b5050565b613c8c8160016000858152602001908152602001600020600001613dba90919063ffffffff16565b15613cf457613c99613bc8565b73ffffffffffffffffffffffffffffffffffffffff168173ffffffffffffffffffffffffffffffffffffffff16837ff6391f5c32d9c69d2a47ea670b442974b53935d1edc7fd64eb21e047a839171b60405160405180910390a45b5050565b6000613d078360000183613dea565b60001c905092915050565b6000613d2082600001613e6d565b9050919050565b6000613d338383613d97565b613d8c578260000182908060018154018082558091505060019003906000526020600020016000909190919091505582600001805490508360010160008481526020019081526020016000208190555060019050613d91565b600090505b92915050565b600080836001016000848152602001908152602001600020541415905092915050565b6000613de2836000018373ffffffffffffffffffffffffffffffffffffffff1660001b613e7e565b905092915050565b600081836000018054905011613e4b576040517f08c379a00000000000000000000000000000000000000000000000000000000081526004018080602001828103825260228152602001806140fb6022913960400191505060405180910390fd5b826000018281548110613e5a57fe5b9060005260206000200154905092915050565b600081600001805490509050919050565b60008083600101600084815260200190815260200160002054905060008114613f5a5760006001820390506000600186600001805490500390506000866000018281548110613ec957fe5b9060005260206000200154905080876000018481548110613ee657fe5b9060005260206000200181905550600183018760010160008381526020019081526020016000208190555086600001805480613f1e57fe5b60019003818190600052602060002001600090559055866001016000878152602001908152602001600020600090556001945050505050613f60565b60009150505b92915050565b604051806101e001604052806000815260200160008152602001600073ffffffffffffffffffffffffffffffffffffffff168152602001600073ffffffffffffffffffffffffffffffffffffffff1681526020016060815260200160608152602001606081526020016060815260200160008152602001606081526020016000815260200160006008811115613ff857fe5b8152602001600073ffffffffffffffffffffffffffffffffffffffff168152602001600073ffffffffffffffffffffffffffffffffffffffff168152602001600073ffffffffffffffffffffffffffffffffffffffff1681525090565b828054600181600116156101000203166002900490600052602060002090601f016020900481019282601f1061409657805160ff19168380011785556140c4565b828001600101855582156140c4579182015b828111156140c35782518255916020019190600101906140a8565b5b5090506140d191906140d5565b5090565b6140f791905b808211156140f35760008160009055506001016140db565b5090565b9056fe456e756d657261626c655365743a20696e646578206f7574206f6620626f756e6473416363657373436f6e74726f6c3a2073656e646572206d75737420626520616e2061646d696e20746f206772616e744572726f723a204974656d206e6f742079657420616464656420746f2070616c657474654f776e61626c653a206e6577206f776e657220697320746865207a65726f2061646472657373416363657373436f6e74726f6c3a2073656e646572206d75737420626520616e2061646d696e20746f207265766f6b65416363657373436f6e74726f6c3a2063616e206f6e6c792072656e6f756e636520726f6c657320666f722073656c66a26469706673582212206db337b054bdfc374130c960b6e58e55ce33e36a672ed81b61b176d0422dc7ad64736f6c634300060a0033416363657373436f6e74726f6c3a2073656e646572206d75737420626520616e2061646d696e20746f206772616e74",
  "immutableReferences": {},
  "source": "// SPDX-License-Identifier: UNLICENSED\npragma solidity ^0.6.0;\nimport '../node_modules/@openzeppelin/contracts/access/Ownable.sol';\nimport '../node_modules/@openzeppelin/contracts/access/AccessControl.sol';\n\n\ncontract SupplyChain is Ownable, AccessControl {\n\n    address payable contractOwner;\n\n    bytes32 public constant FARMER_ROLE = keccak256('FARMER_ROLE');\n    bytes32 public constant DISTRIBUTOR_ROLE = keccak256('DISTRIBUTOR_ROLE');\n    bytes32 public constant RETAILER_ROLE = keccak256('RETAILER_ROLE');\n    bytes32 public constant CONSUMER_ROLE = keccak256('CONSUMER_ROLE');\n\n    uint upc;\n    uint sku;\n\n    mapping(uint => Item) items;\n    mapping(uint => string[]) itemHistory;\n\n    enum State {\n        Harvested,  // 0\n        Processed,  // 1\n        Packed,     // 2\n        AddedToPalette,    // 3\n        Sold,       // 4\n        Shipped,    // 5\n        Received,   // 6\n        SaleInitialized, // 7\n        Bought   // 8\n    }\n\n    State constant defaultState = State.Harvested;\n\n    struct Item {\n        uint    sku;  // Stock Keeping Unit (SKU)\n        uint    upc; // Universal Product Code (UPC), generated by the Farmer, goes on the package, can be verified by the Consumer\n        address payable ownerID;  // Metamask-Ethereum address of the current owner as the product moves through 8 stages\n        address payable originFarmerID; // Metamask-Ethereum address of the Farmer\n        string  originFarmName; // Farmer Name\n        string  originFarmInformation;  // Farmer Information\n        string  originFarmLatitude; // Farm Latitude\n        string  originFarmLongitude;  // Farm Longitude\n        uint    productID;  // Product ID potentially a combination of upc + sku\n        string  productNotes; // Product Notes\n        uint    productPrice; // Product Price\n        State   itemState;  // Product State as represented in the enum above\n        address payable distributorID;  // Metamask-Ethereum address of the Distributor\n        address payable retailerID; // Metamask-Ethereum address of the Retailer\n        address payable consumerID; // Metamask-Ethereum address of the Consumer\n    }\n\n    event Harvested(uint upc);\n    event Processed(uint upc);\n    event Packed(uint upc);\n    event AddedToPalette(uint upc);\n    event Sold(uint upc);\n    event Shipped(uint upc);\n    event Received(uint upc);\n    event SaleInitialized(uint upc);\n    event Bought(uint upc);\n\n    modifier verifyCaller (address _address) {\n        require(msg.sender == _address, 'Error: Caller is unverified');\n        _;\n    }\n    modifier paidEnough(uint _price) {\n        require(msg.value >= _price, 'Error: Not enough paid');\n        _;\n    }\n    modifier refundExcess(uint _upc) {\n        _;\n        uint _price = items[_upc].productPrice;\n        uint amountToReturn = msg.value - _price;\n        items[_upc].consumerID.transfer(amountToReturn);\n    }\n    modifier onlyFarmer(address _address) {\n        require(hasRole(FARMER_ROLE, _address), 'Error: Not a farmer');\n        _;\n    }\n    modifier onlyDistributor(address _address) {\n        require(hasRole(DISTRIBUTOR_ROLE, _address), 'Error: Not a distributor');\n        _;\n    }\n    modifier onlyRetailer(address _address) {\n        require(hasRole(RETAILER_ROLE, _address), 'Error: Not a retailer');\n        _;\n    }\n    modifier onlyConsumer(address _address) {\n        require(hasRole(CONSUMER_ROLE, _address), 'Error: Not a consumer');\n        _;\n    }\n    modifier harvested(uint _upc) {\n        require(items[_upc].itemState == State.Harvested, 'Error: Item not yet harvested');\n        _;\n    }\n    modifier processed(uint _upc) {\n        require(items[_upc].itemState == State.Processed, 'Error: Item not yet processed');\n        _;\n    }\n    modifier packed(uint _upc) {\n        require(items[_upc].itemState == State.Packed, 'Error: Item not yet packed');\n        _;\n    }\n    modifier addedToPalette(uint _upc) {\n        require(items[_upc].itemState == State.AddedToPalette, 'Error: Item not yet added to palette');\n        _;\n    }\n    modifier sold(uint _upc) {\n        require(items[upc].itemState == State.Sold, 'Error: Item not sold');\n        _;\n    }\n    modifier shipped(uint _upc) {\n        require(items[_upc].itemState == State.Shipped, 'Error: Item not shipped');\n        _;\n    }\n    modifier received(uint _upc) {\n        require(items[_upc].itemState == State.Received, 'Error: Item not received');\n        _;\n    }\n    modifier saleInitialized(uint _upc) {\n        require(items[_upc].itemState == State.SaleInitialized, 'Error: Sale not initialized');\n        _;\n    }\n    modifier bought(uint _upc) {\n        require(items[_upc].itemState == State.Bought, 'Error: Item not bought');\n        _;\n    }\n\n    constructor(address initialFarmer, address initialDistributor, address initialRetailer) public payable {\n        _setupRole(DEFAULT_ADMIN_ROLE, msg.sender);\n        grantRole(FARMER_ROLE, initialFarmer);\n        grantRole(DISTRIBUTOR_ROLE, initialDistributor);\n        grantRole(RETAILER_ROLE, initialRetailer);\n        _setRoleAdmin(CONSUMER_ROLE, RETAILER_ROLE);\n        contractOwner = msg.sender;\n        sku = 1;\n        upc = 1;\n    }\n\n    function kill() public {\n        if (msg.sender == contractOwner) {\n            selfdestruct(contractOwner);\n        }\n    }\n\n    function harvestCoffee(\n    uint _upc,\n    address payable _originFarmerId,\n    string memory _originFarmName,\n    string memory _originFarmInformation,\n    string  memory _originFarmLatitude,\n    string  memory _originFarmLongitude,\n    string  memory _productNotes\n    ) public onlyFarmer(msg.sender) {\n        items[_upc].sku = sku;\n        items[_upc].upc = _upc;\n        items[_upc].originFarmerID = _originFarmerId;\n        items[_upc].originFarmName = _originFarmName;\n        items[_upc].originFarmInformation = _originFarmInformation;\n        items[_upc].originFarmLatitude = _originFarmLatitude;\n        items[_upc].originFarmLongitude = _originFarmLongitude;\n        items[_upc].productNotes = _productNotes;\n        items[_upc].ownerID = _originFarmerId;\n        items[_upc].itemState = State.Harvested;\n        emit Harvested(_upc);\n        sku = sku + 1;\n    }\n\n    function processCoffee(\n    uint _upc\n    ) public onlyFarmer(msg.sender) harvested(_upc) verifyCaller(items[_upc].originFarmerID) {\n        items[_upc].itemState = State.Processed;\n        emit Processed(_upc);\n    }\n\n    function packCoffee(\n    uint _upc\n    ) public onlyFarmer(msg.sender) processed(_upc) verifyCaller(items[_upc].originFarmerID) {\n        items[_upc].itemState = State.Packed;\n        emit Packed(_upc);\n    }\n\n    function addCoffeeToPalette(\n    uint _upc,\n    uint _productPrice\n    )  public onlyFarmer(msg.sender) packed(_upc) verifyCaller(items[_upc].originFarmerID) {\n        items[_upc].productPrice = _productPrice;\n        items[_upc].itemState = State.AddedToPalette;\n        emit AddedToPalette(_upc);\n    }\n\n    function buyCoffeePalette(\n    uint _upc\n    ) public payable onlyDistributor(msg.sender) addedToPalette(_upc) paidEnough(items[_upc].productPrice) refundExcess(_upc) {\n        items[_upc].ownerID = msg.sender;\n        items[_upc].distributorID = msg.sender;\n        items[_upc].itemState = State.Sold;\n        items[_upc].originFarmerID.transfer(items[_upc].productPrice);\n        emit Sold(_upc);\n    }\n\n    function shipCoffeePalette(\n    uint _upc\n    ) public onlyDistributor(msg.sender)  sold(_upc) verifyCaller(items[_upc].ownerID) {\n        items[_upc].itemState = State.Shipped;\n        emit Shipped(_upc);\n    }\n\n    function receiveCoffeePalette(\n    uint _upc\n    ) public onlyRetailer(msg.sender) shipped(_upc) {\n        items[_upc].ownerID = msg.sender;\n        items[_upc].retailerID = msg.sender;\n        items[_upc].itemState = State.Received;\n        emit Received(_upc);\n    }\n\n    function initializeSale(\n    uint _upc,\n    address _consumerID\n    ) public onlyRetailer(msg.sender) received(_upc) {\n        items[_upc].itemState = State.SaleInitialized;\n        grantRole(CONSUMER_ROLE, _consumerID);\n        emit SaleInitialized(_upc);\n    }\n\n    function buyCoffee(\n    uint _upc\n    ) public onlyConsumer(msg.sender) saleInitialized(_upc) {\n        items[_upc].ownerID = msg.sender;\n        items[_upc].consumerID = msg.sender;\n        items[_upc].itemState = State.Bought;\n        emit Bought(_upc);\n    }\n\n    function fetchCoffee(\n    uint _upc\n    ) public view returns (\n    uint itemSKU,\n    uint itemUPC,\n    uint itemState,\n    address ownerID,\n    address originFarmerID,\n    string memory originFarmName,\n    string memory originFarmInformation,\n    string memory originFarmLatitude,\n    string memory originFarmLongitude,\n    string memory productNotes\n    ) {\n        Item memory item = items[_upc];\n\n        itemSKU = item.sku;\n        itemUPC = item.upc;\n        itemState = uint(item.itemState);\n        ownerID = item.ownerID;\n        originFarmerID = item.originFarmerID;\n        originFarmName = item.originFarmName;\n        originFarmInformation = item.originFarmInformation;\n        originFarmLatitude = item.originFarmLatitude;\n        originFarmLongitude = item.originFarmLongitude;\n        productNotes = item.productNotes;\n    }\n\n    function fetchCoffeeHistory(\n    uint _upc\n    ) public view returns (\n    address ownerID,\n    address originFarmerID,\n    address distributorID,\n    address retailerID,\n    address consumerID,\n    uint itemState\n    ) {\n        Item memory item = items[_upc];\n\n        ownerID = item.ownerID;\n        originFarmerID = item.originFarmerID;\n        distributorID = item.distributorID;\n        retailerID = item.retailerID;\n        consumerID = item.consumerID;\n        itemState = uint(item.itemState);\n    }\n}",
  "sourcePath": "/Users/sameer/CoffeeBeanSupplyChain/contracts/SupplyChain.sol",
  "compiler": {
    "name": "solc",
    "version": "0.6.10+commit.00c0fcaf.Emscripten.clang"
  },
  "schemaVersion": "3.1.0",
  "updatedAt": "2020-06-16T03:11:55.854Z",
  "devdoc": {
    "methods": {
      "getRoleAdmin(bytes32)": {
        "details": "Returns the admin role that controls `role`. See {grantRole} and {revokeRole}. To change a role's admin, use {_setRoleAdmin}."
      },
      "getRoleMember(bytes32,uint256)": {
        "details": "Returns one of the accounts that have `role`. `index` must be a value between 0 and {getRoleMemberCount}, non-inclusive. Role bearers are not sorted in any particular way, and their ordering may change at any point. WARNING: When using {getRoleMember} and {getRoleMemberCount}, make sure you perform all queries on the same block. See the following https://forum.openzeppelin.com/t/iterating-over-elements-on-enumerableset-in-openzeppelin-contracts/2296[forum post] for more information."
      },
      "getRoleMemberCount(bytes32)": {
        "details": "Returns the number of accounts that have `role`. Can be used together with {getRoleMember} to enumerate all bearers of a role."
      },
      "grantRole(bytes32,address)": {
        "details": "Grants `role` to `account`. If `account` had not been already granted `role`, emits a {RoleGranted} event. Requirements: - the caller must have ``role``'s admin role."
      },
      "hasRole(bytes32,address)": {
        "details": "Returns `true` if `account` has been granted `role`."
      },
      "owner()": {
        "details": "Returns the address of the current owner."
      },
      "renounceOwnership()": {
        "details": "Leaves the contract without owner. It will not be possible to call `onlyOwner` functions anymore. Can only be called by the current owner. NOTE: Renouncing ownership will leave the contract without an owner, thereby removing any functionality that is only available to the owner."
      },
      "renounceRole(bytes32,address)": {
        "details": "Revokes `role` from the calling account. Roles are often managed via {grantRole} and {revokeRole}: this function's purpose is to provide a mechanism for accounts to lose their privileges if they are compromised (such as when a trusted device is misplaced). If the calling account had been granted `role`, emits a {RoleRevoked} event. Requirements: - the caller must be `account`."
      },
      "revokeRole(bytes32,address)": {
        "details": "Revokes `role` from `account`. If `account` had been granted `role`, emits a {RoleRevoked} event. Requirements: - the caller must have ``role``'s admin role."
      },
      "transferOwnership(address)": {
        "details": "Transfers ownership of the contract to a new account (`newOwner`). Can only be called by the current owner."
      }
    }
  },
  "userdoc": {
    "methods": {}
  }
}