{
  "contractName": "SupplyChain",
  "abi": [
    {
      "inputs": [
        {
          "internalType": "address",
          "name": "initialFarmer",
          "type": "address"
        },
        {
          "internalType": "address",
          "name": "initialDistributor",
          "type": "address"
        },
        {
          "internalType": "address",
          "name": "initialRetailer",
          "type": "address"
        }
      ],
      "stateMutability": "payable",
      "type": "constructor",
      "payable": true
    },
    {
      "anonymous": false,
      "inputs": [
        {
          "indexed": false,
          "internalType": "uint256",
          "name": "upc",
          "type": "uint256"
        }
      ],
      "name": "AddedToPalette",
      "type": "event"
    },
    {
      "anonymous": false,
      "inputs": [
        {
          "indexed": false,
          "internalType": "uint256",
          "name": "upc",
          "type": "uint256"
        }
      ],
      "name": "Bought",
      "type": "event"
    },
    {
      "anonymous": false,
      "inputs": [
        {
          "indexed": false,
          "internalType": "uint256",
          "name": "upc",
          "type": "uint256"
        }
      ],
      "name": "Harvested",
      "type": "event"
    },
    {
      "anonymous": false,
      "inputs": [
        {
          "indexed": true,
          "internalType": "address",
          "name": "previousOwner",
          "type": "address"
        },
        {
          "indexed": true,
          "internalType": "address",
          "name": "newOwner",
          "type": "address"
        }
      ],
      "name": "OwnershipTransferred",
      "type": "event"
    },
    {
      "anonymous": false,
      "inputs": [
        {
          "indexed": false,
          "internalType": "uint256",
          "name": "upc",
          "type": "uint256"
        }
      ],
      "name": "Packed",
      "type": "event"
    },
    {
      "anonymous": false,
      "inputs": [
        {
          "indexed": false,
          "internalType": "uint256",
          "name": "upc",
          "type": "uint256"
        }
      ],
      "name": "Processed",
      "type": "event"
    },
    {
      "anonymous": false,
      "inputs": [
        {
          "indexed": false,
          "internalType": "uint256",
          "name": "upc",
          "type": "uint256"
        }
      ],
      "name": "Received",
      "type": "event"
    },
    {
      "anonymous": false,
      "inputs": [
        {
          "indexed": true,
          "internalType": "bytes32",
          "name": "role",
          "type": "bytes32"
        },
        {
          "indexed": true,
          "internalType": "address",
          "name": "account",
          "type": "address"
        },
        {
          "indexed": true,
          "internalType": "address",
          "name": "sender",
          "type": "address"
        }
      ],
      "name": "RoleGranted",
      "type": "event"
    },
    {
      "anonymous": false,
      "inputs": [
        {
          "indexed": true,
          "internalType": "bytes32",
          "name": "role",
          "type": "bytes32"
        },
        {
          "indexed": true,
          "internalType": "address",
          "name": "account",
          "type": "address"
        },
        {
          "indexed": true,
          "internalType": "address",
          "name": "sender",
          "type": "address"
        }
      ],
      "name": "RoleRevoked",
      "type": "event"
    },
    {
      "anonymous": false,
      "inputs": [
        {
          "indexed": false,
          "internalType": "uint256",
          "name": "upc",
          "type": "uint256"
        }
      ],
      "name": "SaleInitialized",
      "type": "event"
    },
    {
      "anonymous": false,
      "inputs": [
        {
          "indexed": false,
          "internalType": "uint256",
          "name": "upc",
          "type": "uint256"
        }
      ],
      "name": "Shipped",
      "type": "event"
    },
    {
      "anonymous": false,
      "inputs": [
        {
          "indexed": false,
          "internalType": "uint256",
          "name": "upc",
          "type": "uint256"
        }
      ],
      "name": "Sold",
      "type": "event"
    },
    {
      "inputs": [],
      "name": "CONSUMER_ROLE",
      "outputs": [
        {
          "internalType": "bytes32",
          "name": "",
          "type": "bytes32"
        }
      ],
      "stateMutability": "view",
      "type": "function",
      "constant": true
    },
    {
      "inputs": [],
      "name": "DEFAULT_ADMIN_ROLE",
      "outputs": [
        {
          "internalType": "bytes32",
          "name": "",
          "type": "bytes32"
        }
      ],
      "stateMutability": "view",
      "type": "function",
      "constant": true
    },
    {
      "inputs": [],
      "name": "DISTRIBUTOR_ROLE",
      "outputs": [
        {
          "internalType": "bytes32",
          "name": "",
          "type": "bytes32"
        }
      ],
      "stateMutability": "view",
      "type": "function",
      "constant": true
    },
    {
      "inputs": [],
      "name": "FARMER_ROLE",
      "outputs": [
        {
          "internalType": "bytes32",
          "name": "",
          "type": "bytes32"
        }
      ],
      "stateMutability": "view",
      "type": "function",
      "constant": true
    },
    {
      "inputs": [],
      "name": "RETAILER_ROLE",
      "outputs": [
        {
          "internalType": "bytes32",
          "name": "",
          "type": "bytes32"
        }
      ],
      "stateMutability": "view",
      "type": "function",
      "constant": true
    },
    {
      "inputs": [
        {
          "internalType": "bytes32",
          "name": "role",
          "type": "bytes32"
        }
      ],
      "name": "getRoleAdmin",
      "outputs": [
        {
          "internalType": "bytes32",
          "name": "",
          "type": "bytes32"
        }
      ],
      "stateMutability": "view",
      "type": "function",
      "constant": true
    },
    {
      "inputs": [
        {
          "internalType": "bytes32",
          "name": "role",
          "type": "bytes32"
        },
        {
          "internalType": "uint256",
          "name": "index",
          "type": "uint256"
        }
      ],
      "name": "getRoleMember",
      "outputs": [
        {
          "internalType": "address",
          "name": "",
          "type": "address"
        }
      ],
      "stateMutability": "view",
      "type": "function",
      "constant": true
    },
    {
      "inputs": [
        {
          "internalType": "bytes32",
          "name": "role",
          "type": "bytes32"
        }
      ],
      "name": "getRoleMemberCount",
      "outputs": [
        {
          "internalType": "uint256",
          "name": "",
          "type": "uint256"
        }
      ],
      "stateMutability": "view",
      "type": "function",
      "constant": true
    },
    {
      "inputs": [
        {
          "internalType": "bytes32",
          "name": "role",
          "type": "bytes32"
        },
        {
          "internalType": "address",
          "name": "account",
          "type": "address"
        }
      ],
      "name": "grantRole",
      "outputs": [],
      "stateMutability": "nonpayable",
      "type": "function"
    },
    {
      "inputs": [
        {
          "internalType": "bytes32",
          "name": "role",
          "type": "bytes32"
        },
        {
          "internalType": "address",
          "name": "account",
          "type": "address"
        }
      ],
      "name": "hasRole",
      "outputs": [
        {
          "internalType": "bool",
          "name": "",
          "type": "bool"
        }
      ],
      "stateMutability": "view",
      "type": "function",
      "constant": true
    },
    {
      "inputs": [],
      "name": "owner",
      "outputs": [
        {
          "internalType": "address",
          "name": "",
          "type": "address"
        }
      ],
      "stateMutability": "view",
      "type": "function",
      "constant": true
    },
    {
      "inputs": [],
      "name": "renounceOwnership",
      "outputs": [],
      "stateMutability": "nonpayable",
      "type": "function"
    },
    {
      "inputs": [
        {
          "internalType": "bytes32",
          "name": "role",
          "type": "bytes32"
        },
        {
          "internalType": "address",
          "name": "account",
          "type": "address"
        }
      ],
      "name": "renounceRole",
      "outputs": [],
      "stateMutability": "nonpayable",
      "type": "function"
    },
    {
      "inputs": [
        {
          "internalType": "bytes32",
          "name": "role",
          "type": "bytes32"
        },
        {
          "internalType": "address",
          "name": "account",
          "type": "address"
        }
      ],
      "name": "revokeRole",
      "outputs": [],
      "stateMutability": "nonpayable",
      "type": "function"
    },
    {
      "inputs": [
        {
          "internalType": "address",
          "name": "newOwner",
          "type": "address"
        }
      ],
      "name": "transferOwnership",
      "outputs": [],
      "stateMutability": "nonpayable",
      "type": "function"
    },
    {
      "inputs": [],
      "name": "kill",
      "outputs": [],
      "stateMutability": "nonpayable",
      "type": "function"
    },
    {
      "inputs": [
        {
          "internalType": "address payable",
          "name": "farmer",
          "type": "address"
        }
      ],
      "name": "addFarmer",
      "outputs": [],
      "stateMutability": "nonpayable",
      "type": "function"
    },
    {
      "inputs": [
        {
          "internalType": "address payable",
          "name": "distributor",
          "type": "address"
        }
      ],
      "name": "addDistributor",
      "outputs": [],
      "stateMutability": "nonpayable",
      "type": "function"
    },
    {
      "inputs": [
        {
          "internalType": "address payable",
          "name": "retailer",
          "type": "address"
        }
      ],
      "name": "addRetailer",
      "outputs": [],
      "stateMutability": "nonpayable",
      "type": "function"
    },
    {
      "inputs": [],
      "name": "getUserRole",
      "outputs": [
        {
          "internalType": "string",
          "name": "",
          "type": "string"
        }
      ],
      "stateMutability": "view",
      "type": "function",
      "constant": true
    },
    {
      "inputs": [
        {
          "internalType": "uint256",
          "name": "_upc",
          "type": "uint256"
        },
        {
          "internalType": "address payable",
          "name": "_originFarmerId",
          "type": "address"
        },
        {
          "internalType": "string",
          "name": "_originFarmName",
          "type": "string"
        },
        {
          "internalType": "string",
          "name": "_originFarmInformation",
          "type": "string"
        },
        {
          "internalType": "string",
          "name": "_originFarmLatitude",
          "type": "string"
        },
        {
          "internalType": "string",
          "name": "_originFarmLongitude",
          "type": "string"
        },
        {
          "internalType": "string",
          "name": "_productName",
          "type": "string"
        }
      ],
      "name": "harvest",
      "outputs": [],
      "stateMutability": "nonpayable",
      "type": "function"
    },
    {
      "inputs": [
        {
          "internalType": "uint256",
          "name": "_upc",
          "type": "uint256"
        }
      ],
      "name": "process",
      "outputs": [],
      "stateMutability": "nonpayable",
      "type": "function"
    },
    {
      "inputs": [
        {
          "internalType": "uint256",
          "name": "_upc",
          "type": "uint256"
        }
      ],
      "name": "pack",
      "outputs": [],
      "stateMutability": "nonpayable",
      "type": "function"
    },
    {
      "inputs": [
        {
          "internalType": "uint256",
          "name": "_upc",
          "type": "uint256"
        },
        {
          "internalType": "uint256",
          "name": "_productPrice",
          "type": "uint256"
        }
      ],
      "name": "addToPalette",
      "outputs": [],
      "stateMutability": "nonpayable",
      "type": "function"
    },
    {
      "inputs": [
        {
          "internalType": "uint256",
          "name": "_upc",
          "type": "uint256"
        }
      ],
      "name": "buyPalette",
      "outputs": [],
      "stateMutability": "payable",
      "type": "function",
      "payable": true
    },
    {
      "inputs": [
        {
          "internalType": "uint256",
          "name": "_upc",
          "type": "uint256"
        }
      ],
      "name": "shipPalette",
      "outputs": [],
      "stateMutability": "nonpayable",
      "type": "function"
    },
    {
      "inputs": [
        {
          "internalType": "uint256",
          "name": "_upc",
          "type": "uint256"
        }
      ],
      "name": "receivePalette",
      "outputs": [],
      "stateMutability": "nonpayable",
      "type": "function"
    },
    {
      "inputs": [
        {
          "internalType": "uint256",
          "name": "_upc",
          "type": "uint256"
        },
        {
          "internalType": "address",
          "name": "_consumerID",
          "type": "address"
        }
      ],
      "name": "initializeSale",
      "outputs": [],
      "stateMutability": "nonpayable",
      "type": "function"
    },
    {
      "inputs": [
        {
          "internalType": "uint256",
          "name": "_upc",
          "type": "uint256"
        }
      ],
      "name": "buy",
      "outputs": [],
      "stateMutability": "payable",
      "type": "function",
      "payable": true
    },
    {
      "inputs": [
        {
          "internalType": "uint256",
          "name": "_upc",
          "type": "uint256"
        }
      ],
      "name": "fetchProduct",
      "outputs": [
        {
          "internalType": "uint256",
          "name": "itemSKU",
          "type": "uint256"
        },
        {
          "internalType": "uint256",
          "name": "itemUPC",
          "type": "uint256"
        },
        {
          "internalType": "uint256",
          "name": "itemState",
          "type": "uint256"
        },
        {
          "internalType": "address",
          "name": "ownerID",
          "type": "address"
        },
        {
          "internalType": "address",
          "name": "originFarmerID",
          "type": "address"
        },
        {
          "internalType": "string",
          "name": "originFarmName",
          "type": "string"
        },
        {
          "internalType": "string",
          "name": "originFarmInformation",
          "type": "string"
        },
        {
          "internalType": "string",
          "name": "originFarmLatitude",
          "type": "string"
        },
        {
          "internalType": "string",
          "name": "originFarmLongitude",
          "type": "string"
        },
        {
          "internalType": "string",
          "name": "productName",
          "type": "string"
        }
      ],
      "stateMutability": "view",
      "type": "function",
      "constant": true
    },
    {
      "inputs": [
        {
          "internalType": "uint256",
          "name": "_upc",
          "type": "uint256"
        }
      ],
      "name": "fetchProductHistory",
      "outputs": [
        {
          "internalType": "address",
          "name": "ownerID",
          "type": "address"
        },
        {
          "internalType": "address",
          "name": "originFarmerID",
          "type": "address"
        },
        {
          "internalType": "address",
          "name": "distributorID",
          "type": "address"
        },
        {
          "internalType": "address",
          "name": "retailerID",
          "type": "address"
        },
        {
          "internalType": "address",
          "name": "consumerID",
          "type": "address"
        },
        {
          "internalType": "uint256",
          "name": "itemState",
          "type": "uint256"
        }
      ],
      "stateMutability": "view",
      "type": "function",
      "constant": true
    }
  ],
  "bytecode": "0x60806040526040516200529038038062005290833981810160405260608110156200002957600080fd5b81019080805190602001909291908051906020019092919080519060200190929190505050600062000060620004bf60201b60201c565b9050806000806101000a81548173ffffffffffffffffffffffffffffffffffffffff021916908373ffffffffffffffffffffffffffffffffffffffff1602179055508073ffffffffffffffffffffffffffffffffffffffff16600073ffffffffffffffffffffffffffffffffffffffff167f8be0079c531659141344cd1fd0a4f28419497f9722a3daafe3b4186f6b6457e060405160405180910390a350828073ffffffffffffffffffffffffffffffffffffffff16600260009054906101000a900473ffffffffffffffffffffffffffffffffffffffff1673ffffffffffffffffffffffffffffffffffffffff161415620001a8576040517f08c379a0000000000000000000000000000000000000000000000000000000008152600401808060200182810382526038815260200180620052586038913960400191505060405180910390fd5b828073ffffffffffffffffffffffffffffffffffffffff16600260009054906101000a900473ffffffffffffffffffffffffffffffffffffffff1673ffffffffffffffffffffffffffffffffffffffff16141562000252576040517f08c379a0000000000000000000000000000000000000000000000000000000008152600401808060200182810382526038815260200180620052586038913960400191505060405180910390fd5b828073ffffffffffffffffffffffffffffffffffffffff16600260009054906101000a900473ffffffffffffffffffffffffffffffffffffffff1673ffffffffffffffffffffffffffffffffffffffff161415620002fc576040517f08c379a0000000000000000000000000000000000000000000000000000000008152600401808060200182810382526038815260200180620052586038913960400191505060405180910390fd5b620003116000801b33620004c760201b60201c565b6200035860405180807f4641524d45525f524f4c45000000000000000000000000000000000000000000815250600b019050604051809103902087620004dd60201b60201c565b6200039f60405180807f4449535452494255544f525f524f4c45000000000000000000000000000000008152506010019050604051809103902086620004dd60201b60201c565b620003e660405180807f52455441494c45525f524f4c4500000000000000000000000000000000000000815250600d019050604051809103902085620004dd60201b60201c565b6200046260405180807f434f4e53554d45525f524f4c4500000000000000000000000000000000000000815250600d019050604051809103902060405180807f52455441494c45525f524f4c4500000000000000000000000000000000000000815250600d01905060405180910390206200058160201b60201c565b33600260006101000a81548173ffffffffffffffffffffffffffffffffffffffff021916908373ffffffffffffffffffffffffffffffffffffffff160217905550600160048190555060016003819055505050505050506200078a565b600033905090565b620004d98282620005a060201b60201c565b5050565b62000514600160008481526020019081526020016000206002015462000508620004bf60201b60201c565b6200064460201b60201c565b6200056b576040517f08c379a000000000000000000000000000000000000000000000000000000000815260040180806020018281038252602f81526020018062005229602f913960400191505060405180910390fd5b6200057d8282620005a060201b60201c565b5050565b8060016000848152602001908152602001600020600201819055505050565b620005cf81600160008581526020019081526020016000206000016200067d60201b620043cd1790919060201c565b156200064057620005e5620004bf60201b60201c565b73ffffffffffffffffffffffffffffffffffffffff168173ffffffffffffffffffffffffffffffffffffffff16837f2f8788117e7eff1d82e926ec794901d17c78024a50270940304540a733656f0d60405160405180910390a45b5050565b6000620006758260016000868152602001908152602001600020600001620006b560201b620043fd1790919060201c565b905092915050565b6000620006ad836000018373ffffffffffffffffffffffffffffffffffffffff1660001b620006ed60201b60201c565b905092915050565b6000620006e5836000018373ffffffffffffffffffffffffffffffffffffffff1660001b6200076760201b60201c565b905092915050565b60006200070183836200076760201b60201c565b6200075c57826000018290806001815401808255809150506001900390600052602060002001600090919091909150558260000180549050836001016000848152602001908152602001600020819055506001905062000761565b600090505b92915050565b600080836001016000848152602001908152602001600020541415905092915050565b614a8f806200079a6000396000f3fe6080604052600436106101d85760003560e01c80638da5cb5b11610102578063d38d030611610095578063f0bd87cc11610064578063f0bd87cc14611035578063f2fde38b14611060578063f3943970146110b1578063ffb2c479146110dc576101d8565b8063d38d030614610c23578063d547741f14610f71578063d96a094a14610fcc578063e2ffcda114610ffa576101d8565b806396cf0cfd116100d157806396cf0cfd14610abe578063a217fddf14610b19578063bf04a10d14610b44578063ca15c87314610bd4576101d8565b80638da5cb5b1461091e5780638ec4f505146109755780639010d07c146109c657806391d1485414610a4b576101d8565b80634bc02da61161017a578063715892941161014957806371589294146108095780637250e2241461084e578063752fbd041461089f57806380c3f96d146108cd576101d8565b80634bc02da61461063e5780636b156a78146106695780636ea42555146107b7578063715018a6146107f2576101d8565b80632820443f116101b65780632820443f146105365780632f2ff15d1461057157806336568abe146105cc57806341c0e1b514610627576101d8565b80630cb28a53146101dd5780632115e7bf146104bc578063248a9ca3146104e7575b600080fd5b3480156101e957600080fd5b506102166004803603602081101561020057600080fd5b8101908080359060200190929190505050611117565b604051808b81526020018a81526020018981526020018873ffffffffffffffffffffffffffffffffffffffff1673ffffffffffffffffffffffffffffffffffffffff1681526020018773ffffffffffffffffffffffffffffffffffffffff1673ffffffffffffffffffffffffffffffffffffffff168152602001806020018060200180602001806020018060200186810386528b818151815260200191508051906020019080838360005b838110156102dc5780820151818401526020810190506102c1565b50505050905090810190601f1680156103095780820380516001836020036101000a031916815260200191505b5086810385528a818151815260200191508051906020019080838360005b83811015610342578082015181840152602081019050610327565b50505050905090810190601f16801561036f5780820380516001836020036101000a031916815260200191505b50868103845289818151815260200191508051906020019080838360005b838110156103a857808201518184015260208101905061038d565b50505050905090810190601f1680156103d55780820380516001836020036101000a031916815260200191505b50868103835288818151815260200191508051906020019080838360005b8381101561040e5780820151818401526020810190506103f3565b50505050905090810190601f16801561043b5780820380516001836020036101000a031916815260200191505b50868103825287818151815260200191508051906020019080838360005b83811015610474578082015181840152602081019050610459565b50505050905090810190601f1680156104a15780820380516001836020036101000a031916815260200191505b509f5050505050505050505050505050505060405180910390f35b3480156104c857600080fd5b506104d16116de565b6040518082815260200191505060405180910390f35b3480156104f357600080fd5b506105206004803603602081101561050a57600080fd5b8101908080359060200190929190505050611717565b6040518082815260200191505060405180910390f35b34801561054257600080fd5b5061056f6004803603602081101561055957600080fd5b8101908080359060200190929190505050611737565b005b34801561057d57600080fd5b506105ca6004803603604081101561059457600080fd5b8101908080359060200190929190803573ffffffffffffffffffffffffffffffffffffffff1690602001909291905050506119e7565b005b3480156105d857600080fd5b50610625600480360360408110156105ef57600080fd5b8101908080359060200190929190803573ffffffffffffffffffffffffffffffffffffffff169060200190929190505050611a71565b005b34801561063357600080fd5b5061063c611b0a565b005b34801561064a57600080fd5b50610653611b9d565b6040518082815260200191505060405180910390f35b34801561067557600080fd5b506106a26004803603602081101561068c57600080fd5b8101908080359060200190929190505050611bd6565b604051808773ffffffffffffffffffffffffffffffffffffffff1673ffffffffffffffffffffffffffffffffffffffff1681526020018673ffffffffffffffffffffffffffffffffffffffff1673ffffffffffffffffffffffffffffffffffffffff1681526020018573ffffffffffffffffffffffffffffffffffffffff1673ffffffffffffffffffffffffffffffffffffffff1681526020018473ffffffffffffffffffffffffffffffffffffffff1673ffffffffffffffffffffffffffffffffffffffff1681526020018373ffffffffffffffffffffffffffffffffffffffff1673ffffffffffffffffffffffffffffffffffffffff168152602001828152602001965050505050505060405180910390f35b3480156107c357600080fd5b506107f0600480360360208110156107da57600080fd5b8101908080359060200190929190505050612178565b005b3480156107fe57600080fd5b50610807612427565b005b34801561081557600080fd5b5061084c6004803603604081101561082c57600080fd5b8101908080359060200190929190803590602001909291905050506125af565b005b34801561085a57600080fd5b5061089d6004803603602081101561087157600080fd5b81019080803573ffffffffffffffffffffffffffffffffffffffff16906020019092919050505061287a565b005b6108cb600480360360208110156108b557600080fd5b8101908080359060200190929190505050612981565b005b3480156108d957600080fd5b5061091c600480360360208110156108f057600080fd5b81019080803573ffffffffffffffffffffffffffffffffffffffff169060200190929190505050612d74565b005b34801561092a57600080fd5b50610933612e7b565b604051808273ffffffffffffffffffffffffffffffffffffffff1673ffffffffffffffffffffffffffffffffffffffff16815260200191505060405180910390f35b34801561098157600080fd5b506109c46004803603602081101561099857600080fd5b81019080803573ffffffffffffffffffffffffffffffffffffffff169060200190929190505050612ea4565b005b3480156109d257600080fd5b50610a09600480360360408110156109e957600080fd5b810190808035906020019092919080359060200190929190505050612fab565b604051808273ffffffffffffffffffffffffffffffffffffffff1673ffffffffffffffffffffffffffffffffffffffff16815260200191505060405180910390f35b348015610a5757600080fd5b50610aa460048036036040811015610a6e57600080fd5b8101908080359060200190929190803573ffffffffffffffffffffffffffffffffffffffff169060200190929190505050612fdd565b604051808215151515815260200191505060405180910390f35b348015610aca57600080fd5b50610b1760048036036040811015610ae157600080fd5b8101908080359060200190929190803573ffffffffffffffffffffffffffffffffffffffff16906020019092919050505061300f565b005b348015610b2557600080fd5b50610b2e613225565b6040518082815260200191505060405180910390f35b348015610b5057600080fd5b50610b5961322c565b6040518080602001828103825283818151815260200191508051906020019080838360005b83811015610b99578082015181840152602081019050610b7e565b50505050905090810190601f168015610bc65780820380516001836020036101000a031916815260200191505b509250505060405180910390f35b348015610be057600080fd5b50610c0d60048036036020811015610bf757600080fd5b8101908080359060200190929190505050613501565b6040518082815260200191505060405180910390f35b348015610c2f57600080fd5b50610f6f600480360360e0811015610c4657600080fd5b8101908080359060200190929190803573ffffffffffffffffffffffffffffffffffffffff16906020019092919080359060200190640100000000811115610c8d57600080fd5b820183602082011115610c9f57600080fd5b80359060200191846001830284011164010000000083111715610cc157600080fd5b91908080601f016020809104026020016040519081016040528093929190818152602001838380828437600081840152601f19601f82011690508083019250505050505050919291929080359060200190640100000000811115610d2457600080fd5b820183602082011115610d3657600080fd5b80359060200191846001830284011164010000000083111715610d5857600080fd5b91908080601f016020809104026020016040519081016040528093929190818152602001838380828437600081840152601f19601f82011690508083019250505050505050919291929080359060200190640100000000811115610dbb57600080fd5b820183602082011115610dcd57600080fd5b80359060200191846001830284011164010000000083111715610def57600080fd5b91908080601f016020809104026020016040519081016040528093929190818152602001838380828437600081840152601f19601f82011690508083019250505050505050919291929080359060200190640100000000811115610e5257600080fd5b820183602082011115610e6457600080fd5b80359060200191846001830284011164010000000083111715610e8657600080fd5b91908080601f016020809104026020016040519081016040528093929190818152602001838380828437600081840152601f19601f82011690508083019250505050505050919291929080359060200190640100000000811115610ee957600080fd5b820183602082011115610efb57600080fd5b80359060200191846001830284011164010000000083111715610f1d57600080fd5b91908080601f016020809104026020016040519081016040528093929190818152602001838380828437600081840152601f19601f820116905080830192505050505050509192919290505050613528565b005b348015610f7d57600080fd5b50610fca60048036036040811015610f9457600080fd5b8101908080359060200190929190803573ffffffffffffffffffffffffffffffffffffffff169060200190929190505050613818565b005b610ff860048036036020811015610fe257600080fd5b81019080803590602001909291905050506138a2565b005b34801561100657600080fd5b506110336004803603602081101561101d57600080fd5b8101908080359060200190929190505050613c1f565b005b34801561104157600080fd5b5061104a613e9f565b6040518082815260200191505060405180910390f35b34801561106c57600080fd5b506110af6004803603602081101561108357600080fd5b81019080803573ffffffffffffffffffffffffffffffffffffffff169060200190929190505050613ed8565b005b3480156110bd57600080fd5b506110c66140e5565b6040518082815260200191505060405180910390f35b3480156110e857600080fd5b50611115600480360360208110156110ff57600080fd5b810190808035906020019092919050505061411e565b005b6000806000806000606080606080606061112f6147cb565b600560008d8152602001908152602001600020604051806101e001604052908160008201548152602001600182015481526020016002820160009054906101000a900473ffffffffffffffffffffffffffffffffffffffff1673ffffffffffffffffffffffffffffffffffffffff1673ffffffffffffffffffffffffffffffffffffffff1681526020016003820160009054906101000a900473ffffffffffffffffffffffffffffffffffffffff1673ffffffffffffffffffffffffffffffffffffffff1673ffffffffffffffffffffffffffffffffffffffff168152602001600482018054600181600116156101000203166002900480601f0160208091040260200160405190810160405280929190818152602001828054600181600116156101000203166002900480156112a75780601f1061127c576101008083540402835291602001916112a7565b820191906000526020600020905b81548152906001019060200180831161128a57829003601f168201915b50505050508152602001600582018054600181600116156101000203166002900480601f0160208091040260200160405190810160405280929190818152602001828054600181600116156101000203166002900480156113495780601f1061131e57610100808354040283529160200191611349565b820191906000526020600020905b81548152906001019060200180831161132c57829003601f168201915b50505050508152602001600682018054600181600116156101000203166002900480601f0160208091040260200160405190810160405280929190818152602001828054600181600116156101000203166002900480156113eb5780601f106113c0576101008083540402835291602001916113eb565b820191906000526020600020905b8154815290600101906020018083116113ce57829003601f168201915b50505050508152602001600782018054600181600116156101000203166002900480601f01602080910402602001604051908101604052809291908181526020018280546001816001161561010002031660029004801561148d5780601f106114625761010080835404028352916020019161148d565b820191906000526020600020905b81548152906001019060200180831161147057829003601f168201915b5050505050815260200160088201548152602001600982018054600181600116156101000203166002900480601f0160208091040260200160405190810160405280929190818152602001828054600181600116156101000203166002900480156115395780601f1061150e57610100808354040283529160200191611539565b820191906000526020600020905b81548152906001019060200180831161151c57829003601f168201915b50505050508152602001600a8201548152602001600b820160009054906101000a900460ff16600881111561156a57fe5b600881111561157557fe5b8152602001600b820160019054906101000a900473ffffffffffffffffffffffffffffffffffffffff1673ffffffffffffffffffffffffffffffffffffffff1673ffffffffffffffffffffffffffffffffffffffff168152602001600c820160009054906101000a900473ffffffffffffffffffffffffffffffffffffffff1673ffffffffffffffffffffffffffffffffffffffff1673ffffffffffffffffffffffffffffffffffffffff168152602001600d820160009054906101000a900473ffffffffffffffffffffffffffffffffffffffff1673ffffffffffffffffffffffffffffffffffffffff1673ffffffffffffffffffffffffffffffffffffffff1681525050905080600001519a5080602001519950806101600151600881111561169c57fe5b98508060400151975080606001519650806080015195508060a0015194508060c0015193508060e0015192508061012001519150509193959799509193959799565b60405180807f52455441494c45525f524f4c4500000000000000000000000000000000000000815250600d019050604051809103902081565b600060016000838152602001908152602001600020600201549050919050565b3361177760405180807f4449535452494255544f525f524f4c45000000000000000000000000000000008152506010019050604051809103902082612fdd565b6117e9576040517f08c379a00000000000000000000000000000000000000000000000000000000081526004018080602001828103825260188152602001807f4572726f723a204e6f742061206469737472696275746f72000000000000000081525060200191505060405180910390fd5b81600460088111156117f757fe5b600560006003548152602001908152602001600020600b0160009054906101000a900460ff16600881111561182857fe5b1461189b576040517f08c379a00000000000000000000000000000000000000000000000000000000081526004018080602001828103825260148152602001807f4572726f723a204974656d206e6f7420736f6c6400000000000000000000000081525060200191505060405180910390fd5b6005600084815260200190815260200160002060020160009054906101000a900473ffffffffffffffffffffffffffffffffffffffff168073ffffffffffffffffffffffffffffffffffffffff163373ffffffffffffffffffffffffffffffffffffffff1614611973576040517f08c379a000000000000000000000000000000000000000000000000000000000815260040180806020018281038252601b8152602001807f4572726f723a2043616c6c657220697320756e7665726966696564000000000081525060200191505060405180910390fd5b6005806000868152602001908152602001600020600b0160006101000a81548160ff021916908360088111156119a557fe5b02179055507ff00b9a5725b80c54016f42114f6ed7792d22eecb116011c4afac29c57bef6c95846040518082815260200191505060405180910390a150505050565b611a0e6001600084815260200190815260200160002060020154611a0961442d565b612fdd565b611a63576040517f08c379a000000000000000000000000000000000000000000000000000000000815260040180806020018281038252602f815260200180614982602f913960400191505060405180910390fd5b611a6d8282614435565b5050565b611a7961442d565b73ffffffffffffffffffffffffffffffffffffffff168173ffffffffffffffffffffffffffffffffffffffff1614611afc576040517f08c379a000000000000000000000000000000000000000000000000000000000815260040180806020018281038252602f815260200180614a2b602f913960400191505060405180910390fd5b611b0682826144c9565b5050565b600260009054906101000a900473ffffffffffffffffffffffffffffffffffffffff1673ffffffffffffffffffffffffffffffffffffffff163373ffffffffffffffffffffffffffffffffffffffff161415611b9b57600260009054906101000a900473ffffffffffffffffffffffffffffffffffffffff1673ffffffffffffffffffffffffffffffffffffffff16ff5b565b60405180807f434f4e53554d45525f524f4c4500000000000000000000000000000000000000815250600d019050604051809103902081565b600080600080600080611be76147cb565b60056000898152602001908152602001600020604051806101e001604052908160008201548152602001600182015481526020016002820160009054906101000a900473ffffffffffffffffffffffffffffffffffffffff1673ffffffffffffffffffffffffffffffffffffffff1673ffffffffffffffffffffffffffffffffffffffff1681526020016003820160009054906101000a900473ffffffffffffffffffffffffffffffffffffffff1673ffffffffffffffffffffffffffffffffffffffff1673ffffffffffffffffffffffffffffffffffffffff168152602001600482018054600181600116156101000203166002900480601f016020809104026020016040519081016040528092919081815260200182805460018160011615610100020316600290048015611d5f5780601f10611d3457610100808354040283529160200191611d5f565b820191906000526020600020905b815481529060010190602001808311611d4257829003601f168201915b50505050508152602001600582018054600181600116156101000203166002900480601f016020809104026020016040519081016040528092919081815260200182805460018160011615610100020316600290048015611e015780601f10611dd657610100808354040283529160200191611e01565b820191906000526020600020905b815481529060010190602001808311611de457829003601f168201915b50505050508152602001600682018054600181600116156101000203166002900480601f016020809104026020016040519081016040528092919081815260200182805460018160011615610100020316600290048015611ea35780601f10611e7857610100808354040283529160200191611ea3565b820191906000526020600020905b815481529060010190602001808311611e8657829003601f168201915b50505050508152602001600782018054600181600116156101000203166002900480601f016020809104026020016040519081016040528092919081815260200182805460018160011615610100020316600290048015611f455780601f10611f1a57610100808354040283529160200191611f45565b820191906000526020600020905b815481529060010190602001808311611f2857829003601f168201915b5050505050815260200160088201548152602001600982018054600181600116156101000203166002900480601f016020809104026020016040519081016040528092919081815260200182805460018160011615610100020316600290048015611ff15780601f10611fc657610100808354040283529160200191611ff1565b820191906000526020600020905b815481529060010190602001808311611fd457829003601f168201915b50505050508152602001600a8201548152602001600b820160009054906101000a900460ff16600881111561202257fe5b600881111561202d57fe5b8152602001600b820160019054906101000a900473ffffffffffffffffffffffffffffffffffffffff1673ffffffffffffffffffffffffffffffffffffffff1673ffffffffffffffffffffffffffffffffffffffff168152602001600c820160009054906101000a900473ffffffffffffffffffffffffffffffffffffffff1673ffffffffffffffffffffffffffffffffffffffff1673ffffffffffffffffffffffffffffffffffffffff168152602001600d820160009054906101000a900473ffffffffffffffffffffffffffffffffffffffff1673ffffffffffffffffffffffffffffffffffffffff1673ffffffffffffffffffffffffffffffffffffffff1681525050905080604001519650806060015195508061018001519450806101a001519350806101c001519250806101600151600881111561216c57fe5b91505091939550919395565b336121b860405180807f4641524d45525f524f4c45000000000000000000000000000000000000000000815250600b019050604051809103902082612fdd565b61222a576040517f08c379a00000000000000000000000000000000000000000000000000000000081526004018080602001828103825260138152602001807f4572726f723a204e6f742061206661726d65720000000000000000000000000081525060200191505060405180910390fd5b816001600881111561223857fe5b60056000838152602001908152602001600020600b0160009054906101000a900460ff16600881111561226757fe5b146122da576040517f08c379a000000000000000000000000000000000000000000000000000000000815260040180806020018281038252601d8152602001807f4572726f723a204974656d206e6f74207965742070726f63657373656400000081525060200191505060405180910390fd5b6005600084815260200190815260200160002060030160009054906101000a900473ffffffffffffffffffffffffffffffffffffffff168073ffffffffffffffffffffffffffffffffffffffff163373ffffffffffffffffffffffffffffffffffffffff16146123b2576040517f08c379a000000000000000000000000000000000000000000000000000000000815260040180806020018281038252601b8152602001807f4572726f723a2043616c6c657220697320756e7665726966696564000000000081525060200191505060405180910390fd5b600260056000868152602001908152602001600020600b0160006101000a81548160ff021916908360088111156123e557fe5b02179055507f9b3b66e2380b690bae22c73ef1428fb0c91e72fe14a4b6defa13035214187aff846040518082815260200191505060405180910390a150505050565b61242f61442d565b73ffffffffffffffffffffffffffffffffffffffff166000809054906101000a900473ffffffffffffffffffffffffffffffffffffffff1673ffffffffffffffffffffffffffffffffffffffff16146124f0576040517f08c379a00000000000000000000000000000000000000000000000000000000081526004018080602001828103825260208152602001807f4f776e61626c653a2063616c6c6572206973206e6f7420746865206f776e657281525060200191505060405180910390fd5b600073ffffffffffffffffffffffffffffffffffffffff166000809054906101000a900473ffffffffffffffffffffffffffffffffffffffff1673ffffffffffffffffffffffffffffffffffffffff167f8be0079c531659141344cd1fd0a4f28419497f9722a3daafe3b4186f6b6457e060405160405180910390a360008060006101000a81548173ffffffffffffffffffffffffffffffffffffffff021916908373ffffffffffffffffffffffffffffffffffffffff160217905550565b336125ef60405180807f4641524d45525f524f4c45000000000000000000000000000000000000000000815250600b019050604051809103902082612fdd565b612661576040517f08c379a00000000000000000000000000000000000000000000000000000000081526004018080602001828103825260138152602001807f4572726f723a204e6f742061206661726d65720000000000000000000000000081525060200191505060405180910390fd5b826002600881111561266f57fe5b60056000838152602001908152602001600020600b0160009054906101000a900460ff16600881111561269e57fe5b14612711576040517f08c379a000000000000000000000000000000000000000000000000000000000815260040180806020018281038252601a8152602001807f4572726f723a204974656d206e6f7420796574207061636b656400000000000081525060200191505060405180910390fd5b6005600085815260200190815260200160002060030160009054906101000a900473ffffffffffffffffffffffffffffffffffffffff168073ffffffffffffffffffffffffffffffffffffffff163373ffffffffffffffffffffffffffffffffffffffff16146127e9576040517f08c379a000000000000000000000000000000000000000000000000000000000815260040180806020018281038252601b8152602001807f4572726f723a2043616c6c657220697320756e7665726966696564000000000081525060200191505060405180910390fd5b8360056000878152602001908152602001600020600a0181905550600360056000878152602001908152602001600020600b0160006101000a81548160ff0219169083600881111561283757fe5b02179055507fd16250b7a63f912eba58c2af82d665f0cb0de94a70a63fcace34524b786cfed9856040518082815260200191505060405180910390a15050505050565b338073ffffffffffffffffffffffffffffffffffffffff16600260009054906101000a900473ffffffffffffffffffffffffffffffffffffffff1673ffffffffffffffffffffffffffffffffffffffff161461293e576040517f08c379a00000000000000000000000000000000000000000000000000000000081526004018080602001828103825260198152602001807f4572726f723a204e6f7420636f6e7472616374206f776e65720000000000000081525060200191505060405180910390fd5b61297d60405180807f4449535452494255544f525f524f4c450000000000000000000000000000000081525060100190506040518091039020836119e7565b5050565b336129c160405180807f4449535452494255544f525f524f4c45000000000000000000000000000000008152506010019050604051809103902082612fdd565b612a33576040517f08c379a00000000000000000000000000000000000000000000000000000000081526004018080602001828103825260188152602001807f4572726f723a204e6f742061206469737472696275746f72000000000000000081525060200191505060405180910390fd5b8160036008811115612a4157fe5b60056000838152602001908152602001600020600b0160009054906101000a900460ff166008811115612a7057fe5b14612ac6576040517f08c379a00000000000000000000000000000000000000000000000000000000081526004018080602001828103825260248152602001806149b16024913960400191505060405180910390fd5b60056000848152602001908152602001600020600a015480341015612b53576040517f08c379a00000000000000000000000000000000000000000000000000000000081526004018080602001828103825260168152602001807f4572726f723a204e6f7420656e6f75676820706169640000000000000000000081525060200191505060405180910390fd5b8333336005600088815260200190815260200160002060020160006101000a81548173ffffffffffffffffffffffffffffffffffffffff021916908373ffffffffffffffffffffffffffffffffffffffff1602179055503360056000888152602001908152602001600020600b0160016101000a81548173ffffffffffffffffffffffffffffffffffffffff021916908373ffffffffffffffffffffffffffffffffffffffff160217905550600460056000888152602001908152602001600020600b0160006101000a81548160ff02191690836008811115612c3257fe5b02179055506005600087815260200190815260200160002060030160009054906101000a900473ffffffffffffffffffffffffffffffffffffffff1673ffffffffffffffffffffffffffffffffffffffff166108fc60056000898152602001908152602001600020600a01549081150290604051600060405180830381858888f19350505050158015612cc9573d6000803e3d6000fd5b507f92f64ca637d023f354075a4be751b169c1a8a9ccb6d33cdd0cb3520543995727866040518082815260200191505060405180910390a1600060056000848152602001908152602001600020600a01549050600081340390508273ffffffffffffffffffffffffffffffffffffffff166108fc829081150290604051600060405180830381858888f19350505050158015612d69573d6000803e3d6000fd5b505050505050505050565b338073ffffffffffffffffffffffffffffffffffffffff16600260009054906101000a900473ffffffffffffffffffffffffffffffffffffffff1673ffffffffffffffffffffffffffffffffffffffff1614612e38576040517f08c379a00000000000000000000000000000000000000000000000000000000081526004018080602001828103825260198152602001807f4572726f723a204e6f7420636f6e7472616374206f776e65720000000000000081525060200191505060405180910390fd5b612e7760405180807f4641524d45525f524f4c45000000000000000000000000000000000000000000815250600b0190506040518091039020836119e7565b5050565b60008060009054906101000a900473ffffffffffffffffffffffffffffffffffffffff16905090565b338073ffffffffffffffffffffffffffffffffffffffff16600260009054906101000a900473ffffffffffffffffffffffffffffffffffffffff1673ffffffffffffffffffffffffffffffffffffffff1614612f68576040517f08c379a00000000000000000000000000000000000000000000000000000000081526004018080602001828103825260198152602001807f4572726f723a204e6f7420636f6e7472616374206f776e65720000000000000081525060200191505060405180910390fd5b612fa760405180807f52455441494c45525f524f4c4500000000000000000000000000000000000000815250600d0190506040518091039020836119e7565b5050565b6000612fd5826001600086815260200190815260200160002060000161455d90919063ffffffff16565b905092915050565b600061300782600160008681526020019081526020016000206000016143fd90919063ffffffff16565b905092915050565b3361304f60405180807f52455441494c45525f524f4c4500000000000000000000000000000000000000815250600d019050604051809103902082612fdd565b6130c1576040517f08c379a00000000000000000000000000000000000000000000000000000000081526004018080602001828103825260158152602001807f4572726f723a204e6f7420612072657461696c6572000000000000000000000081525060200191505060405180910390fd5b82600660088111156130cf57fe5b60056000838152602001908152602001600020600b0160009054906101000a900460ff1660088111156130fe57fe5b14613171576040517f08c379a00000000000000000000000000000000000000000000000000000000081526004018080602001828103825260188152602001807f4572726f723a204974656d206e6f74207265636569766564000000000000000081525060200191505060405180910390fd5b600760056000868152602001908152602001600020600b0160006101000a81548160ff021916908360088111156131a457fe5b02179055506131e860405180807f434f4e53554d45525f524f4c4500000000000000000000000000000000000000815250600d0190506040518091039020846119e7565b7ff4da425546dea8b9f96dc3e8d5884bf20b04876f8c2a6cd11bfdb240cdab35ce846040518082815260200191505060405180910390a150505050565b6000801b81565b606061326d60405180807f4641524d45525f524f4c45000000000000000000000000000000000000000000815250600b019050604051809103902033612fdd565b156132af576040518060400160405280600681526020017f6661726d6572000000000000000000000000000000000000000000000000000081525090506134fe565b6132ee60405180807f4449535452494255544f525f524f4c45000000000000000000000000000000008152506010019050604051809103902033612fdd565b15613330576040518060400160405280600b81526020017f6469737472696275746f7200000000000000000000000000000000000000000081525090506134fe565b61336f60405180807f52455441494c45525f524f4c4500000000000000000000000000000000000000815250600d019050604051809103902033612fdd565b156133b1576040518060400160405280600881526020017f72657461696c657200000000000000000000000000000000000000000000000081525090506134fe565b6133f060405180807f434f4e53554d45525f524f4c4500000000000000000000000000000000000000815250600d019050604051809103902033612fdd565b15613432576040518060400160405280600881526020017f636f6e73756d657200000000000000000000000000000000000000000000000081525090506134fe565b3373ffffffffffffffffffffffffffffffffffffffff16600260009054906101000a900473ffffffffffffffffffffffffffffffffffffffff1673ffffffffffffffffffffffffffffffffffffffff1614156134c5576040518060400160405280600581526020017f6f776e657200000000000000000000000000000000000000000000000000000081525090506134fe565b6040518060400160405280600481526020017f6e6f6e650000000000000000000000000000000000000000000000000000000081525090505b90565b600061352160016000848152602001908152602001600020600001614577565b9050919050565b3361356860405180807f4641524d45525f524f4c45000000000000000000000000000000000000000000815250600b019050604051809103902082612fdd565b6135da576040517f08c379a00000000000000000000000000000000000000000000000000000000081526004018080602001828103825260138152602001807f4572726f723a204e6f742061206661726d65720000000000000000000000000081525060200191505060405180910390fd5b600454600560008a81526020019081526020016000206000018190555087600560008a81526020019081526020016000206001018190555086600560008a815260200190815260200160002060030160006101000a81548173ffffffffffffffffffffffffffffffffffffffff021916908373ffffffffffffffffffffffffffffffffffffffff16021790555085600560008a815260200190815260200160002060040190805190602001906136919291906148ba565b5084600560008a815260200190815260200160002060050190805190602001906136bc9291906148ba565b5083600560008a815260200190815260200160002060060190805190602001906136e79291906148ba565b5082600560008a815260200190815260200160002060070190805190602001906137129291906148ba565b5081600560008a8152602001908152602001600020600901908051906020019061373d9291906148ba565b5086600560008a815260200190815260200160002060020160006101000a81548173ffffffffffffffffffffffffffffffffffffffff021916908373ffffffffffffffffffffffffffffffffffffffff1602179055506000600560008a8152602001908152602001600020600b0160006101000a81548160ff021916908360088111156137c657fe5b02179055507f8e55ccfc9778ff8eba1646d765cf1982537ce0f9257054a17b48aad745250183886040518082815260200191505060405180910390a16001600454016004819055505050505050505050565b61383f600160008481526020019081526020016000206002015461383a61442d565b612fdd565b613894576040517f08c379a00000000000000000000000000000000000000000000000000000000081526004018080602001828103825260308152602001806149fb6030913960400191505060405180910390fd5b61389e82826144c9565b5050565b336138e260405180807f434f4e53554d45525f524f4c4500000000000000000000000000000000000000815250600d019050604051809103902082612fdd565b613954576040517f08c379a00000000000000000000000000000000000000000000000000000000081526004018080602001828103825260158152602001807f4572726f723a204e6f74206120636f6e73756d6572000000000000000000000081525060200191505060405180910390fd5b816007600881111561396257fe5b60056000838152602001908152602001600020600b0160009054906101000a900460ff16600881111561399157fe5b14613a04576040517f08c379a000000000000000000000000000000000000000000000000000000000815260040180806020018281038252601b8152602001807f4572726f723a2053616c65206e6f7420696e697469616c697a6564000000000081525060200191505060405180910390fd5b60056000848152602001908152602001600020600a015480341015613a91576040517f08c379a00000000000000000000000000000000000000000000000000000000081526004018080602001828103825260168152602001807f4572726f723a204e6f7420656e6f75676820706169640000000000000000000081525060200191505060405180910390fd5b8333336005600088815260200190815260200160002060020160006101000a81548173ffffffffffffffffffffffffffffffffffffffff021916908373ffffffffffffffffffffffffffffffffffffffff1602179055503360056000888152602001908152602001600020600d0160006101000a81548173ffffffffffffffffffffffffffffffffffffffff021916908373ffffffffffffffffffffffffffffffffffffffff160217905550600860056000888152602001908152602001600020600b0160006101000a81548160ff02191690836008811115613b7057fe5b02179055507f4e08ba899977cf7d4c2964bce71c6b9a7ef76ee5166a4c1249a1e08016e33ef1866040518082815260200191505060405180910390a1600060056000848152602001908152602001600020600a01549050600081340390508273ffffffffffffffffffffffffffffffffffffffff166108fc829081150290604051600060405180830381858888f19350505050158015613c14573d6000803e3d6000fd5b505050505050505050565b33613c5f60405180807f52455441494c45525f524f4c4500000000000000000000000000000000000000815250600d019050604051809103902082612fdd565b613cd1576040517f08c379a00000000000000000000000000000000000000000000000000000000081526004018080602001828103825260158152602001807f4572726f723a204e6f7420612072657461696c6572000000000000000000000081525060200191505060405180910390fd5b8160056008811115613cdf57fe5b60056000838152602001908152602001600020600b0160009054906101000a900460ff166008811115613d0e57fe5b14613d81576040517f08c379a00000000000000000000000000000000000000000000000000000000081526004018080602001828103825260178152602001807f4572726f723a204974656d206e6f74207368697070656400000000000000000081525060200191505060405180910390fd5b336005600085815260200190815260200160002060020160006101000a81548173ffffffffffffffffffffffffffffffffffffffff021916908373ffffffffffffffffffffffffffffffffffffffff1602179055503360056000858152602001908152602001600020600c0160006101000a81548173ffffffffffffffffffffffffffffffffffffffff021916908373ffffffffffffffffffffffffffffffffffffffff160217905550600660056000858152602001908152602001600020600b0160006101000a81548160ff02191690836008811115613e5e57fe5b02179055507fa8142743f8f70a4c26f3691cf4ed59718381fb2f18070ec52be1f1022d855557836040518082815260200191505060405180910390a1505050565b60405180807f4449535452494255544f525f524f4c45000000000000000000000000000000008152506010019050604051809103902081565b613ee061442d565b73ffffffffffffffffffffffffffffffffffffffff166000809054906101000a900473ffffffffffffffffffffffffffffffffffffffff1673ffffffffffffffffffffffffffffffffffffffff1614613fa1576040517f08c379a00000000000000000000000000000000000000000000000000000000081526004018080602001828103825260208152602001807f4f776e61626c653a2063616c6c6572206973206e6f7420746865206f776e657281525060200191505060405180910390fd5b600073ffffffffffffffffffffffffffffffffffffffff168173ffffffffffffffffffffffffffffffffffffffff161415614027576040517f08c379a00000000000000000000000000000000000000000000000000000000081526004018080602001828103825260268152602001806149d56026913960400191505060405180910390fd5b8073ffffffffffffffffffffffffffffffffffffffff166000809054906101000a900473ffffffffffffffffffffffffffffffffffffffff1673ffffffffffffffffffffffffffffffffffffffff167f8be0079c531659141344cd1fd0a4f28419497f9722a3daafe3b4186f6b6457e060405160405180910390a3806000806101000a81548173ffffffffffffffffffffffffffffffffffffffff021916908373ffffffffffffffffffffffffffffffffffffffff16021790555050565b60405180807f4641524d45525f524f4c45000000000000000000000000000000000000000000815250600b019050604051809103902081565b3361415e60405180807f4641524d45525f524f4c45000000000000000000000000000000000000000000815250600b019050604051809103902082612fdd565b6141d0576040517f08c379a00000000000000000000000000000000000000000000000000000000081526004018080602001828103825260138152602001807f4572726f723a204e6f742061206661726d65720000000000000000000000000081525060200191505060405180910390fd5b81600060088111156141de57fe5b60056000838152602001908152602001600020600b0160009054906101000a900460ff16600881111561420d57fe5b14614280576040517f08c379a000000000000000000000000000000000000000000000000000000000815260040180806020018281038252601d8152602001807f4572726f723a204974656d206e6f74207965742068617276657374656400000081525060200191505060405180910390fd5b6005600084815260200190815260200160002060030160009054906101000a900473ffffffffffffffffffffffffffffffffffffffff168073ffffffffffffffffffffffffffffffffffffffff163373ffffffffffffffffffffffffffffffffffffffff1614614358576040517f08c379a000000000000000000000000000000000000000000000000000000000815260040180806020018281038252601b8152602001807f4572726f723a2043616c6c657220697320756e7665726966696564000000000081525060200191505060405180910390fd5b600160056000868152602001908152602001600020600b0160006101000a81548160ff0219169083600881111561438b57fe5b02179055507f5afe3b1bf87069693c075da5c22a98d63d1aef98a30dbbe538d0781a98b77ee5846040518082815260200191505060405180910390a150505050565b60006143f5836000018373ffffffffffffffffffffffffffffffffffffffff1660001b61458c565b905092915050565b6000614425836000018373ffffffffffffffffffffffffffffffffffffffff1660001b6145fc565b905092915050565b600033905090565b61445d81600160008581526020019081526020016000206000016143cd90919063ffffffff16565b156144c55761446a61442d565b73ffffffffffffffffffffffffffffffffffffffff168173ffffffffffffffffffffffffffffffffffffffff16837f2f8788117e7eff1d82e926ec794901d17c78024a50270940304540a733656f0d60405160405180910390a45b5050565b6144f1816001600085815260200190815260200160002060000161461f90919063ffffffff16565b15614559576144fe61442d565b73ffffffffffffffffffffffffffffffffffffffff168173ffffffffffffffffffffffffffffffffffffffff16837ff6391f5c32d9c69d2a47ea670b442974b53935d1edc7fd64eb21e047a839171b60405160405180910390a45b5050565b600061456c836000018361464f565b60001c905092915050565b6000614585826000016146d2565b9050919050565b600061459883836145fc565b6145f15782600001829080600181540180825580915050600190039060005260206000200160009091909190915055826000018054905083600101600084815260200190815260200160002081905550600190506145f6565b600090505b92915050565b600080836001016000848152602001908152602001600020541415905092915050565b6000614647836000018373ffffffffffffffffffffffffffffffffffffffff1660001b6146e3565b905092915050565b6000818360000180549050116146b0576040517f08c379a00000000000000000000000000000000000000000000000000000000081526004018080602001828103825260228152602001806149606022913960400191505060405180910390fd5b8260000182815481106146bf57fe5b9060005260206000200154905092915050565b600081600001805490509050919050565b600080836001016000848152602001908152602001600020549050600081146147bf576000600182039050600060018660000180549050039050600086600001828154811061472e57fe5b906000526020600020015490508087600001848154811061474b57fe5b906000526020600020018190555060018301876001016000838152602001908152602001600020819055508660000180548061478357fe5b600190038181906000526020600020016000905590558660010160008781526020019081526020016000206000905560019450505050506147c5565b60009150505b92915050565b604051806101e001604052806000815260200160008152602001600073ffffffffffffffffffffffffffffffffffffffff168152602001600073ffffffffffffffffffffffffffffffffffffffff168152602001606081526020016060815260200160608152602001606081526020016000815260200160608152602001600081526020016000600881111561485d57fe5b8152602001600073ffffffffffffffffffffffffffffffffffffffff168152602001600073ffffffffffffffffffffffffffffffffffffffff168152602001600073ffffffffffffffffffffffffffffffffffffffff1681525090565b828054600181600116156101000203166002900490600052602060002090601f016020900481019282601f106148fb57805160ff1916838001178555614929565b82800160010185558215614929579182015b8281111561492857825182559160200191906001019061490d565b5b509050614936919061493a565b5090565b61495c91905b80821115614958576000816000905550600101614940565b5090565b9056fe456e756d657261626c655365743a20696e646578206f7574206f6620626f756e6473416363657373436f6e74726f6c3a2073656e646572206d75737420626520616e2061646d696e20746f206772616e744572726f723a204974656d206e6f742079657420616464656420746f2070616c657474654f776e61626c653a206e6577206f776e657220697320746865207a65726f2061646472657373416363657373436f6e74726f6c3a2073656e646572206d75737420626520616e2061646d696e20746f207265766f6b65416363657373436f6e74726f6c3a2063616e206f6e6c792072656e6f756e636520726f6c657320666f722073656c66a2646970667358221220d4251f32ecd2b367cf9e411e64155b8a9a6ff9fc5fb8377e74c1fdde84923e8964736f6c634300060a0033416363657373436f6e74726f6c3a2073656e646572206d75737420626520616e2061646d696e20746f206772616e744572726f723a2041637469766520636861696e207061727469636970616e742063616e6e6f7420626520636f6e7472616374206f776e6572",
  "immutableReferences": {},
  "source": "// SPDX-License-Identifier: UNLICENSED\npragma solidity ^0.6.0;\nimport '../node_modules/@openzeppelin/contracts/access/Ownable.sol';\nimport '../node_modules/@openzeppelin/contracts/access/AccessControl.sol';\n\n\ncontract SupplyChain is Ownable, AccessControl {\n\n    address payable contractOwner;\n\n    bytes32 public constant FARMER_ROLE = keccak256('FARMER_ROLE');\n    bytes32 public constant DISTRIBUTOR_ROLE = keccak256('DISTRIBUTOR_ROLE');\n    bytes32 public constant RETAILER_ROLE = keccak256('RETAILER_ROLE');\n    bytes32 public constant CONSUMER_ROLE = keccak256('CONSUMER_ROLE');\n\n    uint upc;\n    uint sku;\n\n    mapping(uint => Item) items;\n    mapping(uint => string[]) itemHistory;\n\n    enum State {\n        Harvested,  // 0\n        Processed,  // 1\n        Packed,     // 2\n        AddedToPalette,    // 3\n        Sold,       // 4\n        Shipped,    // 5\n        Received,   // 6\n        SaleInitialized, // 7\n        Bought   // 8\n    }\n\n    State constant defaultState = State.Harvested;\n\n    struct Item {\n        uint    sku;  // Stock Keeping Unit (SKU)\n        uint    upc; // Universal Product Code (UPC), generated by the Farmer, goes on the package, can be verified by the Consumer\n        address payable ownerID;  // Metamask-Ethereum address of the current owner as the product moves through 8 stages\n        address payable originFarmerID; // Metamask-Ethereum address of the Farmer\n        string  originFarmName; // Farmer Name\n        string  originFarmInformation;  // Farmer Information\n        string  originFarmLatitude; // Farm Latitude\n        string  originFarmLongitude;  // Farm Longitude\n        uint    productID;  // Product ID potentially a combination of upc + sku\n        string  productName; // Product Notes\n        uint    productPrice; // Product Price\n        State   itemState;  // Product State as represented in the enum above\n        address payable distributorID;  // Metamask-Ethereum address of the Distributor\n        address payable retailerID; // Metamask-Ethereum address of the Retailer\n        address payable consumerID; // Metamask-Ethereum address of the Consumer\n    }\n\n    event Harvested(uint upc);\n    event Processed(uint upc);\n    event Packed(uint upc);\n    event AddedToPalette(uint upc);\n    event Sold(uint upc);\n    event Shipped(uint upc);\n    event Received(uint upc);\n    event SaleInitialized(uint upc);\n    event Bought(uint upc);\n\n    modifier verifyCaller (address _address) {\n        require(msg.sender == _address, 'Error: Caller is unverified');\n        _;\n    }\n    modifier paidEnough(uint _price) {\n        require(msg.value >= _price, 'Error: Not enough paid');\n        _;\n    }\n    modifier refundExcess(uint _upc, address payable _address) {\n        _;\n        uint _price = items[_upc].productPrice;\n        uint amountToReturn = msg.value - _price;\n        _address.transfer(amountToReturn);\n    }\n    modifier notContractOwner(address _address) {\n        require(contractOwner != _address, 'Error: Active chain participant cannot be contract owner');\n        _;\n    }\n    modifier onlyContractOwner(address _address) {\n        require(contractOwner == _address, 'Error: Not contract owner');\n        _;\n    }\n    modifier onlyFarmer(address _address) {\n        require(hasRole(FARMER_ROLE, _address), 'Error: Not a farmer');\n        _;\n    }\n    modifier onlyDistributor(address _address) {\n        require(hasRole(DISTRIBUTOR_ROLE, _address), 'Error: Not a distributor');\n        _;\n    }\n    modifier onlyRetailer(address _address) {\n        require(hasRole(RETAILER_ROLE, _address), 'Error: Not a retailer');\n        _;\n    }\n    modifier onlyConsumer(address _address) {\n        require(hasRole(CONSUMER_ROLE, _address), 'Error: Not a consumer');\n        _;\n    }\n    modifier harvested(uint _upc) {\n        require(items[_upc].itemState == State.Harvested, 'Error: Item not yet harvested');\n        _;\n    }\n    modifier processed(uint _upc) {\n        require(items[_upc].itemState == State.Processed, 'Error: Item not yet processed');\n        _;\n    }\n    modifier packed(uint _upc) {\n        require(items[_upc].itemState == State.Packed, 'Error: Item not yet packed');\n        _;\n    }\n    modifier addedToPalette(uint _upc) {\n        require(items[_upc].itemState == State.AddedToPalette, 'Error: Item not yet added to palette');\n        _;\n    }\n    modifier sold(uint _upc) {\n        require(items[upc].itemState == State.Sold, 'Error: Item not sold');\n        _;\n    }\n    modifier shipped(uint _upc) {\n        require(items[_upc].itemState == State.Shipped, 'Error: Item not shipped');\n        _;\n    }\n    modifier received(uint _upc) {\n        require(items[_upc].itemState == State.Received, 'Error: Item not received');\n        _;\n    }\n    modifier saleInitialized(uint _upc) {\n        require(items[_upc].itemState == State.SaleInitialized, 'Error: Sale not initialized');\n        _;\n    }\n    modifier bought(uint _upc) {\n        require(items[_upc].itemState == State.Bought, 'Error: Item not bought');\n        _;\n    }\n\n    constructor(\n    address initialFarmer,\n    address initialDistributor,\n    address initialRetailer\n    ) public payable notContractOwner(initialFarmer) notContractOwner(initialDistributor) notContractOwner(initialRetailer) {\n        _setupRole(DEFAULT_ADMIN_ROLE, msg.sender);\n        grantRole(FARMER_ROLE, initialFarmer);\n        grantRole(DISTRIBUTOR_ROLE, initialDistributor);\n        grantRole(RETAILER_ROLE, initialRetailer);\n        _setRoleAdmin(CONSUMER_ROLE, RETAILER_ROLE);\n        contractOwner = msg.sender;\n        sku = 1;\n        upc = 1;\n    }\n\n    function kill() public {\n        if (msg.sender == contractOwner) {\n            selfdestruct(contractOwner);\n        }\n    }\n\n    function addFarmer(\n    address payable farmer\n    )  public onlyContractOwner(msg.sender) {\n        grantRole(FARMER_ROLE, farmer);\n    }\n\n    function addDistributor(\n    address payable distributor\n    ) public onlyContractOwner(msg.sender) {\n        grantRole(DISTRIBUTOR_ROLE, distributor);\n    }\n\n    function addRetailer(\n    address payable retailer\n    ) public onlyContractOwner(msg.sender) {\n        grantRole(RETAILER_ROLE, retailer);\n    }\n\n    function getUserRole() public view returns (\n        string memory\n    ) {\n        if (hasRole(FARMER_ROLE, msg.sender)) return 'farmer';\n        if (hasRole(DISTRIBUTOR_ROLE, msg.sender)) return 'distributor';\n        if (hasRole(RETAILER_ROLE, msg.sender)) return 'retailer';\n        if (hasRole(CONSUMER_ROLE, msg.sender)) return 'consumer';\n        if (contractOwner == msg.sender) return 'owner';\n        return 'none';\n    }\n\n    function harvest(\n    uint _upc,\n    address payable _originFarmerId,\n    string memory _originFarmName,\n    string memory _originFarmInformation,\n    string  memory _originFarmLatitude,\n    string  memory _originFarmLongitude,\n    string  memory _productName\n    ) public onlyFarmer(msg.sender) {\n        items[_upc].sku = sku;\n        items[_upc].upc = _upc;\n        items[_upc].originFarmerID = _originFarmerId;\n        items[_upc].originFarmName = _originFarmName;\n        items[_upc].originFarmInformation = _originFarmInformation;\n        items[_upc].originFarmLatitude = _originFarmLatitude;\n        items[_upc].originFarmLongitude = _originFarmLongitude;\n        items[_upc].productName = _productName;\n        items[_upc].ownerID = _originFarmerId;\n        items[_upc].itemState = State.Harvested;\n        emit Harvested(_upc);\n        sku = sku + 1;\n    }\n\n    function process(\n    uint _upc\n    ) public onlyFarmer(msg.sender) harvested(_upc) verifyCaller(items[_upc].originFarmerID) {\n        items[_upc].itemState = State.Processed;\n        emit Processed(_upc);\n    }\n\n    function pack(\n    uint _upc\n    ) public onlyFarmer(msg.sender) processed(_upc) verifyCaller(items[_upc].originFarmerID) {\n        items[_upc].itemState = State.Packed;\n        emit Packed(_upc);\n    }\n\n    function addToPalette(\n    uint _upc,\n    uint _productPrice\n    )  public onlyFarmer(msg.sender) packed(_upc) verifyCaller(items[_upc].originFarmerID) {\n        items[_upc].productPrice = _productPrice;\n        items[_upc].itemState = State.AddedToPalette;\n        emit AddedToPalette(_upc);\n    }\n\n    function buyPalette(\n    uint _upc\n    ) public payable onlyDistributor(msg.sender) addedToPalette(_upc) paidEnough(items[_upc].productPrice) refundExcess(_upc, msg.sender) {\n        items[_upc].ownerID = msg.sender;\n        items[_upc].distributorID = msg.sender;\n        items[_upc].itemState = State.Sold;\n        items[_upc].originFarmerID.transfer(items[_upc].productPrice);\n        emit Sold(_upc);\n    }\n\n    function shipPalette(\n    uint _upc\n    ) public onlyDistributor(msg.sender)  sold(_upc) verifyCaller(items[_upc].ownerID) {\n        items[_upc].itemState = State.Shipped;\n        emit Shipped(_upc);\n    }\n\n    function receivePalette(\n    uint _upc\n    ) public onlyRetailer(msg.sender) shipped(_upc) {\n        items[_upc].ownerID = msg.sender;\n        items[_upc].retailerID = msg.sender;\n        items[_upc].itemState = State.Received;\n        emit Received(_upc);\n    }\n\n    function initializeSale(\n    uint _upc,\n    address _consumerID\n    ) public onlyRetailer(msg.sender) received(_upc) {\n        items[_upc].itemState = State.SaleInitialized;\n        grantRole(CONSUMER_ROLE, _consumerID);\n        emit SaleInitialized(_upc);\n    }\n\n    function buy(\n    uint _upc\n    ) public payable onlyConsumer(msg.sender) saleInitialized(_upc) paidEnough(items[_upc].productPrice) refundExcess(_upc, msg.sender) {\n        items[_upc].ownerID = msg.sender;\n        items[_upc].consumerID = msg.sender;\n        items[_upc].itemState = State.Bought;\n        emit Bought(_upc);\n    }\n\n    function fetchProduct(\n    uint _upc\n    ) public view returns (\n    uint itemSKU,\n    uint itemUPC,\n    uint itemState,\n    address ownerID,\n    address originFarmerID,\n    string memory originFarmName,\n    string memory originFarmInformation,\n    string memory originFarmLatitude,\n    string memory originFarmLongitude,\n    string memory productName\n    ) {\n        Item memory item = items[_upc];\n\n        itemSKU = item.sku;\n        itemUPC = item.upc;\n        itemState = uint(item.itemState);\n        ownerID = item.ownerID;\n        originFarmerID = item.originFarmerID;\n        originFarmName = item.originFarmName;\n        originFarmInformation = item.originFarmInformation;\n        originFarmLatitude = item.originFarmLatitude;\n        originFarmLongitude = item.originFarmLongitude;\n        productName = item.productName;\n    }\n\n    function fetchProductHistory(\n    uint _upc\n    ) public view returns (\n    address ownerID,\n    address originFarmerID,\n    address distributorID,\n    address retailerID,\n    address consumerID,\n    uint itemState\n    ) {\n        Item memory item = items[_upc];\n\n        ownerID = item.ownerID;\n        originFarmerID = item.originFarmerID;\n        distributorID = item.distributorID;\n        retailerID = item.retailerID;\n        consumerID = item.consumerID;\n        itemState = uint(item.itemState);\n    }\n}",
  "sourcePath": "/Users/sameer/CoffeeBeanSupplyChain/contracts/SupplyChain.sol",
  "compiler": {
    "name": "solc",
    "version": "0.6.10+commit.00c0fcaf.Emscripten.clang"
  },
  "schemaVersion": "3.1.0",
  "updatedAt": "2020-06-16T10:43:40.666Z",
  "networkType": "quorum",
  "devdoc": {
    "methods": {
      "getRoleAdmin(bytes32)": {
        "details": "Returns the admin role that controls `role`. See {grantRole} and {revokeRole}. To change a role's admin, use {_setRoleAdmin}."
      },
      "getRoleMember(bytes32,uint256)": {
        "details": "Returns one of the accounts that have `role`. `index` must be a value between 0 and {getRoleMemberCount}, non-inclusive. Role bearers are not sorted in any particular way, and their ordering may change at any point. WARNING: When using {getRoleMember} and {getRoleMemberCount}, make sure you perform all queries on the same block. See the following https://forum.openzeppelin.com/t/iterating-over-elements-on-enumerableset-in-openzeppelin-contracts/2296[forum post] for more information."
      },
      "getRoleMemberCount(bytes32)": {
        "details": "Returns the number of accounts that have `role`. Can be used together with {getRoleMember} to enumerate all bearers of a role."
      },
      "grantRole(bytes32,address)": {
        "details": "Grants `role` to `account`. If `account` had not been already granted `role`, emits a {RoleGranted} event. Requirements: - the caller must have ``role``'s admin role."
      },
      "hasRole(bytes32,address)": {
        "details": "Returns `true` if `account` has been granted `role`."
      },
      "owner()": {
        "details": "Returns the address of the current owner."
      },
      "renounceOwnership()": {
        "details": "Leaves the contract without owner. It will not be possible to call `onlyOwner` functions anymore. Can only be called by the current owner. NOTE: Renouncing ownership will leave the contract without an owner, thereby removing any functionality that is only available to the owner."
      },
      "renounceRole(bytes32,address)": {
        "details": "Revokes `role` from the calling account. Roles are often managed via {grantRole} and {revokeRole}: this function's purpose is to provide a mechanism for accounts to lose their privileges if they are compromised (such as when a trusted device is misplaced). If the calling account had been granted `role`, emits a {RoleRevoked} event. Requirements: - the caller must be `account`."
      },
      "revokeRole(bytes32,address)": {
        "details": "Revokes `role` from `account`. If `account` had been granted `role`, emits a {RoleRevoked} event. Requirements: - the caller must have ``role``'s admin role."
      },
      "transferOwnership(address)": {
        "details": "Transfers ownership of the contract to a new account (`newOwner`). Can only be called by the current owner."
      }
    }
  },
  "userdoc": {
    "methods": {}
  }
}