{
  "contractName": "SupplyChain",
  "abi": [
    {
      "inputs": [
        {
          "internalType": "address",
          "name": "initialFarmer",
          "type": "address"
        },
        {
          "internalType": "address",
          "name": "initialDistributor",
          "type": "address"
        },
        {
          "internalType": "address",
          "name": "initialRetailer",
          "type": "address"
        }
      ],
      "stateMutability": "payable",
      "type": "constructor",
      "payable": true
    },
    {
      "anonymous": false,
      "inputs": [
        {
          "indexed": false,
          "internalType": "bytes32",
          "name": "upc",
          "type": "bytes32"
        }
      ],
      "name": "AddedToPalette",
      "type": "event"
    },
    {
      "anonymous": false,
      "inputs": [
        {
          "indexed": false,
          "internalType": "bytes32",
          "name": "upc",
          "type": "bytes32"
        }
      ],
      "name": "Bought",
      "type": "event"
    },
    {
      "anonymous": false,
      "inputs": [
        {
          "indexed": false,
          "internalType": "bytes32",
          "name": "upc",
          "type": "bytes32"
        }
      ],
      "name": "Harvested",
      "type": "event"
    },
    {
      "anonymous": false,
      "inputs": [
        {
          "indexed": true,
          "internalType": "address",
          "name": "previousOwner",
          "type": "address"
        },
        {
          "indexed": true,
          "internalType": "address",
          "name": "newOwner",
          "type": "address"
        }
      ],
      "name": "OwnershipTransferred",
      "type": "event"
    },
    {
      "anonymous": false,
      "inputs": [
        {
          "indexed": false,
          "internalType": "bytes32",
          "name": "upc",
          "type": "bytes32"
        }
      ],
      "name": "Packed",
      "type": "event"
    },
    {
      "anonymous": false,
      "inputs": [
        {
          "indexed": false,
          "internalType": "bytes32",
          "name": "upc",
          "type": "bytes32"
        }
      ],
      "name": "Processed",
      "type": "event"
    },
    {
      "anonymous": false,
      "inputs": [
        {
          "indexed": false,
          "internalType": "bytes32",
          "name": "upc",
          "type": "bytes32"
        }
      ],
      "name": "Received",
      "type": "event"
    },
    {
      "anonymous": false,
      "inputs": [
        {
          "indexed": true,
          "internalType": "bytes32",
          "name": "role",
          "type": "bytes32"
        },
        {
          "indexed": true,
          "internalType": "address",
          "name": "account",
          "type": "address"
        },
        {
          "indexed": true,
          "internalType": "address",
          "name": "sender",
          "type": "address"
        }
      ],
      "name": "RoleGranted",
      "type": "event"
    },
    {
      "anonymous": false,
      "inputs": [
        {
          "indexed": true,
          "internalType": "bytes32",
          "name": "role",
          "type": "bytes32"
        },
        {
          "indexed": true,
          "internalType": "address",
          "name": "account",
          "type": "address"
        },
        {
          "indexed": true,
          "internalType": "address",
          "name": "sender",
          "type": "address"
        }
      ],
      "name": "RoleRevoked",
      "type": "event"
    },
    {
      "anonymous": false,
      "inputs": [
        {
          "indexed": false,
          "internalType": "bytes32",
          "name": "upc",
          "type": "bytes32"
        }
      ],
      "name": "SaleInitialized",
      "type": "event"
    },
    {
      "anonymous": false,
      "inputs": [
        {
          "indexed": false,
          "internalType": "bytes32",
          "name": "upc",
          "type": "bytes32"
        }
      ],
      "name": "Shipped",
      "type": "event"
    },
    {
      "anonymous": false,
      "inputs": [
        {
          "indexed": false,
          "internalType": "bytes32",
          "name": "upc",
          "type": "bytes32"
        }
      ],
      "name": "Sold",
      "type": "event"
    },
    {
      "inputs": [],
      "name": "CONSUMER_ROLE",
      "outputs": [
        {
          "internalType": "bytes32",
          "name": "",
          "type": "bytes32"
        }
      ],
      "stateMutability": "view",
      "type": "function",
      "constant": true
    },
    {
      "inputs": [],
      "name": "DEFAULT_ADMIN_ROLE",
      "outputs": [
        {
          "internalType": "bytes32",
          "name": "",
          "type": "bytes32"
        }
      ],
      "stateMutability": "view",
      "type": "function",
      "constant": true
    },
    {
      "inputs": [],
      "name": "DISTRIBUTOR_ROLE",
      "outputs": [
        {
          "internalType": "bytes32",
          "name": "",
          "type": "bytes32"
        }
      ],
      "stateMutability": "view",
      "type": "function",
      "constant": true
    },
    {
      "inputs": [],
      "name": "FARMER_ROLE",
      "outputs": [
        {
          "internalType": "bytes32",
          "name": "",
          "type": "bytes32"
        }
      ],
      "stateMutability": "view",
      "type": "function",
      "constant": true
    },
    {
      "inputs": [],
      "name": "RETAILER_ROLE",
      "outputs": [
        {
          "internalType": "bytes32",
          "name": "",
          "type": "bytes32"
        }
      ],
      "stateMutability": "view",
      "type": "function",
      "constant": true
    },
    {
      "inputs": [
        {
          "internalType": "bytes32",
          "name": "role",
          "type": "bytes32"
        }
      ],
      "name": "getRoleAdmin",
      "outputs": [
        {
          "internalType": "bytes32",
          "name": "",
          "type": "bytes32"
        }
      ],
      "stateMutability": "view",
      "type": "function",
      "constant": true
    },
    {
      "inputs": [
        {
          "internalType": "bytes32",
          "name": "role",
          "type": "bytes32"
        },
        {
          "internalType": "uint256",
          "name": "index",
          "type": "uint256"
        }
      ],
      "name": "getRoleMember",
      "outputs": [
        {
          "internalType": "address",
          "name": "",
          "type": "address"
        }
      ],
      "stateMutability": "view",
      "type": "function",
      "constant": true
    },
    {
      "inputs": [
        {
          "internalType": "bytes32",
          "name": "role",
          "type": "bytes32"
        }
      ],
      "name": "getRoleMemberCount",
      "outputs": [
        {
          "internalType": "uint256",
          "name": "",
          "type": "uint256"
        }
      ],
      "stateMutability": "view",
      "type": "function",
      "constant": true
    },
    {
      "inputs": [
        {
          "internalType": "bytes32",
          "name": "role",
          "type": "bytes32"
        },
        {
          "internalType": "address",
          "name": "account",
          "type": "address"
        }
      ],
      "name": "grantRole",
      "outputs": [],
      "stateMutability": "nonpayable",
      "type": "function"
    },
    {
      "inputs": [
        {
          "internalType": "bytes32",
          "name": "role",
          "type": "bytes32"
        },
        {
          "internalType": "address",
          "name": "account",
          "type": "address"
        }
      ],
      "name": "hasRole",
      "outputs": [
        {
          "internalType": "bool",
          "name": "",
          "type": "bool"
        }
      ],
      "stateMutability": "view",
      "type": "function",
      "constant": true
    },
    {
      "inputs": [],
      "name": "owner",
      "outputs": [
        {
          "internalType": "address",
          "name": "",
          "type": "address"
        }
      ],
      "stateMutability": "view",
      "type": "function",
      "constant": true
    },
    {
      "inputs": [],
      "name": "renounceOwnership",
      "outputs": [],
      "stateMutability": "nonpayable",
      "type": "function"
    },
    {
      "inputs": [
        {
          "internalType": "bytes32",
          "name": "role",
          "type": "bytes32"
        },
        {
          "internalType": "address",
          "name": "account",
          "type": "address"
        }
      ],
      "name": "renounceRole",
      "outputs": [],
      "stateMutability": "nonpayable",
      "type": "function"
    },
    {
      "inputs": [
        {
          "internalType": "bytes32",
          "name": "role",
          "type": "bytes32"
        },
        {
          "internalType": "address",
          "name": "account",
          "type": "address"
        }
      ],
      "name": "revokeRole",
      "outputs": [],
      "stateMutability": "nonpayable",
      "type": "function"
    },
    {
      "inputs": [
        {
          "internalType": "address",
          "name": "newOwner",
          "type": "address"
        }
      ],
      "name": "transferOwnership",
      "outputs": [],
      "stateMutability": "nonpayable",
      "type": "function"
    },
    {
      "inputs": [],
      "name": "kill",
      "outputs": [],
      "stateMutability": "nonpayable",
      "type": "function"
    },
    {
      "inputs": [
        {
          "internalType": "address payable",
          "name": "farmer",
          "type": "address"
        }
      ],
      "name": "addFarmer",
      "outputs": [],
      "stateMutability": "nonpayable",
      "type": "function"
    },
    {
      "inputs": [
        {
          "internalType": "address payable",
          "name": "distributor",
          "type": "address"
        }
      ],
      "name": "addDistributor",
      "outputs": [],
      "stateMutability": "nonpayable",
      "type": "function"
    },
    {
      "inputs": [
        {
          "internalType": "address payable",
          "name": "retailer",
          "type": "address"
        }
      ],
      "name": "addRetailer",
      "outputs": [],
      "stateMutability": "nonpayable",
      "type": "function"
    },
    {
      "inputs": [],
      "name": "getUserRole",
      "outputs": [
        {
          "internalType": "string",
          "name": "",
          "type": "string"
        }
      ],
      "stateMutability": "view",
      "type": "function",
      "constant": true
    },
    {
      "inputs": [
        {
          "internalType": "address payable",
          "name": "_originFarmerId",
          "type": "address"
        },
        {
          "internalType": "string",
          "name": "_originFarmName",
          "type": "string"
        },
        {
          "internalType": "string",
          "name": "_originFarmInformation",
          "type": "string"
        },
        {
          "internalType": "string",
          "name": "_originFarmLatitude",
          "type": "string"
        },
        {
          "internalType": "string",
          "name": "_originFarmLongitude",
          "type": "string"
        },
        {
          "internalType": "string",
          "name": "_productName",
          "type": "string"
        }
      ],
      "name": "harvest",
      "outputs": [],
      "stateMutability": "nonpayable",
      "type": "function"
    },
    {
      "inputs": [
        {
          "internalType": "uint256",
          "name": "_upc",
          "type": "uint256"
        }
      ],
      "name": "process",
      "outputs": [],
      "stateMutability": "nonpayable",
      "type": "function"
    },
    {
      "inputs": [
        {
          "internalType": "uint256",
          "name": "_upc",
          "type": "uint256"
        }
      ],
      "name": "pack",
      "outputs": [],
      "stateMutability": "nonpayable",
      "type": "function"
    },
    {
      "inputs": [
        {
          "internalType": "uint256",
          "name": "_upc",
          "type": "uint256"
        },
        {
          "internalType": "uint256",
          "name": "_productPrice",
          "type": "uint256"
        }
      ],
      "name": "addToPalette",
      "outputs": [],
      "stateMutability": "nonpayable",
      "type": "function"
    },
    {
      "inputs": [
        {
          "internalType": "uint256",
          "name": "_upc",
          "type": "uint256"
        }
      ],
      "name": "buyPalette",
      "outputs": [],
      "stateMutability": "payable",
      "type": "function",
      "payable": true
    },
    {
      "inputs": [
        {
          "internalType": "uint256",
          "name": "_upc",
          "type": "uint256"
        }
      ],
      "name": "shipPalette",
      "outputs": [],
      "stateMutability": "nonpayable",
      "type": "function"
    },
    {
      "inputs": [
        {
          "internalType": "uint256",
          "name": "_upc",
          "type": "uint256"
        }
      ],
      "name": "receivePalette",
      "outputs": [],
      "stateMutability": "nonpayable",
      "type": "function"
    },
    {
      "inputs": [
        {
          "internalType": "uint256",
          "name": "_upc",
          "type": "uint256"
        },
        {
          "internalType": "address",
          "name": "_consumerID",
          "type": "address"
        }
      ],
      "name": "initializeSale",
      "outputs": [],
      "stateMutability": "nonpayable",
      "type": "function"
    },
    {
      "inputs": [
        {
          "internalType": "uint256",
          "name": "_upc",
          "type": "uint256"
        }
      ],
      "name": "buy",
      "outputs": [],
      "stateMutability": "payable",
      "type": "function",
      "payable": true
    },
    {
      "inputs": [
        {
          "internalType": "uint256",
          "name": "_upc",
          "type": "uint256"
        }
      ],
      "name": "fetchProduct",
      "outputs": [
        {
          "internalType": "uint256",
          "name": "itemSKU",
          "type": "uint256"
        },
        {
          "internalType": "uint256",
          "name": "itemUPC",
          "type": "uint256"
        },
        {
          "internalType": "uint256",
          "name": "itemState",
          "type": "uint256"
        },
        {
          "internalType": "address",
          "name": "ownerID",
          "type": "address"
        },
        {
          "internalType": "address",
          "name": "originFarmerID",
          "type": "address"
        },
        {
          "internalType": "string",
          "name": "originFarmName",
          "type": "string"
        },
        {
          "internalType": "string",
          "name": "originFarmInformation",
          "type": "string"
        },
        {
          "internalType": "string",
          "name": "originFarmLatitude",
          "type": "string"
        },
        {
          "internalType": "string",
          "name": "originFarmLongitude",
          "type": "string"
        },
        {
          "internalType": "string",
          "name": "productName",
          "type": "string"
        }
      ],
      "stateMutability": "view",
      "type": "function",
      "constant": true
    },
    {
      "inputs": [
        {
          "internalType": "uint256",
          "name": "_upc",
          "type": "uint256"
        }
      ],
      "name": "fetchProductHistory",
      "outputs": [
        {
          "internalType": "address",
          "name": "ownerID",
          "type": "address"
        },
        {
          "internalType": "address",
          "name": "originFarmerID",
          "type": "address"
        },
        {
          "internalType": "address",
          "name": "distributorID",
          "type": "address"
        },
        {
          "internalType": "address",
          "name": "retailerID",
          "type": "address"
        },
        {
          "internalType": "address",
          "name": "consumerID",
          "type": "address"
        },
        {
          "internalType": "uint256",
          "name": "itemState",
          "type": "uint256"
        }
      ],
      "stateMutability": "view",
      "type": "function",
      "constant": true
    }
  ],
  "bytecode": "0x608060405260405162005aa538038062005aa5833981810160405260608110156200002957600080fd5b81019080805190602001909291908051906020019092919080519060200190929190505050600062000060620004b760201b60201c565b9050806000806101000a81548173ffffffffffffffffffffffffffffffffffffffff021916908373ffffffffffffffffffffffffffffffffffffffff1602179055508073ffffffffffffffffffffffffffffffffffffffff16600073ffffffffffffffffffffffffffffffffffffffff167f8be0079c531659141344cd1fd0a4f28419497f9722a3daafe3b4186f6b6457e060405160405180910390a350828073ffffffffffffffffffffffffffffffffffffffff16600260009054906101000a900473ffffffffffffffffffffffffffffffffffffffff1673ffffffffffffffffffffffffffffffffffffffff161415620001a8576040517f08c379a000000000000000000000000000000000000000000000000000000000815260040180806020018281038252603881526020018062005a6d6038913960400191505060405180910390fd5b828073ffffffffffffffffffffffffffffffffffffffff16600260009054906101000a900473ffffffffffffffffffffffffffffffffffffffff1673ffffffffffffffffffffffffffffffffffffffff16141562000252576040517f08c379a000000000000000000000000000000000000000000000000000000000815260040180806020018281038252603881526020018062005a6d6038913960400191505060405180910390fd5b828073ffffffffffffffffffffffffffffffffffffffff16600260009054906101000a900473ffffffffffffffffffffffffffffffffffffffff1673ffffffffffffffffffffffffffffffffffffffff161415620002fc576040517f08c379a000000000000000000000000000000000000000000000000000000000815260040180806020018281038252603881526020018062005a6d6038913960400191505060405180910390fd5b620003116000801b33620004bf60201b60201c565b6200035860405180807f4641524d45525f524f4c45000000000000000000000000000000000000000000815250600b019050604051809103902087620004d560201b60201c565b6200039f60405180807f4449535452494255544f525f524f4c45000000000000000000000000000000008152506010019050604051809103902086620004d560201b60201c565b620003e660405180807f52455441494c45525f524f4c4500000000000000000000000000000000000000815250600d019050604051809103902085620004d560201b60201c565b6200046260405180807f434f4e53554d45525f524f4c4500000000000000000000000000000000000000815250600d019050604051809103902060405180807f52455441494c45525f524f4c4500000000000000000000000000000000000000815250600d01905060405180910390206200057960201b60201c565b33600260006101000a81548173ffffffffffffffffffffffffffffffffffffffff021916908373ffffffffffffffffffffffffffffffffffffffff160217905550600160038190555050505050505062000782565b600033905090565b620004d182826200059860201b60201c565b5050565b6200050c600160008481526020019081526020016000206002015462000500620004b760201b60201c565b6200063c60201b60201c565b62000563576040517f08c379a000000000000000000000000000000000000000000000000000000000815260040180806020018281038252602f81526020018062005a3e602f913960400191505060405180910390fd5b6200057582826200059860201b60201c565b5050565b8060016000848152602001908152602001600020600201819055505050565b620005c781600160008581526020019081526020016000206000016200067560201b62004bee1790919060201c565b156200063857620005dd620004b760201b60201c565b73ffffffffffffffffffffffffffffffffffffffff168173ffffffffffffffffffffffffffffffffffffffff16837f2f8788117e7eff1d82e926ec794901d17c78024a50270940304540a733656f0d60405160405180910390a45b5050565b60006200066d8260016000868152602001908152602001600020600001620006ad60201b62004c1e1790919060201c565b905092915050565b6000620006a5836000018373ffffffffffffffffffffffffffffffffffffffff1660001b620006e560201b60201c565b905092915050565b6000620006dd836000018373ffffffffffffffffffffffffffffffffffffffff1660001b6200075f60201b60201c565b905092915050565b6000620006f983836200075f60201b60201c565b6200075457826000018290806001815401808255809150506001900390600052602060002001600090919091909150558260000180549050836001016000848152602001908152602001600020819055506001905062000759565b600090505b92915050565b600080836001016000848152602001908152602001600020541415905092915050565b6152ac80620007926000396000f3fe6080604052600436106101d85760003560e01c80638da5cb5b11610102578063ca15c87311610095578063f0bd87cc11610064578063f0bd87cc1461102b578063f2fde38b14611056578063f3943970146110a7578063ffb2c479146110d2576101d8565b8063ca15c87314610f18578063d547741f14610f67578063d96a094a14610fc2578063e2ffcda114610ff0576101d8565b806396cf0cfd116100d157806396cf0cfd14610abe578063a217fddf14610b19578063a2899e4214610b44578063bf04a10d14610e88576101d8565b80638da5cb5b1461091e5780638ec4f505146109755780639010d07c146109c657806391d1485414610a4b576101d8565b80634bc02da61161017a578063715892941161014957806371589294146108095780637250e2241461084e578063752fbd041461089f57806380c3f96d146108cd576101d8565b80634bc02da61461063e5780636b156a78146106695780636ea42555146107b7578063715018a6146107f2576101d8565b80632820443f116101b65780632820443f146105365780632f2ff15d1461057157806336568abe146105cc57806341c0e1b514610627576101d8565b80630cb28a53146101dd5780632115e7bf146104bc578063248a9ca3146104e7575b600080fd5b3480156101e957600080fd5b506102166004803603602081101561020057600080fd5b810190808035906020019092919050505061110d565b604051808b81526020018a81526020018981526020018873ffffffffffffffffffffffffffffffffffffffff1673ffffffffffffffffffffffffffffffffffffffff1681526020018773ffffffffffffffffffffffffffffffffffffffff1673ffffffffffffffffffffffffffffffffffffffff168152602001806020018060200180602001806020018060200186810386528b818151815260200191508051906020019080838360005b838110156102dc5780820151818401526020810190506102c1565b50505050905090810190601f1680156103095780820380516001836020036101000a031916815260200191505b5086810385528a818151815260200191508051906020019080838360005b83811015610342578082015181840152602081019050610327565b50505050905090810190601f16801561036f5780820380516001836020036101000a031916815260200191505b50868103845289818151815260200191508051906020019080838360005b838110156103a857808201518184015260208101905061038d565b50505050905090810190601f1680156103d55780820380516001836020036101000a031916815260200191505b50868103835288818151815260200191508051906020019080838360005b8381101561040e5780820151818401526020810190506103f3565b50505050905090810190601f16801561043b5780820380516001836020036101000a031916815260200191505b50868103825287818151815260200191508051906020019080838360005b83811015610474578082015181840152602081019050610459565b50505050905090810190601f1680156104a15780820380516001836020036101000a031916815260200191505b509f5050505050505050505050505050505060405180910390f35b3480156104c857600080fd5b506104d16116f0565b6040518082815260200191505060405180910390f35b3480156104f357600080fd5b506105206004803603602081101561050a57600080fd5b8101908080359060200190929190505050611729565b6040518082815260200191505060405180910390f35b34801561054257600080fd5b5061056f6004803603602081101561055957600080fd5b8101908080359060200190929190505050611749565b005b34801561057d57600080fd5b506105ca6004803603604081101561059457600080fd5b8101908080359060200190929190803573ffffffffffffffffffffffffffffffffffffffff169060200190929190505050611a90565b005b3480156105d857600080fd5b50610625600480360360408110156105ef57600080fd5b8101908080359060200190929190803573ffffffffffffffffffffffffffffffffffffffff169060200190929190505050611b1a565b005b34801561063357600080fd5b5061063c611bb3565b005b34801561064a57600080fd5b50610653611c46565b6040518082815260200191505060405180910390f35b34801561067557600080fd5b506106a26004803603602081101561068c57600080fd5b8101908080359060200190929190505050611c7f565b604051808773ffffffffffffffffffffffffffffffffffffffff1673ffffffffffffffffffffffffffffffffffffffff1681526020018673ffffffffffffffffffffffffffffffffffffffff1673ffffffffffffffffffffffffffffffffffffffff1681526020018573ffffffffffffffffffffffffffffffffffffffff1673ffffffffffffffffffffffffffffffffffffffff1681526020018473ffffffffffffffffffffffffffffffffffffffff1673ffffffffffffffffffffffffffffffffffffffff1681526020018373ffffffffffffffffffffffffffffffffffffffff1673ffffffffffffffffffffffffffffffffffffffff168152602001828152602001965050505050505060405180910390f35b3480156107c357600080fd5b506107f0600480360360208110156107da57600080fd5b810190808035906020019092919050505061223d565b005b3480156107fe57600080fd5b50610807612584565b005b34801561081557600080fd5b5061084c6004803603604081101561082c57600080fd5b81019080803590602001909291908035906020019092919050505061270c565b005b34801561085a57600080fd5b5061089d6004803603602081101561087157600080fd5b81019080803573ffffffffffffffffffffffffffffffffffffffff169060200190929190505050612a95565b005b6108cb600480360360208110156108b557600080fd5b8101908080359060200190929190505050612b9c565b005b3480156108d957600080fd5b5061091c600480360360208110156108f057600080fd5b81019080803573ffffffffffffffffffffffffffffffffffffffff1690602001909291905050506130e4565b005b34801561092a57600080fd5b506109336131eb565b604051808273ffffffffffffffffffffffffffffffffffffffff1673ffffffffffffffffffffffffffffffffffffffff16815260200191505060405180910390f35b34801561098157600080fd5b506109c46004803603602081101561099857600080fd5b81019080803573ffffffffffffffffffffffffffffffffffffffff169060200190929190505050613214565b005b3480156109d257600080fd5b50610a09600480360360408110156109e957600080fd5b81019080803590602001909291908035906020019092919050505061331b565b604051808273ffffffffffffffffffffffffffffffffffffffff1673ffffffffffffffffffffffffffffffffffffffff16815260200191505060405180910390f35b348015610a5757600080fd5b50610aa460048036036040811015610a6e57600080fd5b8101908080359060200190929190803573ffffffffffffffffffffffffffffffffffffffff16906020019092919050505061334d565b604051808215151515815260200191505060405180910390f35b348015610aca57600080fd5b50610b1760048036036040811015610ae157600080fd5b8101908080359060200190929190803573ffffffffffffffffffffffffffffffffffffffff16906020019092919050505061337f565b005b348015610b2557600080fd5b50610b2e613607565b6040518082815260200191505060405180910390f35b348015610b5057600080fd5b50610e86600480360360c0811015610b6757600080fd5b81019080803573ffffffffffffffffffffffffffffffffffffffff16906020019092919080359060200190640100000000811115610ba457600080fd5b820183602082011115610bb657600080fd5b80359060200191846001830284011164010000000083111715610bd857600080fd5b91908080601f016020809104026020016040519081016040528093929190818152602001838380828437600081840152601f19601f82011690508083019250505050505050919291929080359060200190640100000000811115610c3b57600080fd5b820183602082011115610c4d57600080fd5b80359060200191846001830284011164010000000083111715610c6f57600080fd5b91908080601f016020809104026020016040519081016040528093929190818152602001838380828437600081840152601f19601f82011690508083019250505050505050919291929080359060200190640100000000811115610cd257600080fd5b820183602082011115610ce457600080fd5b80359060200191846001830284011164010000000083111715610d0657600080fd5b91908080601f016020809104026020016040519081016040528093929190818152602001838380828437600081840152601f19601f82011690508083019250505050505050919291929080359060200190640100000000811115610d6957600080fd5b820183602082011115610d7b57600080fd5b80359060200191846001830284011164010000000083111715610d9d57600080fd5b91908080601f016020809104026020016040519081016040528093929190818152602001838380828437600081840152601f19601f82011690508083019250505050505050919291929080359060200190640100000000811115610e0057600080fd5b820183602082011115610e1257600080fd5b80359060200191846001830284011164010000000083111715610e3457600080fd5b91908080601f016020809104026020016040519081016040528093929190818152602001838380828437600081840152601f19601f82011690508083019250505050505050919291929050505061360e565b005b348015610e9457600080fd5b50610e9d613add565b6040518080602001828103825283818151815260200191508051906020019080838360005b83811015610edd578082015181840152602081019050610ec2565b50505050905090810190601f168015610f0a5780820380516001836020036101000a031916815260200191505b509250505060405180910390f35b348015610f2457600080fd5b50610f5160048036036020811015610f3b57600080fd5b8101908080359060200190929190505050613db2565b6040518082815260200191505060405180910390f35b348015610f7357600080fd5b50610fc060048036036040811015610f8a57600080fd5b8101908080359060200190929190803573ffffffffffffffffffffffffffffffffffffffff169060200190929190505050613dd9565b005b610fee60048036036020811015610fd857600080fd5b8101908080359060200190929190505050613e63565b005b348015610ffc57600080fd5b506110296004803603602081101561101357600080fd5b81019080803590602001909291905050506142ea565b005b34801561103757600080fd5b50611040614628565b6040518082815260200191505060405180910390f35b34801561106257600080fd5b506110a56004803603602081101561107957600080fd5b81019080803573ffffffffffffffffffffffffffffffffffffffff169060200190929190505050614661565b005b3480156110b357600080fd5b506110bc61486e565b6040518082815260200191505060405180910390f35b3480156110de57600080fd5b5061110b600480360360208110156110f557600080fd5b81019080803590602001909291905050506148a7565b005b60008060008060006060806060806060611125614fec565b600460008d60405160200180828152602001915050604051602081830303815290604052805190602001208152602001908152602001600020604051806101c001604052908160008201548152602001600182015481526020016002820160009054906101000a900473ffffffffffffffffffffffffffffffffffffffff1673ffffffffffffffffffffffffffffffffffffffff1673ffffffffffffffffffffffffffffffffffffffff1681526020016003820160009054906101000a900473ffffffffffffffffffffffffffffffffffffffff1673ffffffffffffffffffffffffffffffffffffffff1673ffffffffffffffffffffffffffffffffffffffff168152602001600482018054600181600116156101000203166002900480601f0160208091040260200160405190810160405280929190818152602001828054600181600116156101000203166002900480156112c35780601f10611298576101008083540402835291602001916112c3565b820191906000526020600020905b8154815290600101906020018083116112a657829003601f168201915b50505050508152602001600582018054600181600116156101000203166002900480601f0160208091040260200160405190810160405280929190818152602001828054600181600116156101000203166002900480156113655780601f1061133a57610100808354040283529160200191611365565b820191906000526020600020905b81548152906001019060200180831161134857829003601f168201915b50505050508152602001600682018054600181600116156101000203166002900480601f0160208091040260200160405190810160405280929190818152602001828054600181600116156101000203166002900480156114075780601f106113dc57610100808354040283529160200191611407565b820191906000526020600020905b8154815290600101906020018083116113ea57829003601f168201915b50505050508152602001600782018054600181600116156101000203166002900480601f0160208091040260200160405190810160405280929190818152602001828054600181600116156101000203166002900480156114a95780601f1061147e576101008083540402835291602001916114a9565b820191906000526020600020905b81548152906001019060200180831161148c57829003601f168201915b50505050508152602001600882018054600181600116156101000203166002900480601f01602080910402602001604051908101604052809291908181526020018280546001816001161561010002031660029004801561154b5780601f106115205761010080835404028352916020019161154b565b820191906000526020600020905b81548152906001019060200180831161152e57829003601f168201915b5050505050815260200160098201548152602001600a820160009054906101000a900460ff16600881111561157c57fe5b600881111561158757fe5b8152602001600a820160019054906101000a900473ffffffffffffffffffffffffffffffffffffffff1673ffffffffffffffffffffffffffffffffffffffff1673ffffffffffffffffffffffffffffffffffffffff168152602001600b820160009054906101000a900473ffffffffffffffffffffffffffffffffffffffff1673ffffffffffffffffffffffffffffffffffffffff1673ffffffffffffffffffffffffffffffffffffffff168152602001600c820160009054906101000a900473ffffffffffffffffffffffffffffffffffffffff1673ffffffffffffffffffffffffffffffffffffffff1673ffffffffffffffffffffffffffffffffffffffff1681525050905080600001519a508060000151995080610140015160088111156116ae57fe5b98508060400151975080606001519650806080015195508060a0015194508060c0015193508060e0015192508061010001519150509193959799509193959799565b60405180807f52455441494c45525f524f4c4500000000000000000000000000000000000000815250600d019050604051809103902081565b600060016000838152602001908152602001600020600201549050919050565b3361178960405180807f4449535452494255544f525f524f4c4500000000000000000000000000000000815250601001905060405180910390208261334d565b6117fb576040517f08c379a00000000000000000000000000000000000000000000000000000000081526004018080602001828103825260188152602001807f4572726f723a204e6f742061206469737472696275746f72000000000000000081525060200191505060405180910390fd5b816004600881111561180957fe5b600460008360405160200180828152602001915050604051602081830303815290604052805190602001208152602001908152602001600020600a0160009054906101000a900460ff16600881111561185e57fe5b146118d1576040517f08c379a00000000000000000000000000000000000000000000000000000000081526004018080602001828103825260148152602001807f4572726f723a204974656d206e6f7420736f6c6400000000000000000000000081525060200191505060405180910390fd5b60046000846040516020018082815260200191505060405160208183030381529060405280519060200120815260200190815260200160002060020160009054906101000a900473ffffffffffffffffffffffffffffffffffffffff168073ffffffffffffffffffffffffffffffffffffffff163373ffffffffffffffffffffffffffffffffffffffff16146119cf576040517f08c379a000000000000000000000000000000000000000000000000000000000815260040180806020018281038252601b8152602001807f4572726f723a2043616c6c657220697320756e7665726966696564000000000081525060200191505060405180910390fd5b6005600460008660405160200180828152602001915050604051602081830303815290604052805190602001208152602001908152602001600020600a0160006101000a81548160ff02191690836008811115611a2857fe5b02179055507fe441d761121efd79dd11f43df9edbc5eea2497499d90cdbcc47b66a149488fed8460405160200180828152602001915050604051602081830303815290604052805190602001206040518082815260200191505060405180910390a150505050565b611ab76001600084815260200190815260200160002060020154611ab2614c4e565b61334d565b611b0c576040517f08c379a000000000000000000000000000000000000000000000000000000000815260040180806020018281038252602f81526020018061519f602f913960400191505060405180910390fd5b611b168282614c56565b5050565b611b22614c4e565b73ffffffffffffffffffffffffffffffffffffffff168173ffffffffffffffffffffffffffffffffffffffff1614611ba5576040517f08c379a000000000000000000000000000000000000000000000000000000000815260040180806020018281038252602f815260200180615248602f913960400191505060405180910390fd5b611baf8282614cea565b5050565b600260009054906101000a900473ffffffffffffffffffffffffffffffffffffffff1673ffffffffffffffffffffffffffffffffffffffff163373ffffffffffffffffffffffffffffffffffffffff161415611c4457600260009054906101000a900473ffffffffffffffffffffffffffffffffffffffff1673ffffffffffffffffffffffffffffffffffffffff16ff5b565b60405180807f434f4e53554d45525f524f4c4500000000000000000000000000000000000000815250600d019050604051809103902081565b600080600080600080611c90614fec565b600460008960405160200180828152602001915050604051602081830303815290604052805190602001208152602001908152602001600020604051806101c001604052908160008201548152602001600182015481526020016002820160009054906101000a900473ffffffffffffffffffffffffffffffffffffffff1673ffffffffffffffffffffffffffffffffffffffff1673ffffffffffffffffffffffffffffffffffffffff1681526020016003820160009054906101000a900473ffffffffffffffffffffffffffffffffffffffff1673ffffffffffffffffffffffffffffffffffffffff1673ffffffffffffffffffffffffffffffffffffffff168152602001600482018054600181600116156101000203166002900480601f016020809104026020016040519081016040528092919081815260200182805460018160011615610100020316600290048015611e2e5780601f10611e0357610100808354040283529160200191611e2e565b820191906000526020600020905b815481529060010190602001808311611e1157829003601f168201915b50505050508152602001600582018054600181600116156101000203166002900480601f016020809104026020016040519081016040528092919081815260200182805460018160011615610100020316600290048015611ed05780601f10611ea557610100808354040283529160200191611ed0565b820191906000526020600020905b815481529060010190602001808311611eb357829003601f168201915b50505050508152602001600682018054600181600116156101000203166002900480601f016020809104026020016040519081016040528092919081815260200182805460018160011615610100020316600290048015611f725780601f10611f4757610100808354040283529160200191611f72565b820191906000526020600020905b815481529060010190602001808311611f5557829003601f168201915b50505050508152602001600782018054600181600116156101000203166002900480601f0160208091040260200160405190810160405280929190818152602001828054600181600116156101000203166002900480156120145780601f10611fe957610100808354040283529160200191612014565b820191906000526020600020905b815481529060010190602001808311611ff757829003601f168201915b50505050508152602001600882018054600181600116156101000203166002900480601f0160208091040260200160405190810160405280929190818152602001828054600181600116156101000203166002900480156120b65780601f1061208b576101008083540402835291602001916120b6565b820191906000526020600020905b81548152906001019060200180831161209957829003601f168201915b5050505050815260200160098201548152602001600a820160009054906101000a900460ff1660088111156120e757fe5b60088111156120f257fe5b8152602001600a820160019054906101000a900473ffffffffffffffffffffffffffffffffffffffff1673ffffffffffffffffffffffffffffffffffffffff1673ffffffffffffffffffffffffffffffffffffffff168152602001600b820160009054906101000a900473ffffffffffffffffffffffffffffffffffffffff1673ffffffffffffffffffffffffffffffffffffffff1673ffffffffffffffffffffffffffffffffffffffff168152602001600c820160009054906101000a900473ffffffffffffffffffffffffffffffffffffffff1673ffffffffffffffffffffffffffffffffffffffff1673ffffffffffffffffffffffffffffffffffffffff16815250509050806040015196508060600151955080610160015194508061018001519350806101a001519250806101400151600881111561223157fe5b91505091939550919395565b3361227d60405180807f4641524d45525f524f4c45000000000000000000000000000000000000000000815250600b01905060405180910390208261334d565b6122ef576040517f08c379a00000000000000000000000000000000000000000000000000000000081526004018080602001828103825260138152602001807f4572726f723a204e6f742061206661726d65720000000000000000000000000081525060200191505060405180910390fd5b81600160088111156122fd57fe5b600460008360405160200180828152602001915050604051602081830303815290604052805190602001208152602001908152602001600020600a0160009054906101000a900460ff16600881111561235257fe5b146123c5576040517f08c379a000000000000000000000000000000000000000000000000000000000815260040180806020018281038252601d8152602001807f4572726f723a204974656d206e6f74207965742070726f63657373656400000081525060200191505060405180910390fd5b60046000846040516020018082815260200191505060405160208183030381529060405280519060200120815260200190815260200160002060030160009054906101000a900473ffffffffffffffffffffffffffffffffffffffff168073ffffffffffffffffffffffffffffffffffffffff163373ffffffffffffffffffffffffffffffffffffffff16146124c3576040517f08c379a000000000000000000000000000000000000000000000000000000000815260040180806020018281038252601b8152602001807f4572726f723a2043616c6c657220697320756e7665726966696564000000000081525060200191505060405180910390fd5b6002600460008660405160200180828152602001915050604051602081830303815290604052805190602001208152602001908152602001600020600a0160006101000a81548160ff0219169083600881111561251c57fe5b02179055507f32bc153498bca288cfb7fda4a9c569d5e560789a6197553dc03089b815d1928d8460405160200180828152602001915050604051602081830303815290604052805190602001206040518082815260200191505060405180910390a150505050565b61258c614c4e565b73ffffffffffffffffffffffffffffffffffffffff166000809054906101000a900473ffffffffffffffffffffffffffffffffffffffff1673ffffffffffffffffffffffffffffffffffffffff161461264d576040517f08c379a00000000000000000000000000000000000000000000000000000000081526004018080602001828103825260208152602001807f4f776e61626c653a2063616c6c6572206973206e6f7420746865206f776e657281525060200191505060405180910390fd5b600073ffffffffffffffffffffffffffffffffffffffff166000809054906101000a900473ffffffffffffffffffffffffffffffffffffffff1673ffffffffffffffffffffffffffffffffffffffff167f8be0079c531659141344cd1fd0a4f28419497f9722a3daafe3b4186f6b6457e060405160405180910390a360008060006101000a81548173ffffffffffffffffffffffffffffffffffffffff021916908373ffffffffffffffffffffffffffffffffffffffff160217905550565b3361274c60405180807f4641524d45525f524f4c45000000000000000000000000000000000000000000815250600b01905060405180910390208261334d565b6127be576040517f08c379a00000000000000000000000000000000000000000000000000000000081526004018080602001828103825260138152602001807f4572726f723a204e6f742061206661726d65720000000000000000000000000081525060200191505060405180910390fd5b82600260088111156127cc57fe5b600460008360405160200180828152602001915050604051602081830303815290604052805190602001208152602001908152602001600020600a0160009054906101000a900460ff16600881111561282157fe5b14612894576040517f08c379a000000000000000000000000000000000000000000000000000000000815260040180806020018281038252601a8152602001807f4572726f723a204974656d206e6f7420796574207061636b656400000000000081525060200191505060405180910390fd5b60046000856040516020018082815260200191505060405160208183030381529060405280519060200120815260200190815260200160002060030160009054906101000a900473ffffffffffffffffffffffffffffffffffffffff168073ffffffffffffffffffffffffffffffffffffffff163373ffffffffffffffffffffffffffffffffffffffff1614612992576040517f08c379a000000000000000000000000000000000000000000000000000000000815260040180806020018281038252601b8152602001807f4572726f723a2043616c6c657220697320756e7665726966696564000000000081525060200191505060405180910390fd5b83600460008760405160200180828152602001915050604051602081830303815290604052805190602001208152602001908152602001600020600901819055506003600460008760405160200180828152602001915050604051602081830303815290604052805190602001208152602001908152602001600020600a0160006101000a81548160ff02191690836008811115612a2c57fe5b02179055507f6c75adfc7871df0726f5f71faff2b52b6d0ae535e45b4ff093f892f40dfc8d088560405160200180828152602001915050604051602081830303815290604052805190602001206040518082815260200191505060405180910390a15050505050565b338073ffffffffffffffffffffffffffffffffffffffff16600260009054906101000a900473ffffffffffffffffffffffffffffffffffffffff1673ffffffffffffffffffffffffffffffffffffffff1614612b59576040517f08c379a00000000000000000000000000000000000000000000000000000000081526004018080602001828103825260198152602001807f4572726f723a204e6f7420636f6e7472616374206f776e65720000000000000081525060200191505060405180910390fd5b612b9860405180807f4449535452494255544f525f524f4c45000000000000000000000000000000008152506010019050604051809103902083611a90565b5050565b33612bdc60405180807f4449535452494255544f525f524f4c4500000000000000000000000000000000815250601001905060405180910390208261334d565b612c4e576040517f08c379a00000000000000000000000000000000000000000000000000000000081526004018080602001828103825260188152602001807f4572726f723a204e6f742061206469737472696275746f72000000000000000081525060200191505060405180910390fd5b8160036008811115612c5c57fe5b600460008360405160200180828152602001915050604051602081830303815290604052805190602001208152602001908152602001600020600a0160009054906101000a900460ff166008811115612cb157fe5b14612d07576040517f08c379a00000000000000000000000000000000000000000000000000000000081526004018080602001828103825260248152602001806151ce6024913960400191505060405180910390fd5b6004600084604051602001808281526020019150506040516020818303038152906040528051906020012081526020019081526020016000206009015480341015612dba576040517f08c379a00000000000000000000000000000000000000000000000000000000081526004018080602001828103825260168152602001807f4572726f723a204e6f7420656e6f75676820706169640000000000000000000081525060200191505060405180910390fd5b83333360046000886040516020018082815260200191505060405160208183030381529060405280519060200120815260200190815260200160002060020160006101000a81548173ffffffffffffffffffffffffffffffffffffffff021916908373ffffffffffffffffffffffffffffffffffffffff16021790555033600460008860405160200180828152602001915050604051602081830303815290604052805190602001208152602001908152602001600020600a0160016101000a81548173ffffffffffffffffffffffffffffffffffffffff021916908373ffffffffffffffffffffffffffffffffffffffff16021790555060048060008860405160200180828152602001915050604051602081830303815290604052805190602001208152602001908152602001600020600a0160006101000a81548160ff02191690836008811115612f0a57fe5b021790555060046000876040516020018082815260200191505060405160208183030381529060405280519060200120815260200190815260200160002060030160009054906101000a900473ffffffffffffffffffffffffffffffffffffffff1673ffffffffffffffffffffffffffffffffffffffff166108fc600460008960405160200180828152602001915050604051602081830303815290604052805190602001208152602001908152602001600020600901549081150290604051600060405180830381858888f19350505050158015612fed573d6000803e3d6000fd5b507f48d255898ab1ff0ce103198ea5e798da2d1024d1bd565fd2de0dcf50699e9d588660405160200180828152602001915050604051602081830303815290604052805190602001206040518082815260200191505060405180910390a16000600460008460405160200180828152602001915050604051602081830303815290604052805190602001208152602001908152602001600020600901549050600081340390508273ffffffffffffffffffffffffffffffffffffffff166108fc829081150290604051600060405180830381858888f193505050501580156130d9573d6000803e3d6000fd5b505050505050505050565b338073ffffffffffffffffffffffffffffffffffffffff16600260009054906101000a900473ffffffffffffffffffffffffffffffffffffffff1673ffffffffffffffffffffffffffffffffffffffff16146131a8576040517f08c379a00000000000000000000000000000000000000000000000000000000081526004018080602001828103825260198152602001807f4572726f723a204e6f7420636f6e7472616374206f776e65720000000000000081525060200191505060405180910390fd5b6131e760405180807f4641524d45525f524f4c45000000000000000000000000000000000000000000815250600b019050604051809103902083611a90565b5050565b60008060009054906101000a900473ffffffffffffffffffffffffffffffffffffffff16905090565b338073ffffffffffffffffffffffffffffffffffffffff16600260009054906101000a900473ffffffffffffffffffffffffffffffffffffffff1673ffffffffffffffffffffffffffffffffffffffff16146132d8576040517f08c379a00000000000000000000000000000000000000000000000000000000081526004018080602001828103825260198152602001807f4572726f723a204e6f7420636f6e7472616374206f776e65720000000000000081525060200191505060405180910390fd5b61331760405180807f52455441494c45525f524f4c4500000000000000000000000000000000000000815250600d019050604051809103902083611a90565b5050565b60006133458260016000868152602001908152602001600020600001614d7e90919063ffffffff16565b905092915050565b60006133778260016000868152602001908152602001600020600001614c1e90919063ffffffff16565b905092915050565b336133bf60405180807f52455441494c45525f524f4c4500000000000000000000000000000000000000815250600d01905060405180910390208261334d565b613431576040517f08c379a00000000000000000000000000000000000000000000000000000000081526004018080602001828103825260158152602001807f4572726f723a204e6f7420612072657461696c6572000000000000000000000081525060200191505060405180910390fd5b826006600881111561343f57fe5b600460008360405160200180828152602001915050604051602081830303815290604052805190602001208152602001908152602001600020600a0160009054906101000a900460ff16600881111561349457fe5b14613507576040517f08c379a00000000000000000000000000000000000000000000000000000000081526004018080602001828103825260188152602001807f4572726f723a204974656d206e6f74207265636569766564000000000000000081525060200191505060405180910390fd5b6007600460008660405160200180828152602001915050604051602081830303815290604052805190602001208152602001908152602001600020600a0160006101000a81548160ff0219169083600881111561356057fe5b02179055506135a460405180807f434f4e53554d45525f524f4c4500000000000000000000000000000000000000815250600d019050604051809103902084611a90565b7fce7cee234634432fd0e6e12083fd79e8c52cb5a45c701df4fd132f4b47b0e30a8460405160200180828152602001915050604051602081830303815290604052805190602001206040518082815260200191505060405180910390a150505050565b6000801b81565b3361364e60405180807f4641524d45525f524f4c45000000000000000000000000000000000000000000815250600b01905060405180910390208261334d565b6136c0576040517f08c379a00000000000000000000000000000000000000000000000000000000081526004018080602001828103825260138152602001807f4572726f723a204e6f742061206661726d65720000000000000000000000000081525060200191505060405180910390fd5b600354600460006003546040516020018082815260200191505060405160208183030381529060405280519060200120815260200190815260200160002060000181905550600354604051602001808281526020019150506040516020818303038152906040528051906020012060046000600354604051602001808281526020019150506040516020818303038152906040528051906020012081526020019081526020016000206001018190555086600460006003546040516020018082815260200191505060405160208183030381529060405280519060200120815260200190815260200160002060030160006101000a81548173ffffffffffffffffffffffffffffffffffffffff021916908373ffffffffffffffffffffffffffffffffffffffff160217905550856004600060035460405160200180828152602001915050604051602081830303815290604052805190602001208152602001908152602001600020600401908051906020019061383f9291906150d7565b5084600460006003546040516020018082815260200191505060405160208183030381529060405280519060200120815260200190815260200160002060050190805190602001906138929291906150d7565b5083600460006003546040516020018082815260200191505060405160208183030381529060405280519060200120815260200190815260200160002060060190805190602001906138e59291906150d7565b5082600460006003546040516020018082815260200191505060405160208183030381529060405280519060200120815260200190815260200160002060070190805190602001906139389291906150d7565b50816004600060035460405160200180828152602001915050604051602081830303815290604052805190602001208152602001908152602001600020600801908051906020019061398b9291906150d7565b5086600460006003546040516020018082815260200191505060405160208183030381529060405280519060200120815260200190815260200160002060020160006101000a81548173ffffffffffffffffffffffffffffffffffffffff021916908373ffffffffffffffffffffffffffffffffffffffff16021790555060006004600060035460405160200180828152602001915050604051602081830303815290604052805190602001208152602001908152602001600020600a0160006101000a81548160ff02191690836008811115613a6457fe5b02179055507f287daceac44f9b9ea152bd8505357784b19fa904a395802a01afcbc475e34f1a60035460405160200180828152602001915050604051602081830303815290604052805190602001206040518082815260200191505060405180910390a160016003540160038190555050505050505050565b6060613b1e60405180807f4641524d45525f524f4c45000000000000000000000000000000000000000000815250600b01905060405180910390203361334d565b15613b60576040518060400160405280600681526020017f6661726d657200000000000000000000000000000000000000000000000000008152509050613daf565b613b9f60405180807f4449535452494255544f525f524f4c4500000000000000000000000000000000815250601001905060405180910390203361334d565b15613be1576040518060400160405280600b81526020017f6469737472696275746f720000000000000000000000000000000000000000008152509050613daf565b613c2060405180807f52455441494c45525f524f4c4500000000000000000000000000000000000000815250600d01905060405180910390203361334d565b15613c62576040518060400160405280600881526020017f72657461696c65720000000000000000000000000000000000000000000000008152509050613daf565b613ca160405180807f434f4e53554d45525f524f4c4500000000000000000000000000000000000000815250600d01905060405180910390203361334d565b15613ce3576040518060400160405280600881526020017f636f6e73756d65720000000000000000000000000000000000000000000000008152509050613daf565b3373ffffffffffffffffffffffffffffffffffffffff16600260009054906101000a900473ffffffffffffffffffffffffffffffffffffffff1673ffffffffffffffffffffffffffffffffffffffff161415613d76576040518060400160405280600581526020017f6f776e65720000000000000000000000000000000000000000000000000000008152509050613daf565b6040518060400160405280600481526020017f6e6f6e650000000000000000000000000000000000000000000000000000000081525090505b90565b6000613dd260016000848152602001908152602001600020600001614d98565b9050919050565b613e006001600084815260200190815260200160002060020154613dfb614c4e565b61334d565b613e55576040517f08c379a00000000000000000000000000000000000000000000000000000000081526004018080602001828103825260308152602001806152186030913960400191505060405180910390fd5b613e5f8282614cea565b5050565b33613ea360405180807f434f4e53554d45525f524f4c4500000000000000000000000000000000000000815250600d01905060405180910390208261334d565b613f15576040517f08c379a00000000000000000000000000000000000000000000000000000000081526004018080602001828103825260158152602001807f4572726f723a204e6f74206120636f6e73756d6572000000000000000000000081525060200191505060405180910390fd5b8160076008811115613f2357fe5b600460008360405160200180828152602001915050604051602081830303815290604052805190602001208152602001908152602001600020600a0160009054906101000a900460ff166008811115613f7857fe5b14613feb576040517f08c379a000000000000000000000000000000000000000000000000000000000815260040180806020018281038252601b8152602001807f4572726f723a2053616c65206e6f7420696e697469616c697a6564000000000081525060200191505060405180910390fd5b600460008460405160200180828152602001915050604051602081830303815290604052805190602001208152602001908152602001600020600901548034101561409e576040517f08c379a00000000000000000000000000000000000000000000000000000000081526004018080602001828103825260168152602001807f4572726f723a204e6f7420656e6f75676820706169640000000000000000000081525060200191505060405180910390fd5b83333360046000886040516020018082815260200191505060405160208183030381529060405280519060200120815260200190815260200160002060020160006101000a81548173ffffffffffffffffffffffffffffffffffffffff021916908373ffffffffffffffffffffffffffffffffffffffff16021790555033600460008860405160200180828152602001915050604051602081830303815290604052805190602001208152602001908152602001600020600c0160006101000a81548173ffffffffffffffffffffffffffffffffffffffff021916908373ffffffffffffffffffffffffffffffffffffffff1602179055506008600460008860405160200180828152602001915050604051602081830303815290604052805190602001208152602001908152602001600020600a0160006101000a81548160ff021916908360088111156141ef57fe5b02179055507fe010cd4f8ac0f83fb81b6aca380ccf29c82ed0e4afe94546a79a88915226b9ed8660405160200180828152602001915050604051602081830303815290604052805190602001206040518082815260200191505060405180910390a16000600460008460405160200180828152602001915050604051602081830303815290604052805190602001208152602001908152602001600020600901549050600081340390508273ffffffffffffffffffffffffffffffffffffffff166108fc829081150290604051600060405180830381858888f193505050501580156142df573d6000803e3d6000fd5b505050505050505050565b3361432a60405180807f52455441494c45525f524f4c4500000000000000000000000000000000000000815250600d01905060405180910390208261334d565b61439c576040517f08c379a00000000000000000000000000000000000000000000000000000000081526004018080602001828103825260158152602001807f4572726f723a204e6f7420612072657461696c6572000000000000000000000081525060200191505060405180910390fd5b81600560088111156143aa57fe5b600460008360405160200180828152602001915050604051602081830303815290604052805190602001208152602001908152602001600020600a0160009054906101000a900460ff1660088111156143ff57fe5b14614472576040517f08c379a00000000000000000000000000000000000000000000000000000000081526004018080602001828103825260178152602001807f4572726f723a204974656d206e6f74207368697070656400000000000000000081525060200191505060405180910390fd5b3360046000856040516020018082815260200191505060405160208183030381529060405280519060200120815260200190815260200160002060020160006101000a81548173ffffffffffffffffffffffffffffffffffffffff021916908373ffffffffffffffffffffffffffffffffffffffff16021790555033600460008560405160200180828152602001915050604051602081830303815290604052805190602001208152602001908152602001600020600b0160006101000a81548173ffffffffffffffffffffffffffffffffffffffff021916908373ffffffffffffffffffffffffffffffffffffffff1602179055506006600460008560405160200180828152602001915050604051602081830303815290604052805190602001208152602001908152602001600020600a0160006101000a81548160ff021916908360088111156145c157fe5b02179055507f383ab61835ef171bf38d73022941ddcab99ceb1f013160359750ac5f8f8e4f148360405160200180828152602001915050604051602081830303815290604052805190602001206040518082815260200191505060405180910390a1505050565b60405180807f4449535452494255544f525f524f4c45000000000000000000000000000000008152506010019050604051809103902081565b614669614c4e565b73ffffffffffffffffffffffffffffffffffffffff166000809054906101000a900473ffffffffffffffffffffffffffffffffffffffff1673ffffffffffffffffffffffffffffffffffffffff161461472a576040517f08c379a00000000000000000000000000000000000000000000000000000000081526004018080602001828103825260208152602001807f4f776e61626c653a2063616c6c6572206973206e6f7420746865206f776e657281525060200191505060405180910390fd5b600073ffffffffffffffffffffffffffffffffffffffff168173ffffffffffffffffffffffffffffffffffffffff1614156147b0576040517f08c379a00000000000000000000000000000000000000000000000000000000081526004018080602001828103825260268152602001806151f26026913960400191505060405180910390fd5b8073ffffffffffffffffffffffffffffffffffffffff166000809054906101000a900473ffffffffffffffffffffffffffffffffffffffff1673ffffffffffffffffffffffffffffffffffffffff167f8be0079c531659141344cd1fd0a4f28419497f9722a3daafe3b4186f6b6457e060405160405180910390a3806000806101000a81548173ffffffffffffffffffffffffffffffffffffffff021916908373ffffffffffffffffffffffffffffffffffffffff16021790555050565b60405180807f4641524d45525f524f4c45000000000000000000000000000000000000000000815250600b019050604051809103902081565b336148e760405180807f4641524d45525f524f4c45000000000000000000000000000000000000000000815250600b01905060405180910390208261334d565b614959576040517f08c379a00000000000000000000000000000000000000000000000000000000081526004018080602001828103825260138152602001807f4572726f723a204e6f742061206661726d65720000000000000000000000000081525060200191505060405180910390fd5b816000600881111561496757fe5b600460008360405160200180828152602001915050604051602081830303815290604052805190602001208152602001908152602001600020600a0160009054906101000a900460ff1660088111156149bc57fe5b14614a2f576040517f08c379a000000000000000000000000000000000000000000000000000000000815260040180806020018281038252601d8152602001807f4572726f723a204974656d206e6f74207965742068617276657374656400000081525060200191505060405180910390fd5b60046000846040516020018082815260200191505060405160208183030381529060405280519060200120815260200190815260200160002060030160009054906101000a900473ffffffffffffffffffffffffffffffffffffffff168073ffffffffffffffffffffffffffffffffffffffff163373ffffffffffffffffffffffffffffffffffffffff1614614b2d576040517f08c379a000000000000000000000000000000000000000000000000000000000815260040180806020018281038252601b8152602001807f4572726f723a2043616c6c657220697320756e7665726966696564000000000081525060200191505060405180910390fd5b6001600460008660405160200180828152602001915050604051602081830303815290604052805190602001208152602001908152602001600020600a0160006101000a81548160ff02191690836008811115614b8657fe5b02179055507f533f7dadbc941d74aaeaeccf2e8b5c0c607281e9050f147d7606feed36c4306c8460405160200180828152602001915050604051602081830303815290604052805190602001206040518082815260200191505060405180910390a150505050565b6000614c16836000018373ffffffffffffffffffffffffffffffffffffffff1660001b614dad565b905092915050565b6000614c46836000018373ffffffffffffffffffffffffffffffffffffffff1660001b614e1d565b905092915050565b600033905090565b614c7e8160016000858152602001908152602001600020600001614bee90919063ffffffff16565b15614ce657614c8b614c4e565b73ffffffffffffffffffffffffffffffffffffffff168173ffffffffffffffffffffffffffffffffffffffff16837f2f8788117e7eff1d82e926ec794901d17c78024a50270940304540a733656f0d60405160405180910390a45b5050565b614d128160016000858152602001908152602001600020600001614e4090919063ffffffff16565b15614d7a57614d1f614c4e565b73ffffffffffffffffffffffffffffffffffffffff168173ffffffffffffffffffffffffffffffffffffffff16837ff6391f5c32d9c69d2a47ea670b442974b53935d1edc7fd64eb21e047a839171b60405160405180910390a45b5050565b6000614d8d8360000183614e70565b60001c905092915050565b6000614da682600001614ef3565b9050919050565b6000614db98383614e1d565b614e12578260000182908060018154018082558091505060019003906000526020600020016000909190919091505582600001805490508360010160008481526020019081526020016000208190555060019050614e17565b600090505b92915050565b600080836001016000848152602001908152602001600020541415905092915050565b6000614e68836000018373ffffffffffffffffffffffffffffffffffffffff1660001b614f04565b905092915050565b600081836000018054905011614ed1576040517f08c379a000000000000000000000000000000000000000000000000000000000815260040180806020018281038252602281526020018061517d6022913960400191505060405180910390fd5b826000018281548110614ee057fe5b9060005260206000200154905092915050565b600081600001805490509050919050565b60008083600101600084815260200190815260200160002054905060008114614fe05760006001820390506000600186600001805490500390506000866000018281548110614f4f57fe5b9060005260206000200154905080876000018481548110614f6c57fe5b9060005260206000200181905550600183018760010160008381526020019081526020016000208190555086600001805480614fa457fe5b60019003818190600052602060002001600090559055866001016000878152602001908152602001600020600090556001945050505050614fe6565b60009150505b92915050565b604051806101c001604052806000815260200160008019168152602001600073ffffffffffffffffffffffffffffffffffffffff168152602001600073ffffffffffffffffffffffffffffffffffffffff1681526020016060815260200160608152602001606081526020016060815260200160608152602001600081526020016000600881111561507a57fe5b8152602001600073ffffffffffffffffffffffffffffffffffffffff168152602001600073ffffffffffffffffffffffffffffffffffffffff168152602001600073ffffffffffffffffffffffffffffffffffffffff1681525090565b828054600181600116156101000203166002900490600052602060002090601f016020900481019282601f1061511857805160ff1916838001178555615146565b82800160010185558215615146579182015b8281111561514557825182559160200191906001019061512a565b5b5090506151539190615157565b5090565b61517991905b8082111561517557600081600090555060010161515d565b5090565b9056fe456e756d657261626c655365743a20696e646578206f7574206f6620626f756e6473416363657373436f6e74726f6c3a2073656e646572206d75737420626520616e2061646d696e20746f206772616e744572726f723a204974656d206e6f742079657420616464656420746f2070616c657474654f776e61626c653a206e6577206f776e657220697320746865207a65726f2061646472657373416363657373436f6e74726f6c3a2073656e646572206d75737420626520616e2061646d696e20746f207265766f6b65416363657373436f6e74726f6c3a2063616e206f6e6c792072656e6f756e636520726f6c657320666f722073656c66a264697066735822122002c5232ebae33faedcd6c4073d53a4a2c1439f9075cad8314f85b3caf792183e64736f6c634300060a0033416363657373436f6e74726f6c3a2073656e646572206d75737420626520616e2061646d696e20746f206772616e744572726f723a2041637469766520636861696e207061727469636970616e742063616e6e6f7420626520636f6e7472616374206f776e6572",
  "immutableReferences": {},
  "source": "// SPDX-License-Identifier: UNLICENSED\npragma solidity ^0.6.0;\nimport '../node_modules/@openzeppelin/contracts/access/Ownable.sol';\nimport '../node_modules/@openzeppelin/contracts/access/AccessControl.sol';\n\n\ncontract SupplyChain is Ownable, AccessControl {\n\n    address payable contractOwner;\n\n    bytes32 public constant FARMER_ROLE = keccak256('FARMER_ROLE');\n    bytes32 public constant DISTRIBUTOR_ROLE = keccak256('DISTRIBUTOR_ROLE');\n    bytes32 public constant RETAILER_ROLE = keccak256('RETAILER_ROLE');\n    bytes32 public constant CONSUMER_ROLE = keccak256('CONSUMER_ROLE');\n\n    uint sku;\n\n    mapping(bytes32 => Item) items;\n    mapping(uint => string[]) itemHistory;\n\n    enum State {\n        Harvested,  // 0\n        Processed,  // 1\n        Packed,     // 2\n        AddedToPalette,    // 3\n        Sold,       // 4\n        Shipped,    // 5\n        Received,   // 6\n        SaleInitialized, // 7\n        Bought   // 8\n    }\n\n    State constant defaultState = State.Harvested;\n\n    struct Item {\n        uint    sku;  // Stock Keeping Unit (SKU)\n        bytes32    upc; // Universal Product Code (UPC), generated by the Farmer, goes on the package, can be verified by the Consumer\n        address payable ownerID;  // Metamask-Ethereum address of the current owner as the product moves through 8 stages\n        address payable originFarmerID; // Metamask-Ethereum address of the Farmer\n        string  originFarmName; // Farmer Name\n        string  originFarmInformation;  // Farmer Information\n        string  originFarmLatitude; // Farm Latitude\n        string  originFarmLongitude;  // Farm Longitude\n        string  productName; // Product Notes\n        uint    productPrice; // Product Price\n        State   itemState;  // Product State as represented in the enum above\n        address payable distributorID;  // Metamask-Ethereum address of the Distributor\n        address payable retailerID; // Metamask-Ethereum address of the Retailer\n        address payable consumerID; // Metamask-Ethereum address of the Consumer\n    }\n\n    event Harvested(bytes32 upc);\n    event Processed(bytes32 upc);\n    event Packed(bytes32 upc);\n    event AddedToPalette(bytes32 upc);\n    event Sold(bytes32 upc);\n    event Shipped(bytes32 upc);\n    event Received(bytes32 upc);\n    event SaleInitialized(bytes32 upc);\n    event Bought(bytes32 upc);\n\n    modifier verifyCaller (address _address) {\n        require(msg.sender == _address, 'Error: Caller is unverified');\n        _;\n    }\n    modifier paidEnough(uint _price) {\n        require(msg.value >= _price, 'Error: Not enough paid');\n        _;\n    }\n    modifier refundExcess(uint _upc, address payable _address) {\n        _;\n        uint _price = items[keccak256(abi.encodePacked(_upc))].productPrice;\n        uint amountToReturn = msg.value - _price;\n        _address.transfer(amountToReturn);\n    }\n    modifier notContractOwner(address _address) {\n        require(contractOwner != _address, 'Error: Active chain participant cannot be contract owner');\n        _;\n    }\n    modifier onlyContractOwner(address _address) {\n        require(contractOwner == _address, 'Error: Not contract owner');\n        _;\n    }\n    modifier onlyFarmer(address _address) {\n        require(hasRole(FARMER_ROLE, _address), 'Error: Not a farmer');\n        _;\n    }\n    modifier onlyDistributor(address _address) {\n        require(hasRole(DISTRIBUTOR_ROLE, _address), 'Error: Not a distributor');\n        _;\n    }\n    modifier onlyRetailer(address _address) {\n        require(hasRole(RETAILER_ROLE, _address), 'Error: Not a retailer');\n        _;\n    }\n    modifier onlyConsumer(address _address) {\n        require(hasRole(CONSUMER_ROLE, _address), 'Error: Not a consumer');\n        _;\n    }\n    modifier harvested(uint _upc) {\n        require(items[keccak256(abi.encodePacked(_upc))].itemState == State.Harvested, 'Error: Item not yet harvested');\n        _;\n    }\n    modifier processed(uint _upc) {\n        require(items[keccak256(abi.encodePacked(_upc))].itemState == State.Processed, 'Error: Item not yet processed');\n        _;\n    }\n    modifier packed(uint _upc) {\n        require(items[keccak256(abi.encodePacked(_upc))].itemState == State.Packed, 'Error: Item not yet packed');\n        _;\n    }\n    modifier addedToPalette(uint _upc) {\n        require(items[keccak256(abi.encodePacked(_upc))].itemState == State.AddedToPalette, 'Error: Item not yet added to palette');\n        _;\n    }\n    modifier sold(uint _upc) {\n        require(items[keccak256(abi.encodePacked(_upc))].itemState == State.Sold, 'Error: Item not sold');\n        _;\n    }\n    modifier shipped(uint _upc) {\n        require(items[keccak256(abi.encodePacked(_upc))].itemState == State.Shipped, 'Error: Item not shipped');\n        _;\n    }\n    modifier received(uint _upc) {\n        require(items[keccak256(abi.encodePacked(_upc))].itemState == State.Received, 'Error: Item not received');\n        _;\n    }\n    modifier saleInitialized(uint _upc) {\n        require(items[keccak256(abi.encodePacked(_upc))].itemState == State.SaleInitialized, 'Error: Sale not initialized');\n        _;\n    }\n    modifier bought(uint _upc) {\n        require(items[keccak256(abi.encodePacked(_upc))].itemState == State.Bought, 'Error: Item not bought');\n        _;\n    }\n\n    constructor(\n    address initialFarmer,\n    address initialDistributor,\n    address initialRetailer\n    ) public payable notContractOwner(initialFarmer) notContractOwner(initialDistributor) notContractOwner(initialRetailer) {\n        _setupRole(DEFAULT_ADMIN_ROLE, msg.sender);\n        grantRole(FARMER_ROLE, initialFarmer);\n        grantRole(DISTRIBUTOR_ROLE, initialDistributor);\n        grantRole(RETAILER_ROLE, initialRetailer);\n        _setRoleAdmin(CONSUMER_ROLE, RETAILER_ROLE);\n        contractOwner = msg.sender;\n        sku = 1;\n    }\n\n    function kill() public {\n        if (msg.sender == contractOwner) {\n            selfdestruct(contractOwner);\n        }\n    }\n\n    function addFarmer(\n    address payable farmer\n    )  public onlyContractOwner(msg.sender) {\n        grantRole(FARMER_ROLE, farmer);\n    }\n\n    function addDistributor(\n    address payable distributor\n    ) public onlyContractOwner(msg.sender) {\n        grantRole(DISTRIBUTOR_ROLE, distributor);\n    }\n\n    function addRetailer(\n    address payable retailer\n    ) public onlyContractOwner(msg.sender) {\n        grantRole(RETAILER_ROLE, retailer);\n    }\n\n    function getUserRole() public view returns (\n        string memory\n    ) {\n        if (hasRole(FARMER_ROLE, msg.sender)) return 'farmer';\n        if (hasRole(DISTRIBUTOR_ROLE, msg.sender)) return 'distributor';\n        if (hasRole(RETAILER_ROLE, msg.sender)) return 'retailer';\n        if (hasRole(CONSUMER_ROLE, msg.sender)) return 'consumer';\n        if (contractOwner == msg.sender) return 'owner';\n        return 'none';\n    }\n\n    function harvest(\n    address payable _originFarmerId,\n    string memory _originFarmName,\n    string memory _originFarmInformation,\n    string  memory _originFarmLatitude,\n    string  memory _originFarmLongitude,\n    string  memory _productName\n    ) public onlyFarmer(msg.sender) {\n        items[keccak256(abi.encodePacked(sku))].sku = sku;\n        items[keccak256(abi.encodePacked(sku))].upc = keccak256(abi.encodePacked(sku));\n        items[keccak256(abi.encodePacked(sku))].originFarmerID = _originFarmerId;\n        items[keccak256(abi.encodePacked(sku))].originFarmName = _originFarmName;\n        items[keccak256(abi.encodePacked(sku))].originFarmInformation = _originFarmInformation;\n        items[keccak256(abi.encodePacked(sku))].originFarmLatitude = _originFarmLatitude;\n        items[keccak256(abi.encodePacked(sku))].originFarmLongitude = _originFarmLongitude;\n        items[keccak256(abi.encodePacked(sku))].productName = _productName;\n        items[keccak256(abi.encodePacked(sku))].ownerID = _originFarmerId;\n        items[keccak256(abi.encodePacked(sku))].itemState = State.Harvested;\n        emit Harvested(keccak256(abi.encodePacked(sku)));\n        sku = sku + 1;\n    }\n\n    function process(\n    uint _upc\n    ) public onlyFarmer(msg.sender) harvested(_upc) verifyCaller(items[keccak256(abi.encodePacked(_upc))].originFarmerID) {\n        items[keccak256(abi.encodePacked(_upc))].itemState = State.Processed;\n        emit Processed(keccak256(abi.encodePacked(_upc)));\n    }\n\n    function pack(\n    uint _upc\n    ) public onlyFarmer(msg.sender) processed(_upc) verifyCaller(items[keccak256(abi.encodePacked(_upc))].originFarmerID) {\n        items[keccak256(abi.encodePacked(_upc))].itemState = State.Packed;\n        emit Packed(keccak256(abi.encodePacked(_upc)));\n    }\n\n    function addToPalette(\n    uint _upc,\n    uint _productPrice\n    )  public onlyFarmer(msg.sender) packed(_upc) verifyCaller(items[keccak256(abi.encodePacked(_upc))].originFarmerID) {\n        items[keccak256(abi.encodePacked(_upc))].productPrice = _productPrice;\n        items[keccak256(abi.encodePacked(_upc))].itemState = State.AddedToPalette;\n        emit AddedToPalette(keccak256(abi.encodePacked(_upc)));\n    }\n\n    function buyPalette(\n    uint _upc\n    ) public payable onlyDistributor(msg.sender)\n     addedToPalette(_upc) paidEnough(items[keccak256(abi.encodePacked(_upc))].productPrice) refundExcess(_upc, msg.sender) {\n        items[keccak256(abi.encodePacked(_upc))].ownerID = msg.sender;\n        items[keccak256(abi.encodePacked(_upc))].distributorID = msg.sender;\n        items[keccak256(abi.encodePacked(_upc))].itemState = State.Sold;\n        items[keccak256(abi.encodePacked(_upc))].originFarmerID.transfer(items[keccak256(abi.encodePacked(_upc))].productPrice);\n        emit Sold(keccak256(abi.encodePacked(_upc)));\n    }\n\n    function shipPalette(\n    uint _upc\n    ) public onlyDistributor(msg.sender)  sold(_upc) verifyCaller(items[keccak256(abi.encodePacked(_upc))].ownerID) {\n        items[keccak256(abi.encodePacked(_upc))].itemState = State.Shipped;\n        emit Shipped(keccak256(abi.encodePacked(_upc)));\n    }\n\n    function receivePalette(\n    uint _upc\n    ) public onlyRetailer(msg.sender) shipped(_upc) {\n        items[keccak256(abi.encodePacked(_upc))].ownerID = msg.sender;\n        items[keccak256(abi.encodePacked(_upc))].retailerID = msg.sender;\n        items[keccak256(abi.encodePacked(_upc))].itemState = State.Received;\n        emit Received(keccak256(abi.encodePacked(_upc)));\n    }\n\n    function initializeSale(\n    uint _upc,\n    address _consumerID\n    ) public onlyRetailer(msg.sender) received(_upc) {\n        items[keccak256(abi.encodePacked(_upc))].itemState = State.SaleInitialized;\n        grantRole(CONSUMER_ROLE, _consumerID);\n        emit SaleInitialized(keccak256(abi.encodePacked(_upc)));\n    }\n\n    function buy(\n    uint _upc\n    ) public payable onlyConsumer(msg.sender) saleInitialized(_upc)\n    paidEnough(items[keccak256(abi.encodePacked(_upc))].productPrice) refundExcess(_upc, msg.sender) {\n        items[keccak256(abi.encodePacked(_upc))].ownerID = msg.sender;\n        items[keccak256(abi.encodePacked(_upc))].consumerID = msg.sender;\n        items[keccak256(abi.encodePacked(_upc))].itemState = State.Bought;\n        emit Bought(keccak256(abi.encodePacked(_upc)));\n    }\n\n    function fetchProduct(\n    uint _upc\n    ) public view returns (\n    uint itemSKU,\n    uint itemUPC,\n    uint itemState,\n    address ownerID,\n    address originFarmerID,\n    string memory originFarmName,\n    string memory originFarmInformation,\n    string memory originFarmLatitude,\n    string memory originFarmLongitude,\n    string memory productName\n    ) {\n        Item memory item = items[keccak256(abi.encodePacked(_upc))];\n\n        itemSKU = item.sku;\n        itemUPC = item.sku;\n        itemState = uint(item.itemState);\n        ownerID = item.ownerID;\n        originFarmerID = item.originFarmerID;\n        originFarmName = item.originFarmName;\n        originFarmInformation = item.originFarmInformation;\n        originFarmLatitude = item.originFarmLatitude;\n        originFarmLongitude = item.originFarmLongitude;\n        productName = item.productName;\n    }\n\n    function fetchProductHistory(\n    uint _upc\n    ) public view returns (\n    address ownerID,\n    address originFarmerID,\n    address distributorID,\n    address retailerID,\n    address consumerID,\n    uint itemState\n    ) {\n        Item memory item = items[keccak256(abi.encodePacked(_upc))];\n\n        ownerID = item.ownerID;\n        originFarmerID = item.originFarmerID;\n        distributorID = item.distributorID;\n        retailerID = item.retailerID;\n        consumerID = item.consumerID;\n        itemState = uint(item.itemState);\n    }\n}",
  "sourcePath": "/Users/sameer/CoffeeBeanSupplyChain/contracts/SupplyChain.sol",
  "compiler": {
    "name": "solc",
    "version": "0.6.10+commit.00c0fcaf.Emscripten.clang"
  },
  "schemaVersion": "3.1.0",
  "updatedAt": "2020-06-16T18:02:40.179Z",
  "networkType": "quorum",
  "devdoc": {
    "methods": {
      "getRoleAdmin(bytes32)": {
        "details": "Returns the admin role that controls `role`. See {grantRole} and {revokeRole}. To change a role's admin, use {_setRoleAdmin}."
      },
      "getRoleMember(bytes32,uint256)": {
        "details": "Returns one of the accounts that have `role`. `index` must be a value between 0 and {getRoleMemberCount}, non-inclusive. Role bearers are not sorted in any particular way, and their ordering may change at any point. WARNING: When using {getRoleMember} and {getRoleMemberCount}, make sure you perform all queries on the same block. See the following https://forum.openzeppelin.com/t/iterating-over-elements-on-enumerableset-in-openzeppelin-contracts/2296[forum post] for more information."
      },
      "getRoleMemberCount(bytes32)": {
        "details": "Returns the number of accounts that have `role`. Can be used together with {getRoleMember} to enumerate all bearers of a role."
      },
      "grantRole(bytes32,address)": {
        "details": "Grants `role` to `account`. If `account` had not been already granted `role`, emits a {RoleGranted} event. Requirements: - the caller must have ``role``'s admin role."
      },
      "hasRole(bytes32,address)": {
        "details": "Returns `true` if `account` has been granted `role`."
      },
      "owner()": {
        "details": "Returns the address of the current owner."
      },
      "renounceOwnership()": {
        "details": "Leaves the contract without owner. It will not be possible to call `onlyOwner` functions anymore. Can only be called by the current owner. NOTE: Renouncing ownership will leave the contract without an owner, thereby removing any functionality that is only available to the owner."
      },
      "renounceRole(bytes32,address)": {
        "details": "Revokes `role` from the calling account. Roles are often managed via {grantRole} and {revokeRole}: this function's purpose is to provide a mechanism for accounts to lose their privileges if they are compromised (such as when a trusted device is misplaced). If the calling account had been granted `role`, emits a {RoleRevoked} event. Requirements: - the caller must be `account`."
      },
      "revokeRole(bytes32,address)": {
        "details": "Revokes `role` from `account`. If `account` had been granted `role`, emits a {RoleRevoked} event. Requirements: - the caller must have ``role``'s admin role."
      },
      "transferOwnership(address)": {
        "details": "Transfers ownership of the contract to a new account (`newOwner`). Can only be called by the current owner."
      }
    }
  },
  "userdoc": {
    "methods": {}
  }
}